{
  "contractName": "PausableWithoutRenounce",
  "abi": [
    {
      "anonymous": false,
      "inputs": [
        {
          "indexed": false,
          "internalType": "address",
          "name": "account",
          "type": "address"
        }
      ],
      "name": "Paused",
      "type": "event"
    },
    {
      "anonymous": false,
      "inputs": [
        {
          "indexed": true,
          "internalType": "address",
          "name": "account",
          "type": "address"
        }
      ],
      "name": "PauserAdded",
      "type": "event"
    },
    {
      "anonymous": false,
      "inputs": [
        {
          "indexed": true,
          "internalType": "address",
          "name": "account",
          "type": "address"
        }
      ],
      "name": "PauserRemoved",
      "type": "event"
    },
    {
      "anonymous": false,
      "inputs": [
        {
          "indexed": false,
          "internalType": "address",
          "name": "account",
          "type": "address"
        }
      ],
      "name": "Unpaused",
      "type": "event"
    },
    {
      "constant": false,
      "inputs": [
        {
          "internalType": "address",
          "name": "account",
          "type": "address"
        }
      ],
      "name": "addPauser",
      "outputs": [],
      "payable": false,
      "stateMutability": "nonpayable",
      "type": "function"
    },
    {
      "constant": true,
      "inputs": [
        {
          "internalType": "address",
          "name": "account",
          "type": "address"
        }
      ],
      "name": "isPauser",
      "outputs": [
        {
          "internalType": "bool",
          "name": "",
          "type": "bool"
        }
      ],
      "payable": false,
      "stateMutability": "view",
      "type": "function"
    },
    {
      "constant": false,
      "inputs": [
        {
          "internalType": "address",
          "name": "sender",
          "type": "address"
        }
      ],
      "name": "initialize",
      "outputs": [],
      "payable": false,
      "stateMutability": "nonpayable",
      "type": "function"
    },
    {
      "constant": true,
      "inputs": [],
      "name": "paused",
      "outputs": [
        {
          "internalType": "bool",
          "name": "",
          "type": "bool"
        }
      ],
      "payable": false,
      "stateMutability": "view",
      "type": "function"
    },
    {
      "constant": false,
      "inputs": [],
      "name": "pause",
      "outputs": [],
      "payable": false,
      "stateMutability": "nonpayable",
      "type": "function"
    },
    {
      "constant": false,
      "inputs": [],
      "name": "unpause",
      "outputs": [],
      "payable": false,
      "stateMutability": "nonpayable",
      "type": "function"
    }
  ],
  "bytecode": "0x6080604052610688806100136000396000f3fe608060405234801561001057600080fd5b50600436106100625760003560e01c80633f4ba83a1461006757806346fbf68e146100715780635c975abb146100ab57806382dc1ec4146100b35780638456cb59146100d9578063c4d66de8146100e1575b600080fd5b61006f610107565b005b6100976004803603602081101561008757600080fd5b50356001600160a01b03166101f0565b604080519115158252519081900360200190f35b610097610209565b61006f600480360360208110156100c957600080fd5b50356001600160a01b0316610212565b61006f610264565b61006f600480360360208110156100f757600080fd5b50356001600160a01b031661032b565b6101176101126103e1565b6101f0565b6101525760405162461bcd60e51b81526004018080602001828103825260308152602001806105d46030913960400191505060405180910390fd5b60665460ff166101a0576040805162461bcd60e51b815260206004820152601460248201527314185d5cd8589b194e881b9bdd081c185d5cd95960621b604482015290519081900360640190fd5b6066805460ff191690557f5db9ee0a495bf2e6ff9c91a7834c1ba4fdd244a5e8aa4e537bd38aeae4b073aa6101d36103e1565b604080516001600160a01b039092168252519081900360200190a1565b600061020360338363ffffffff6103e516565b92915050565b60665460ff1690565b61021d6101126103e1565b6102585760405162461bcd60e51b81526004018080602001828103825260308152602001806105d46030913960400191505060405180910390fd5b6102618161044c565b50565b61026f6101126103e1565b6102aa5760405162461bcd60e51b81526004018080602001828103825260308152602001806105d46030913960400191505060405180910390fd5b60665460ff16156102f5576040805162461bcd60e51b815260206004820152601060248201526f14185d5cd8589b194e881c185d5cd95960821b604482015290519081900360640190fd5b6066805460ff191660011790557f62e78cea01bee320cd4e420270b5ea74000d11b0c9f74754ebdbfc544b05a2586101d36103e1565b600054610100900460ff16806103445750610344610494565b80610352575060005460ff16155b61038d5760405162461bcd60e51b815260040180806020018281038252602e815260200180610626602e913960400191505060405180910390fd5b600054610100900460ff161580156103b8576000805460ff1961ff0019909116610100171660011790555b6103c18261049a565b6066805460ff1916905580156103dd576000805461ff00191690555b5050565b3390565b60006001600160a01b03821661042c5760405162461bcd60e51b81526004018080602001828103825260228152602001806106046022913960400191505060405180910390fd5b506001600160a01b03166000908152602091909152604090205460ff1690565b61045d60338263ffffffff61055216565b6040516001600160a01b038216907f6719d08c1888103bea251a4ed56406bd0c3e69723c8a1686e017e7bbe159b6f890600090a250565b303b1590565b600054610100900460ff16806104b357506104b3610494565b806104c1575060005460ff16155b6104fc5760405162461bcd60e51b815260040180806020018281038252602e815260200180610626602e913960400191505060405180910390fd5b600054610100900460ff16158015610527576000805460ff1961ff0019909116610100171660011790555b610530826101f0565b61053d5761053d8261044c565b80156103dd576000805461ff00191690555050565b61055c82826103e5565b156105ae576040805162461bcd60e51b815260206004820152601f60248201527f526f6c65733a206163636f756e7420616c72656164792068617320726f6c6500604482015290519081900360640190fd5b6001600160a01b0316600090815260209190915260409020805460ff1916600117905556fe506175736572526f6c653a2063616c6c657220646f6573206e6f742068617665207468652050617573657220726f6c65526f6c65733a206163636f756e7420697320746865207a65726f2061646472657373436f6e747261637420696e7374616e63652068617320616c7265616479206265656e20696e697469616c697a6564a265627a7a72315820b1bfa219f01055c921f9b853d9f88f510aaf34404cf36348b483b13924e9fdf564736f6c63430005100032",
  "source": "pragma solidity 0.5.16;\r\n\r\nimport \"../../node_modules/@openzeppelin/contracts-ethereum-package/contracts/GSN/Context.sol\";\r\nimport \"../../node_modules/@openzeppelin/upgrades/contracts/Initializable.sol\";\r\n\r\nimport \"./PauserRoleWithoutRenounce.sol\";\r\n\r\n/**\r\n * @title PausableWithoutRenounce\r\n * @author Sablier\r\n * @notice Fork of OpenZeppelin's Pausable, a contract module which allows children to implement an\r\n *  emergency stop mechanism that can be triggered by an authorized account, but with the `renouncePauser`\r\n *  function removed to avoid fat-finger errors.\r\n *  We inherit from `Context` to keep this contract compatible with the Gas Station Network.\r\n * See https://github.com/OpenZeppelin/openzeppelin-contracts-ethereum-package/blob/master/contracts/lifecycle/Pausable.sol\r\n * See https://docs.openzeppelin.com/contracts/2.x/gsn#_msg_sender_and_msg_data\r\n */\r\ncontract PausableWithoutRenounce is Initializable, Context, PauserRoleWithoutRenounce {\r\n    /**\r\n     * @dev Emitted when the pause is triggered by a pauser (`account`).\r\n     */\r\n    event Paused(address account);\r\n\r\n    /**\r\n     * @dev Emitted when the pause is lifted by a pauser (`account`).\r\n     */\r\n    event Unpaused(address account);\r\n\r\n    bool private _paused;\r\n\r\n    /**\r\n     * @dev Initializes the contract in unpaused state. Assigns the Pauser role\r\n     * to the deployer.\r\n     */\r\n    function initialize(address sender) public initializer {\r\n        PauserRoleWithoutRenounce.initialize(sender);\r\n        _paused = false;\r\n    }\r\n\r\n    /**\r\n     * @dev Returns true if the contract is paused, and false otherwise.\r\n     */\r\n    function paused() public view returns (bool) {\r\n        return _paused;\r\n    }\r\n\r\n    /**\r\n     * @dev Modifier to make a function callable only when the contract is not paused.\r\n     */\r\n    modifier whenNotPaused() {\r\n        require(!_paused, \"Pausable: paused\");\r\n        _;\r\n    }\r\n\r\n    /**\r\n     * @dev Modifier to make a function callable only when the contract is paused.\r\n     */\r\n    modifier whenPaused() {\r\n        require(_paused, \"Pausable: not paused\");\r\n        _;\r\n    }\r\n\r\n    /**\r\n     * @dev Called by a pauser to pause, triggers stopped state.\r\n     */\r\n    function pause() public onlyPauser whenNotPaused {\r\n        _paused = true;\r\n        emit Paused(_msgSender());\r\n    }\r\n\r\n    /**\r\n     * @dev Called by a pauser to unpause, returns to normal state.\r\n     */\r\n    function unpause() public onlyPauser whenPaused {\r\n        _paused = false;\r\n        emit Unpaused(_msgSender());\r\n    }\r\n}\r\n",
  "sourcePath": "F:\\streampayv4\\contracts\\tools-contracts\\PausableWithoutRenounce.sol",
  "compiler": {
    "name": "solc",
    "version": "0.5.16+commit.9c3226ce.Emscripten.clang"
  },
  "schemaVersion": "3.0.23",
  "updatedAt": "2020-09-15T09:46:43.498Z",
  "devdoc": {
    "author": "Sablier",
    "methods": {
      "initialize(address)": {
        "details": "Initializes the contract in unpaused state. Assigns the Pauser role to the deployer."
      },
      "pause()": {
        "details": "Called by a pauser to pause, triggers stopped state."
      },
      "paused()": {
        "details": "Returns true if the contract is paused, and false otherwise."
      },
      "unpause()": {
        "details": "Called by a pauser to unpause, returns to normal state."
      }
    },
    "title": "PausableWithoutRenounce"
  },
  "userdoc": {
    "methods": {},
    "notice": "Fork of OpenZeppelin's Pausable, a contract module which allows children to implement an emergency stop mechanism that can be triggered by an authorized account, but with the `renouncePauser` function removed to avoid fat-finger errors. We inherit from `Context` to keep this contract compatible with the Gas Station Network. See https://github.com/OpenZeppelin/openzeppelin-contracts-ethereum-package/blob/master/contracts/lifecycle/Pausable.sol See https://docs.openzeppelin.com/contracts/2.x/gsn#_msg_sender_and_msg_data"
  }
}