{
  "contractName": "streamPayOfFixedFlowrate",
  "abi": [
    {
      "inputs": [],
      "payable": false,
      "stateMutability": "nonpayable",
      "type": "constructor"
    },
    {
      "anonymous": false,
      "inputs": [
        {
          "indexed": true,
          "internalType": "uint256",
          "name": "streamId",
          "type": "uint256"
        },
        {
          "indexed": true,
          "internalType": "address",
          "name": "sender",
          "type": "address"
        },
        {
          "indexed": true,
          "internalType": "address",
          "name": "recipient",
          "type": "address"
        },
        {
          "indexed": false,
          "internalType": "uint256",
          "name": "senderBalance",
          "type": "uint256"
        },
        {
          "indexed": false,
          "internalType": "uint256",
          "name": "recipientBalance",
          "type": "uint256"
        },
        {
          "indexed": false,
          "internalType": "uint256",
          "name": "timestamp",
          "type": "uint256"
        }
      ],
      "name": "CancelFixedFlowrateStream",
      "type": "event"
    },
    {
      "anonymous": false,
      "inputs": [
        {
          "indexed": true,
          "internalType": "uint256",
          "name": "streamId",
          "type": "uint256"
        },
        {
          "indexed": true,
          "internalType": "address",
          "name": "sender",
          "type": "address"
        },
        {
          "indexed": true,
          "internalType": "address",
          "name": "recipient",
          "type": "address"
        },
        {
          "indexed": false,
          "internalType": "uint256",
          "name": "maxAmount",
          "type": "uint256"
        },
        {
          "indexed": false,
          "internalType": "address",
          "name": "tokenAddress",
          "type": "address"
        },
        {
          "indexed": false,
          "internalType": "uint256",
          "name": "startTime",
          "type": "uint256"
        },
        {
          "indexed": false,
          "internalType": "uint256",
          "name": "maxStopTime",
          "type": "uint256"
        },
        {
          "indexed": false,
          "internalType": "uint256",
          "name": "ratePerSecond",
          "type": "uint256"
        }
      ],
      "name": "CreateFixedFlowrateStream",
      "type": "event"
    },
    {
      "anonymous": false,
      "inputs": [
        {
          "indexed": true,
          "internalType": "address",
          "name": "previousOwner",
          "type": "address"
        },
        {
          "indexed": true,
          "internalType": "address",
          "name": "newOwner",
          "type": "address"
        }
      ],
      "name": "OwnershipTransferred",
      "type": "event"
    },
    {
      "anonymous": false,
      "inputs": [
        {
          "indexed": false,
          "internalType": "address",
          "name": "account",
          "type": "address"
        }
      ],
      "name": "Paused",
      "type": "event"
    },
    {
      "anonymous": false,
      "inputs": [
        {
          "indexed": true,
          "internalType": "address",
          "name": "account",
          "type": "address"
        }
      ],
      "name": "PauserAdded",
      "type": "event"
    },
    {
      "anonymous": false,
      "inputs": [
        {
          "indexed": true,
          "internalType": "address",
          "name": "account",
          "type": "address"
        }
      ],
      "name": "PauserRemoved",
      "type": "event"
    },
    {
      "anonymous": false,
      "inputs": [
        {
          "indexed": true,
          "internalType": "uint256",
          "name": "streamId",
          "type": "uint256"
        },
        {
          "indexed": false,
          "internalType": "uint256",
          "name": "amount",
          "type": "uint256"
        }
      ],
      "name": "TransferWithFixedFlowrate",
      "type": "event"
    },
    {
      "anonymous": false,
      "inputs": [
        {
          "indexed": false,
          "internalType": "address",
          "name": "account",
          "type": "address"
        }
      ],
      "name": "Unpaused",
      "type": "event"
    },
    {
      "anonymous": false,
      "inputs": [
        {
          "indexed": true,
          "internalType": "uint256",
          "name": "streamId",
          "type": "uint256"
        },
        {
          "indexed": true,
          "internalType": "address",
          "name": "recipient",
          "type": "address"
        },
        {
          "indexed": false,
          "internalType": "uint256",
          "name": "amount",
          "type": "uint256"
        }
      ],
      "name": "WithdrawFromFixedFlowrateStream",
      "type": "event"
    },
    {
      "constant": false,
      "inputs": [
        {
          "internalType": "address",
          "name": "account",
          "type": "address"
        }
      ],
      "name": "addPauser",
      "outputs": [],
      "payable": false,
      "stateMutability": "nonpayable",
      "type": "function"
    },
    {
      "constant": false,
      "inputs": [],
      "name": "initialize",
      "outputs": [],
      "payable": false,
      "stateMutability": "nonpayable",
      "type": "function"
    },
    {
      "constant": false,
      "inputs": [
        {
          "internalType": "address",
          "name": "sender",
          "type": "address"
        }
      ],
      "name": "initialize",
      "outputs": [],
      "payable": false,
      "stateMutability": "nonpayable",
      "type": "function"
    },
    {
      "constant": true,
      "inputs": [],
      "name": "isOwner",
      "outputs": [
        {
          "internalType": "bool",
          "name": "",
          "type": "bool"
        }
      ],
      "payable": false,
      "stateMutability": "view",
      "type": "function"
    },
    {
      "constant": true,
      "inputs": [
        {
          "internalType": "address",
          "name": "account",
          "type": "address"
        }
      ],
      "name": "isPauser",
      "outputs": [
        {
          "internalType": "bool",
          "name": "",
          "type": "bool"
        }
      ],
      "payable": false,
      "stateMutability": "view",
      "type": "function"
    },
    {
      "constant": true,
      "inputs": [],
      "name": "nextStreamId",
      "outputs": [
        {
          "internalType": "uint256",
          "name": "",
          "type": "uint256"
        }
      ],
      "payable": false,
      "stateMutability": "view",
      "type": "function"
    },
    {
      "constant": true,
      "inputs": [],
      "name": "owner",
      "outputs": [
        {
          "internalType": "address",
          "name": "",
          "type": "address"
        }
      ],
      "payable": false,
      "stateMutability": "view",
      "type": "function"
    },
    {
      "constant": false,
      "inputs": [],
      "name": "pause",
      "outputs": [],
      "payable": false,
      "stateMutability": "nonpayable",
      "type": "function"
    },
    {
      "constant": true,
      "inputs": [],
      "name": "paused",
      "outputs": [
        {
          "internalType": "bool",
          "name": "",
          "type": "bool"
        }
      ],
      "payable": false,
      "stateMutability": "view",
      "type": "function"
    },
    {
      "constant": false,
      "inputs": [
        {
          "internalType": "address",
          "name": "newOwner",
          "type": "address"
        }
      ],
      "name": "transferOwnership",
      "outputs": [],
      "payable": false,
      "stateMutability": "nonpayable",
      "type": "function"
    },
    {
      "constant": false,
      "inputs": [],
      "name": "unpause",
      "outputs": [],
      "payable": false,
      "stateMutability": "nonpayable",
      "type": "function"
    },
    {
      "constant": true,
      "inputs": [
        {
          "internalType": "uint256",
          "name": "streamId",
          "type": "uint256"
        }
      ],
      "name": "getFixedFlowrateStream",
      "outputs": [
        {
          "internalType": "address",
          "name": "sender",
          "type": "address"
        },
        {
          "internalType": "address",
          "name": "recipient",
          "type": "address"
        },
        {
          "internalType": "uint256",
          "name": "maxAmount",
          "type": "uint256"
        },
        {
          "internalType": "address",
          "name": "tokenAddress",
          "type": "address"
        },
        {
          "internalType": "uint256",
          "name": "startTime",
          "type": "uint256"
        },
        {
          "internalType": "uint256",
          "name": "maxStopTime",
          "type": "uint256"
        },
        {
          "internalType": "uint256",
          "name": "ratePerSecond",
          "type": "uint256"
        },
        {
          "internalType": "uint256",
          "name": "withdrawalAmount",
          "type": "uint256"
        }
      ],
      "payable": false,
      "stateMutability": "view",
      "type": "function"
    },
    {
      "constant": false,
      "inputs": [
        {
          "internalType": "address",
          "name": "recipient",
          "type": "address"
        },
        {
          "internalType": "uint256",
          "name": "maxAmount",
          "type": "uint256"
        },
        {
          "internalType": "address",
          "name": "tokenAddress",
          "type": "address"
        },
        {
          "internalType": "uint256",
          "name": "ratePerSecond",
          "type": "uint256"
        },
        {
          "internalType": "uint256",
          "name": "startTime",
          "type": "uint256"
        }
      ],
      "name": "createFixedFlowrateStream",
      "outputs": [
        {
          "internalType": "uint256",
          "name": "",
          "type": "uint256"
        }
      ],
      "payable": false,
      "stateMutability": "nonpayable",
      "type": "function"
    },
    {
      "constant": true,
      "inputs": [
        {
          "internalType": "uint256",
          "name": "streamId",
          "type": "uint256"
        }
      ],
      "name": "fixedFlowrateDeltaOf",
      "outputs": [
        {
          "internalType": "uint256",
          "name": "",
          "type": "uint256"
        }
      ],
      "payable": false,
      "stateMutability": "view",
      "type": "function"
    },
    {
      "constant": true,
      "inputs": [
        {
          "internalType": "uint256",
          "name": "streamId",
          "type": "uint256"
        },
        {
          "internalType": "address",
          "name": "who",
          "type": "address"
        }
      ],
      "name": "fixedFlowrateBalanceOf",
      "outputs": [
        {
          "internalType": "uint256",
          "name": "balance",
          "type": "uint256"
        }
      ],
      "payable": false,
      "stateMutability": "view",
      "type": "function"
    },
    {
      "constant": false,
      "inputs": [
        {
          "internalType": "uint256",
          "name": "streamId",
          "type": "uint256"
        },
        {
          "internalType": "uint256",
          "name": "amount",
          "type": "uint256"
        }
      ],
      "name": "transferWithFixedFlowrate",
      "outputs": [
        {
          "internalType": "bool",
          "name": "",
          "type": "bool"
        }
      ],
      "payable": false,
      "stateMutability": "nonpayable",
      "type": "function"
    },
    {
      "constant": false,
      "inputs": [
        {
          "internalType": "uint256",
          "name": "streamId",
          "type": "uint256"
        },
        {
          "internalType": "uint256",
          "name": "amount",
          "type": "uint256"
        }
      ],
      "name": "withdrawFromFlowrateStream",
      "outputs": [
        {
          "internalType": "bool",
          "name": "",
          "type": "bool"
        }
      ],
      "payable": false,
      "stateMutability": "nonpayable",
      "type": "function"
    },
    {
      "constant": false,
      "inputs": [
        {
          "internalType": "uint256",
          "name": "streamId",
          "type": "uint256"
        }
      ],
      "name": "cancelFlowrateStream",
      "outputs": [
        {
          "internalType": "bool",
          "name": "",
          "type": "bool"
        }
      ],
      "payable": false,
      "stateMutability": "nonpayable",
      "type": "function"
    }
  ],
  "bytecode": "0x60806040523480156200001157600080fd5b5062000028336200005060201b620024431760201c565b6200003e336200015360201b620015e41760201c565b600160cd55621e848060ce5562000477565b600054610100900460ff1680620000755750620000756001600160e01b036200022616565b8062000084575060005460ff16155b620000c15760405162461bcd60e51b815260040180806020018281038252602e81526020018062002b5c602e913960400191505060405180910390fd5b600054610100900460ff16158015620000ed576000805460ff1961ff0019909116610100171660011790555b603380546001600160a01b0319166001600160a01b0384811691909117918290556040519116906000907f8be0079c531659141344cd1fd0a4f28419497f9722a3daafe3b4186f6b6457e0908290a380156200014f576000805461ff00191690555b5050565b600054610100900460ff1680620001785750620001786001600160e01b036200022616565b8062000187575060005460ff16155b620001c45760405162461bcd60e51b815260040180806020018281038252602e81526020018062002b5c602e913960400191505060405180910390fd5b600054610100900460ff16158015620001f0576000805460ff1961ff0019909116610100171660011790555b62000206826200022c60201b62001f861760201c565b6099805460ff1916905580156200014f576000805461ff00191690555050565b303b1590565b600054610100900460ff1680620002515750620002516001600160e01b036200022616565b8062000260575060005460ff16155b6200029d5760405162461bcd60e51b815260040180806020018281038252602e81526020018062002b5c602e913960400191505060405180910390fd5b600054610100900460ff16158015620002c9576000805460ff1961ff0019909116610100171660011790555b620002dd826001600160e01b036200030c16565b620002f657620002f6826001600160e01b036200032f16565b80156200014f576000805461ff00191690555050565b6000620003298260666200038160201b62001e671790919060201c565b92915050565b6200034a816066620003ea60201b620022f51790919060201c565b6040516001600160a01b038216907f6719d08c1888103bea251a4ed56406bd0c3e69723c8a1686e017e7bbe159b6f890600090a250565b60006001600160a01b038216620003ca5760405162461bcd60e51b815260040180806020018281038252602281526020018062002b3a6022913960400191505060405180910390fd5b506001600160a01b03166000908152602091909152604090205460ff1690565b620003ff82826001600160e01b036200038116565b1562000452576040805162461bcd60e51b815260206004820152601f60248201527f526f6c65733a206163636f756e7420616c72656164792068617320726f6c6500604482015290519081900360640190fd5b6001600160a01b0316600090815260209190915260409020805460ff19166001179055565b6126b380620004876000396000f3fe608060405234801561001057600080fd5b50600436106101165760003560e01c806382dc1ec4116100a2578063a350d90f11610071578063a350d90f146102d3578063c4d66de8146102ff578063d0987a0f14610325578063f2fde38b14610348578063fd116dda1461036e57610116565b806382dc1ec4146102795780638456cb591461029f5780638da5cb5b146102a75780638f32d59b146102cb57610116565b806346fbf68e116100e957806346fbf68e146101b05780635c975abb146101d65780635fea8d70146101de578063659e3b21146102015780638129fc1c1461027157610116565b80630513a4441461011b5780631e99d5691461014c5780631fa1ce30146101665780633f4ba83a146101a6575b600080fd5b6101386004803603602081101561013157600080fd5b503561038b565b604080519115158252519081900360200190f35b6101546104e9565b60408051918252519081900360200190f35b610154600480360360a081101561017c57600080fd5b506001600160a01b03813581169160208101359160408201351690606081013590608001356104ef565b6101ae610b09565b005b610138600480360360208110156101c657600080fd5b50356001600160a01b0316610bf2565b610138610c0b565b610138600480360360408110156101f457600080fd5b5080359060200135610c14565b61021e6004803603602081101561021757600080fd5b5035611022565b604080516001600160a01b03998a168152978916602089015287810196909652939096166060860152608085019190915260a084015260c083019390935260e08201929092529051908190036101000190f35b6101ae6110f8565b6101ae6004803603602081101561028f57600080fd5b50356001600160a01b031661119f565b6101ae6111ee565b6102af6112b5565b604080516001600160a01b039092168252519081900360200190f35b6101386112c4565b610154600480360360408110156102e957600080fd5b50803590602001356001600160a01b03166112ea565b6101ae6004803603602081101561031557600080fd5b50356001600160a01b03166115e4565b6101386004803603604081101561033b57600080fd5b508035906020013561169a565b6101ae6004803603602081101561035e57600080fd5b50356001600160a01b031661196a565b6101546004803603602081101561038457600080fd5b5035611984565b609a805460010190819055600082815260cf60205260408120600701549091908390600160a01b900460ff16610400576040805162461bcd60e51b81526020600482015260156024820152741cdd1c99585b48191bd95cc81b9bdd08195e1a5cdd605a1b604482015290519081900360640190fd5b600084815260cf602052604090206005015484906001600160a01b03163314806104435750600081815260cf60205260409020600401546001600160a01b031633145b61047e5760405162461bcd60e51b81526004018080602001828103825260378152602001806126216037913960400191505060405180910390fd5b61048785611abc565b600193505050609a5481146104e3576040805162461bcd60e51b815260206004820152601f60248201527f5265656e7472616e637947756172643a207265656e7472616e742063616c6c00604482015290519081900360640190fd5b50919050565b60cd5481565b60995460009060ff161561053d576040805162461bcd60e51b815260206004820152601060248201526f14185d5cd8589b194e881c185d5cd95960821b604482015290519081900360640190fd5b6001600160a01b038616610598576040805162461bcd60e51b815260206004820152601a60248201527f73747265616d20746f20746865207a65726f2061646472657373000000000000604482015290519081900360640190fd5b6001600160a01b0386163014156105ef576040805162461bcd60e51b81526020600482015260166024820152751cdd1c99585b481d1bc81d1a194818dbdb9d1c9858dd60521b604482015290519081900360640190fd5b6001600160a01b038616331415610644576040805162461bcd60e51b815260206004820152601460248201527339ba3932b0b6903a37903a34329031b0b63632b960611b604482015290519081900360640190fd5b6000851161068a576040805162461bcd60e51b815260206004820152600e60248201526d06d6178416d6f756e7420697320360941b604482015290519081900360640190fd5b600083116106d4576040805162461bcd60e51b81526020600482015260126024820152710726174655065725365636f6e6420697320360741b604482015290519081900360640190fd5b828510156107135760405162461bcd60e51b81526004018080602001828103825260278152602001806126586027913960400191505060405180910390fd5b428210156107525760405162461bcd60e51b81526004018080602001828103825260218152602001806125b06021913960400191505060405180910390fd5b61075a612376565b610765868585611dca565b602083018190528282600381111561077957fe5b600381111561078457fe5b905250600090508151600381111561079857fe5b1461079f57fe5b6107ad816020015184611e17565b60408301819052828260038111156107c157fe5b60038111156107cc57fe5b90525060009050815160038111156107e057fe5b146107e757fe5b60006107f760ce5460cd54611e3d565b9150818382600381111561080757fe5b600381111561081257fe5b905250600090508251600381111561082657fe5b1461082d57fe5b60405180610120016040528088815260200186815260200185815260200183602001518152602001896001600160a01b03168152602001336001600160a01b0316815260200160008152602001876001600160a01b031681526020016001151581525060cf60008381526020019081526020016000206000820151816000015560208201518160010155604082015181600201556060820151816003015560808201518160040160006101000a8154816001600160a01b0302191690836001600160a01b0316021790555060a08201518160050160006101000a8154816001600160a01b0302191690836001600160a01b0316021790555060c0820151816006015560e08201518160070160006101000a8154816001600160a01b0302191690836001600160a01b031602179055506101008201518160070160146101000a81548160ff02191690831515021790555090505061098d60cd546001611e3d565b60cd8190558382600381111561099f57fe5b60038111156109aa57fe5b90525060009050825160038111156109be57fe5b146109c557fe5b604080516323b872dd60e01b81523360048201523060248201526044810189905290516001600160a01b038816916323b872dd9160648083019260209291908290030181600087803b158015610a1a57600080fd5b505af1158015610a2e573d6000803e3d6000fd5b505050506040513d6020811015610a4457600080fd5b5051610a97576040805162461bcd60e51b815260206004820152601e60248201527f6372656174652073747265616d2c7472616e73666572206661696c7572650000604482015290519081900360640190fd5b602080830151604080518a81526001600160a01b038a81169482019490945280820188905260608101929092526080820188905251918a1691339184917f3f9bbca2a8ca9ee0538c25b9942023c93f89514a334c37128edff12de271ae269181900360a00190a4979650505050505050565b610b19610b14611e63565b610bf2565b610b545760405162461bcd60e51b81526004018080602001828103825260308152602001806125356030913960400191505060405180910390fd5b60995460ff16610ba2576040805162461bcd60e51b815260206004820152601460248201527314185d5cd8589b194e881b9bdd081c185d5cd95960621b604482015290519081900360640190fd5b6099805460ff191690557f5db9ee0a495bf2e6ff9c91a7834c1ba4fdd244a5e8aa4e537bd38aeae4b073aa610bd5611e63565b604080516001600160a01b039092168252519081900360200190a1565b6000610c0560668363ffffffff611e6716565b92915050565b60995460ff1690565b60995460009060ff1615610c62576040805162461bcd60e51b815260206004820152601060248201526f14185d5cd8589b194e881c185d5cd95960821b604482015290519081900360640190fd5b609a805460010190819055600084815260cf60205260409020600701548490600160a01b900460ff16610cd4576040805162461bcd60e51b81526020600482015260156024820152741cdd1c99585b48191bd95cc81b9bdd08195e1a5cdd605a1b604482015290519081900360640190fd5b610cdc612398565b50600085815260cf6020908152604091829020825161012081018452815481526001820154928101929092526002810154928201929092526003820154606082015260048201546001600160a01b0390811660808301526005830154811660a0830152600683015460c083015260079092015491821660e0820152600160a01b90910460ff161515610100820152610d72612401565b81606001514210610db45760405162461bcd60e51b81526004018080602001828103825260278152602001806125896027913960400191505060405180910390fd5b60008611610dfa576040805162461bcd60e51b815260206004820152600e60248201526d06d6178416d6f756e7420697320360941b604482015290519081900360640190fd5b8151610e069087611e3d565b600089815260cf6020526040902081905582826003811115610e2457fe5b6003811115610e2f57fe5b9052506000905081516003811115610e4357fe5b14610e4a57fe5b610e7360cf60008981526020019081526020016000206000015483602001518460400151611dca565b600089815260cf60205260409020600390810182905583908390811115610e9657fe5b6003811115610ea157fe5b9052506000905081516003811115610eb557fe5b14610ebc57fe5b60e0820151604080516323b872dd60e01b81523360048201523060248201526044810189905290516001600160a01b03909216916323b872dd916064808201926020929091908290030181600087803b158015610f1857600080fd5b505af1158015610f2c573d6000803e3d6000fd5b505050506040513d6020811015610f4257600080fd5b5051610f88576040805162461bcd60e51b815260206004820152601060248201526f7472616e73666572206661696c75726560801b604482015290519081900360640190fd5b60408051878152905188917fb3bb7decdc88c84ac403b4b0d392fc95a4fa539f385bc653f8a224542cf96390919081900360200190a260019450505050609a54811461101b576040805162461bcd60e51b815260206004820152601f60248201527f5265656e7472616e637947756172643a207265656e7472616e742063616c6c00604482015290519081900360640190fd5b5092915050565b6000806000806000806000808860cf600082815260200190815260200160002060070160149054906101000a900460ff1661109c576040805162461bcd60e51b81526020600482015260156024820152741cdd1c99585b48191bd95cc81b9bdd08195e1a5cdd605a1b604482015290519081900360640190fd5b5050506000968752505060cf6020525050604090922060058101546004820154825460078401546002850154600386015460018701546006909701546001600160a01b039687169a958716995093975091909416949092909190565b600054610100900460ff16806111115750611111611ece565b8061111f575060005460ff16155b61115a5760405162461bcd60e51b815260040180806020018281038252602e8152602001806125f3602e913960400191505060405180910390fd5b600054610100900460ff16158015611185576000805460ff1961ff0019909116610100171660011790555b6001609a55801561119c576000805461ff00191690555b50565b6111aa610b14611e63565b6111e55760405162461bcd60e51b81526004018080602001828103825260308152602001806125356030913960400191505060405180910390fd5b61119c81611ed4565b6111f9610b14611e63565b6112345760405162461bcd60e51b81526004018080602001828103825260308152602001806125356030913960400191505060405180910390fd5b60995460ff161561127f576040805162461bcd60e51b815260206004820152601060248201526f14185d5cd8589b194e881c185d5cd95960821b604482015290519081900360640190fd5b6099805460ff191660011790557f62e78cea01bee320cd4e420270b5ea74000d11b0c9f74754ebdbfc544b05a258610bd5611e63565b6033546001600160a01b031690565b6033546000906001600160a01b03166112db611e63565b6001600160a01b031614905090565b600082815260cf60205260408120600701548390600160a01b900460ff16611351576040805162461bcd60e51b81526020600482015260156024820152741cdd1c99585b48191bd95cc81b9bdd08195e1a5cdd605a1b604482015290519081900360640190fd5b611359612398565b50600084815260cf6020908152604091829020825161012081018452815481526001820154928101929092526002810154928201929092526003820154606082015260048201546001600160a01b0390811660808301526005830154811660a0830152600683015460c083015260079092015491821660e0820152600160a01b90910460ff1615156101008201526113ef612413565b60006113fa87611984565b905061140a818460200151611f1c565b606084018190528382600381111561141e57fe5b600381111561142957fe5b905250600090508251600381111561143d57fe5b1461144457fe5b826060015142106114e75761146183600001518460200151611f5b565b608084018190528382600381111561147557fe5b600381111561148057fe5b905250600090508251600381111561149457fe5b1461149b57fe5b6114ad82608001518360600151611e3d565b60608401819052838260038111156114c157fe5b60038111156114cc57fe5b90525060009050825160038111156114e057fe5b146114e757fe5b6114f982606001518460c00151611e17565b602084018190528382600381111561150d57fe5b600381111561151857fe5b905250600090508251600381111561152c57fe5b1461153357fe5b82608001516001600160a01b0316866001600160a01b0316141561155f575060200151925061101b9050565b8260a001516001600160a01b0316866001600160a01b031614156115d75761158f83600001518360600151611e17565b60408401819052838260038111156115a357fe5b60038111156115ae57fe5b90525060009050825160038111156115c257fe5b146115c957fe5b5060400151925061101b9050565b5060009695505050505050565b600054610100900460ff16806115fd57506115fd611ece565b8061160b575060005460ff16155b6116465760405162461bcd60e51b815260040180806020018281038252602e8152602001806125f3602e913960400191505060405180910390fd5b600054610100900460ff16158015611671576000805460ff1961ff0019909116610100171660011790555b61167a82611f86565b6099805460ff191690558015611696576000805461ff00191690555b5050565b60995460009060ff16156116e8576040805162461bcd60e51b815260206004820152601060248201526f14185d5cd8589b194e881c185d5cd95960821b604482015290519081900360640190fd5b609a805460010190819055600084815260cf60205260409020600701548490600160a01b900460ff1661175a576040805162461bcd60e51b81526020600482015260156024820152741cdd1c99585b48191bd95cc81b9bdd08195e1a5cdd605a1b604482015290519081900360640190fd5b600085815260cf602052604090206005015485906001600160a01b031633148061179d5750600081815260cf60205260409020600401546001600160a01b031633145b6117d85760405162461bcd60e51b81526004018080602001828103825260378152602001806126216037913960400191505060405180910390fd5b6117e0612398565b50600086815260cf6020908152604091829020825161012081018452815481526001820154928101929092526002810154928201929092526003820154606082015260048201546001600160a01b0390811660808301526005830154811660a0830152600683015460c083015260079092015491821660e0820152600160a01b90910460ff161515610100820152856118b1576040805162461bcd60e51b815260206004820152600e60248201526d616d6f756e74206973207a65726f60901b604482015290519081900360640190fd5b60006118c18883608001516112ea565b9050868110156119025760405162461bcd60e51b81526004018080602001828103825260248152602001806125656024913960400191505060405180910390fd5b61190c888861203e565b6001955050505050609a54811461101b576040805162461bcd60e51b815260206004820152601f60248201527f5265656e7472616e637947756172643a207265656e7472616e742063616c6c00604482015290519081900360640190fd5b6119726112c4565b61197b57600080fd5b61119c8161225b565b600081815260cf60205260408120600701548290600160a01b900460ff166119eb576040805162461bcd60e51b81526020600482015260156024820152741cdd1c99585b48191bd95cc81b9bdd08195e1a5cdd605a1b604482015290519081900360640190fd5b6119f3612398565b50600083815260cf60209081526040918290208251610120810184528154815260018201549281019290925260028101549282018390526003810154606083015260048101546001600160a01b0390811660808401526005820154811660a0840152600682015460c084015260079091015490811660e0830152600160a01b900460ff161515610100820152904211611a905760009250506104e3565b8060600151421015611aa95760400151420391506104e3565b6040810151606090910151039392505050565b611ac4612398565b50600081815260cf60209081526040808320815161012081018352815481526001820154938101939093526002810154918301919091526003810154606083015260048101546001600160a01b0390811660808401526005820154811660a08401819052600683015460c085015260079092015490811660e0840152600160a01b900460ff161515610100830152909190611b609084906112ea565b90506000611b728484608001516112ea565b600085815260cf602052604081208181556001810182905560028101829055600381018290556004810180546001600160a01b03199081169091556005820180549091169055600681019190915560070180546001600160a81b031916905560e08401519091508115611cc057806001600160a01b031663a9059cbb8560800151846040518363ffffffff1660e01b815260040180836001600160a01b03166001600160a01b0316815260200182815260200192505050602060405180830381600087803b158015611c4357600080fd5b505af1158015611c57573d6000803e3d6000fd5b505050506040513d6020811015611c6d57600080fd5b5051611cc0576040805162461bcd60e51b815260206004820181905260248201527f726563697069656e7420746f6b656e207472616e73666572206661696c757265604482015290519081900360640190fd5b8215611d5f57806001600160a01b031663a9059cbb8560a00151856040518363ffffffff1660e01b815260040180836001600160a01b03166001600160a01b0316815260200182815260200192505050602060405180830381600087803b158015611d2a57600080fd5b505af1158015611d3e573d6000803e3d6000fd5b505050506040513d6020811015611d5457600080fd5b5051611d5f57600080fd5b83608001516001600160a01b03168460a001516001600160a01b0316867f8b5f7dfc42f1fa9f0973c3960d7a92e4c28bf17fd639494d060b40fb94f97fe686864260405180848152602001838152602001828152602001935050505060405180910390a45050505050565b600080600080611dda87876122ca565b90925090506000826003811115611ded57fe5b14611dfe5750915060009050611e0f565b611e088186611e3d565b9350935050505b935093915050565b600080838311611e2e575060009050818303611e36565b506003905060005b9250929050565b600080838301848110611e5557600092509050611e36565b506002915060009050611e36565b3390565b60006001600160a01b038216611eae5760405162461bcd60e51b81526004018080602001828103825260228152602001806125d16022913960400191505060405180910390fd5b506001600160a01b03166000908152602091909152604090205460ff1690565b303b1590565b611ee560668263ffffffff6122f516565b6040516001600160a01b038216907f6719d08c1888103bea251a4ed56406bd0c3e69723c8a1686e017e7bbe159b6f890600090a250565b60008083611f2f57506000905080611e36565b83830283858281611f3c57fe5b0414611f5057506002915060009050611e36565b600092509050611e36565b60008082611f6f5750600190506000611e36565b6000838581611f7a57fe5b06915091509250929050565b600054610100900460ff1680611f9f5750611f9f611ece565b80611fad575060005460ff16155b611fe85760405162461bcd60e51b815260040180806020018281038252602e8152602001806125f3602e913960400191505060405180910390fd5b600054610100900460ff16158015612013576000805460ff1961ff0019909116610100171660011790555b61201c82610bf2565b6120295761202982611ed4565b8015611696576000805461ff00191690555050565b612046612398565b50600082815260cf6020908152604091829020825161012081018452815481526001820154928101929092526002810154928201929092526003820154606082015260048201546001600160a01b0390811660808301526005830154811660a0830152600683015460c083015260079092015491821660e0820152600160a01b90910460ff1615156101008201526120dc612401565b6120ea8260c0015184611e3d565b600086815260cf602052604090206006018190558282600381111561210b57fe5b600381111561211657fe5b905250600090508151600381111561212a57fe5b1461213157fe5b8160e001516001600160a01b031663a9059cbb8360800151856040518363ffffffff1660e01b815260040180836001600160a01b03166001600160a01b0316815260200182815260200192505050602060405180830381600087803b15801561219957600080fd5b505af11580156121ad573d6000803e3d6000fd5b505050506040513d60208110156121c357600080fd5b505161220f576040805162461bcd60e51b8152602060048201526016602482015275746f6b656e207472616e73666572206661696c75726560501b604482015290519081900360640190fd5b81608001516001600160a01b0316847f4c3b5988781671b852bac9aea986782183e006d7c8a509cfa731bffcdb497b6e856040518082815260200191505060405180910390a350505050565b6001600160a01b03811661226e57600080fd5b6033546040516001600160a01b038084169216907f8be0079c531659141344cd1fd0a4f28419497f9722a3daafe3b4186f6b6457e090600090a3603380546001600160a01b0319166001600160a01b0392909216919091179055565b600080826122de5750600190506000611e36565b60008385816122e957fe5b04915091509250929050565b6122ff8282611e67565b15612351576040805162461bcd60e51b815260206004820152601f60248201527f526f6c65733a206163636f756e7420616c72656164792068617320726f6c6500604482015290519081900360640190fd5b6001600160a01b0316600090815260209190915260409020805460ff19166001179055565b6040805160608101909152806000815260200160008152602001600081525090565b6040518061012001604052806000815260200160008152602001600081526020016000815260200160006001600160a01b0316815260200160006001600160a01b031681526020016000815260200160006001600160a01b031681526020016000151581525090565b60408051602081019091526000815290565b6040805160a081019091528060008152602001600081526020016000815260200160008152602001600081525090565b600054610100900460ff168061245c575061245c611ece565b8061246a575060005460ff16155b6124a55760405162461bcd60e51b815260040180806020018281038252602e8152602001806125f3602e913960400191505060405180910390fd5b600054610100900460ff161580156124d0576000805460ff1961ff0019909116610100171660011790555b603380546001600160a01b0319166001600160a01b0384811691909117918290556040519116906000907f8be0079c531659141344cd1fd0a4f28419497f9722a3daafe3b4186f6b6457e0908290a38015611696576000805461ff0019169055505056fe506175736572526f6c653a2063616c6c657220646f6573206e6f742068617665207468652050617573657220726f6c65616d6f756e7420657863656564732074686520617661696c61626c652062616c616e6365626c6f636b2e74696d655374616d7020626967676572207468616e206d617853746f7054696d6573746172742074696d65206265666f726520626c6f636b2e74696d657374616d70526f6c65733a206163636f756e7420697320746865207a65726f2061646472657373436f6e747261637420696e7374616e63652068617320616c7265616479206265656e20696e697469616c697a656463616c6c6572206973206e6f74207468652073656e646572206f722074686520726563697069656e74206f66207468652073747265616d6d6178416d6f756e7420697320736d616c6c6572207468616e20726174655065725365636f6e64a265627a7a723158201b415dd1959b7b0ff2b336084e126a6441b4446cfad96953f899b6fdfd66706d64736f6c63430005100032526f6c65733a206163636f756e7420697320746865207a65726f2061646472657373436f6e747261637420696e7374616e63652068617320616c7265616479206265656e20696e697469616c697a6564",
  "source": "pragma solidity 0.5.16;\n\nimport \"../node_modules/@openzeppelin/contracts-ethereum-package/contracts/token/ERC20/IERC20.sol\";\nimport \"../node_modules/@openzeppelin/contracts-ethereum-package/contracts/utils/ReentrancyGuard.sol\";\n\nimport \"./tools-contracts/OwnableWithoutRenounce.sol\";\nimport \"./tools-contracts/PausableWithoutRenounce.sol\";\nimport \"./tools-contracts/CarefulMath.sol\";\n\nimport \"./interface/streamPayOfFixedFlowrateInterface.sol\";\nimport './Types.sol';\n\n/**\n * @title /StreamPay's money streaming of fixedFlowrateStream\n * @author StreamPay\n */\n\ncontract streamPayOfFixedFlowrate is OwnableWithoutRenounce, PausableWithoutRenounce, CarefulMath, ReentrancyGuard, streamPayOfFixedFlowrateInterface{\n    /*** Storage Properties ***/\n    \n    /**\n     * @notice Counter for new stream ids.\n     */\n    uint256 public nextStreamId;\n    \n    /**\n     * @notice in order to distinguish difference part of StreamPay through symbol.\n     */\n    uint256 symbol;\n    \n    /**\n     * @notice The stream objects identifiable by their unsigned integer ids.\n     */\n    mapping(uint256 =>Types.FixedFlowrateStream) private fixedFlowrateStreams;\n    \n    /*** Modifiers ***/\n    \n    /**\n     * @dev Throws if the caller not sender or recipient of the stream.\n     */\n    modifier onlySenderOrRecipient(uint256 streamId) {\n        require(\n            msg.sender == fixedFlowrateStreams[streamId].sender || msg.sender == fixedFlowrateStreams[streamId].recipient,\n            \"caller is not the sender or the recipient of the stream\"\n        );\n        _;\n    }\n\n    /**\n     * @dev Throws if the provided id does not point to a valid stream.\n     */\n    modifier streamExists(uint256 streamId) {\n        require(fixedFlowrateStreams[streamId].isEntity, \"stream does not exist\");\n        _;\n    }\n    \n    /*** Contract Logic Starts Here */\n\n    constructor() public {\n        OwnableWithoutRenounce.initialize(msg.sender);\n        PausableWithoutRenounce.initialize(msg.sender);\n        nextStreamId = 1;\n        symbol = 2000000;\n    }\n    \n    /*** Owner Functions ***/\n\n    /**\n     * @notice Returns the fixedflowratestream with all its properties.\n     * @dev Throws if the streamId does not exist.\n     * @param streamId The id of the stream to query.\n     * @return The fixedflowratestream object.\n     */\n    function getFixedFlowrateStream(uint256 streamId)\n        external\n        view\n        streamExists(streamId)\n        returns (\n            address sender,\n            address recipient,\n            uint256 maxAmount,\n            address tokenAddress,\n            uint256 startTime,\n            uint256 maxStopTime,\n            uint256 ratePerSecond,\n            uint256 withdrawalAmount\n            )\n    {\n        sender = fixedFlowrateStreams[streamId].sender;\n        recipient = fixedFlowrateStreams[streamId].recipient;\n        maxAmount = fixedFlowrateStreams[streamId].maxAmount;\n        tokenAddress = fixedFlowrateStreams[streamId].tokenAddress;\n        startTime = fixedFlowrateStreams[streamId].startTime;\n        maxStopTime = fixedFlowrateStreams[streamId].maxStopTime;\n        ratePerSecond = fixedFlowrateStreams[streamId].ratePerSecond;\n        withdrawalAmount = fixedFlowrateStreams[streamId].withdrawalAmount;\n\n    }\n    \n    struct CreateFixedFlowrateStreamLocalVars {\n        MathError mathErr;\n        uint256 maxStopTime;\n        uint256 duration;\n    }\n    \n    /**\n     * @notice Create a fixedflowratestream funded by `msg.sender` and paid towards `recipient`..\n     * @dev Throws if paused.\n     * Throw if the recipient is zero address,the contract itself or the msg.sender.\n     * Throw if the maxAmount is 0.\n     * Throw if ratePerSecond is 0.\n     * Throw if maxAmount is smaller than ratePerSecond.\n     * Throw if startTime is smaller than block.timestamp.\n     * Throw if the streamId calculation has a math error.\n     * Throw if the remainder calculation has a math error.\n     * Throw if the maxStopTime calculation has a math error.\n     * Throw if the nextStreamId calculation has a math error.\n     * @param recipient The address of receipt stream money.\n     * maxAmount The max amount of stream.\n     * tokenAddress The ERC20 token.\n     * ratePerSecond The flow rate of the stream.Example 10000000000000000 per second.\n     * startTime The time of stream start.\n     * @return The id of the stream.\n     */\n    function createFixedFlowrateStream(address recipient,uint256 maxAmount,address tokenAddress,uint256 ratePerSecond,uint256 startTime) \n        public\n        whenNotPaused\n        returns(uint256)\n    {\n        require(recipient != address(0x00),\"stream to the zero address\");\n        require(recipient != address(this),\"stream to the contract\");\n        require(recipient != msg.sender,\"stream to the caller\");\n        require(maxAmount > 0,\"maxAmount is 0\");\n        require(ratePerSecond > 0,\"ratePerSecond is 0\");\n        require(maxAmount >= ratePerSecond,\"maxAmount is smaller than ratePerSecond\");\n        require(startTime >= block.timestamp, \"start time before block.timestamp\");\n\n        CreateFixedFlowrateStreamLocalVars memory vars;\n\n        (vars.mathErr,vars.maxStopTime) = divThenAddUInt(maxAmount,ratePerSecond,startTime);\n        assert(vars.mathErr == MathError.NO_ERROR);\n\n        (vars.mathErr, vars.duration) = subUInt(vars.maxStopTime, startTime);\n        assert(vars.mathErr == MathError.NO_ERROR);\n        \n        uint256 streamId;\n        (vars.mathErr,streamId) = addUInt(symbol,nextStreamId);\n        assert(vars.mathErr == MathError.NO_ERROR); \n\n        fixedFlowrateStreams[streamId] = Types.FixedFlowrateStream({\n            maxAmount: maxAmount,\n            ratePerSecond: ratePerSecond,\n            startTime: startTime,\n            maxStopTime: vars.maxStopTime,\n            recipient: recipient,\n            sender: msg.sender,\n            withdrawalAmount:0,\n            tokenAddress: tokenAddress,\n            isEntity: true\n        });\n        \n        (vars.mathErr, nextStreamId) = addUInt(nextStreamId, uint256(1));\n        assert(vars.mathErr == MathError.NO_ERROR);\n        \n        require(IERC20(tokenAddress).transferFrom(msg.sender, address(this), maxAmount),\"create stream,transfer failure\");\n        emit CreateFixedFlowrateStream(streamId, msg.sender, recipient, maxAmount, tokenAddress, startTime,vars.maxStopTime,ratePerSecond);\n        return streamId;\n    }\n\n    /**\n     * @notice return the duration of the stream\n     * @dev Throws if the streamId does not exist.\n     * @param streamId The id of the stream to query.\n     * @return The duration of the stream's startTime to now.\n     */\n    function fixedFlowrateDeltaOf(uint256 streamId)\n        public\n        view\n        streamExists(streamId)\n        returns(uint256)\n    {\n        Types.FixedFlowrateStream memory fixedFlowrateStream =  fixedFlowrateStreams[streamId];\n\n        if(block.timestamp <= fixedFlowrateStream.startTime) return 0;\n        if(block.timestamp < fixedFlowrateStream.maxStopTime) return block.timestamp - fixedFlowrateStream.startTime;\n        return fixedFlowrateStream.maxStopTime - fixedFlowrateStream.startTime;\n    }\n\n    struct FixedFlowrateBalanceOfLocalVars {\n        MathError mathErr;\n        uint256 recipientBalance;\n        uint256 senderBalance;\n        uint256 handleBalance;\n        uint256 remainder;\n    }\n    \n    /**\n     * @notice return the accountBalance of sender or recipient.\n     * @dev Throws if the streamId does not exist.\n     * Throw if the handleBalance calculation has a math error.\n     * Throw if the recipientBalance calculation has a math error.\n     * Throw if the senderBalance calculation has a math error.\n     * @param streamId The id of the stream to query.\n     * who The account of the sender or recipient.\n     * @return The account balance of sender or recipient.\n     */\n    function fixedFlowrateBalanceOf(uint256 streamId,address who)\n        public\n        view\n        streamExists(streamId)\n        returns(uint256 balance)\n    {\n        Types.FixedFlowrateStream memory fixedFlowrateStream =  fixedFlowrateStreams[streamId];\n        FixedFlowrateBalanceOfLocalVars memory vars;\n\n        uint256 delta= fixedFlowrateDeltaOf(streamId);\n        \n        (vars.mathErr,vars.handleBalance) = mulUInt(delta,fixedFlowrateStream.ratePerSecond);\n        assert(vars.mathErr == MathError.NO_ERROR);\n\n        if (block.timestamp >= fixedFlowrateStream.maxStopTime){\n            (vars.mathErr,vars.remainder) = modUInt(fixedFlowrateStream.maxAmount,fixedFlowrateStream.ratePerSecond);\n            assert(vars.mathErr == MathError.NO_ERROR);\n        \n            (vars.mathErr,vars.handleBalance) = addUInt(vars.remainder,vars.handleBalance);\n            assert(vars.mathErr == MathError.NO_ERROR);\n        }\n        \n        (vars.mathErr,vars.recipientBalance) = subUInt(vars.handleBalance,fixedFlowrateStream.withdrawalAmount);\n        assert(vars.mathErr == MathError.NO_ERROR);\n\n        if(who == fixedFlowrateStream.recipient) return vars.recipientBalance;\n        if(who == fixedFlowrateStream.sender){\n            (vars.mathErr,vars.senderBalance) = subUInt(fixedFlowrateStream.maxAmount,vars.handleBalance);\n            assert(vars.mathErr == MathError.NO_ERROR);\n\n            return vars.senderBalance;\n        }\n        return 0;\n    }\n    \n    struct TransferLocalVars {\n        MathError mathErr;\n    }\n    \n    /**\n     * @notice renewal maxAmount for continue stream.\n     * @dev Throws if paused.\n     * Throws if the streamId does not exist.\n     * Throw if the maxAmount calculation has a math error.\n     * Throw if the remainder calculation has a math error.\n     * Throw if the maxStopTime calculation has a math error.\n     * @param streamId The id of the stream to query.\n     * amount The amount of continue stream for Increase maxAmount.\n     * @return The bool of transfer amount.\n     */\n    function transferWithFixedFlowrate(uint256 streamId,uint256 amount)\n        external\n        whenNotPaused\n        nonReentrant\n        streamExists(streamId)\n        returns(bool)\n    {\n        Types.FixedFlowrateStream memory fixedFlowrateStream =  fixedFlowrateStreams[streamId];\n        TransferLocalVars memory vars;\n\n        require(block.timestamp < fixedFlowrateStream.maxStopTime,\"block.timeStamp bigger than maxStopTime\");\n        require(amount > 0,\"maxAmount is 0\");\n        \n        (vars.mathErr,fixedFlowrateStreams[streamId].maxAmount) = addUInt(fixedFlowrateStream.maxAmount,amount);\n        assert(vars.mathErr == MathError.NO_ERROR);\n        \n        (vars.mathErr,fixedFlowrateStreams[streamId].maxStopTime) = divThenAddUInt(fixedFlowrateStreams[streamId].maxAmount,fixedFlowrateStream.ratePerSecond,fixedFlowrateStream.startTime);   \n        assert(vars.mathErr == MathError.NO_ERROR);\n        \n        require(IERC20(fixedFlowrateStream.tokenAddress).transferFrom(msg.sender,address(this),amount),'transfer failure');\n        emit TransferWithFixedFlowrate(streamId,amount);\n\n        return true;\n    }\n    \n    struct WithdrawLocalVars {\n        MathError mathErr;\n    }\n    \n    /**\n     * @notice withdraw from stream.\n     * @dev Throws if paused.\n     * Throws if the streamId does not exist.\n     * Throw if caller is not recipient.\n     * Throw if the amount = 0.\n     * Throw if the amount is bigger than balance;\n     * @param streamId The id of the stream to query.\n     * amount The amount of withdraw from stream.\n     * @return The bool of transfer.\n     */\n    function withdrawFromFlowrateStream(uint256 streamId,uint256 amount)\n        external\n        whenNotPaused\n        nonReentrant\n        streamExists(streamId)\n        onlySenderOrRecipient(streamId)\n        returns(bool)\n    {\n        Types.FixedFlowrateStream memory fixedFlowrateStream =  fixedFlowrateStreams[streamId];\n        require(amount > 0,\"amount is zero\");\n        \n        uint256 balance = fixedFlowrateBalanceOf(streamId,fixedFlowrateStream.recipient);\n        require(balance >= amount,\"amount exceeds the available balance\");\n        \n        withdrawFromFlowrateStreamInterval(streamId,amount);\n        return true;\n    }\n    \n    /**\n     * @notice transfer withdraw amount to recipient.\n     * @dev Throws if the streamId does not exist.\n     * Throw if the withdrawalAmount calculation has a math error.\n     * @param streamId The id of the stream to query.\n     * amount The amount of withdraw from stream.\n     */\n    function withdrawFromFlowrateStreamInterval(uint256 streamId,uint256 amount)\n        internal\n    {\n        Types.FixedFlowrateStream memory fixedFlowrateStream =  fixedFlowrateStreams[streamId];\n        WithdrawLocalVars memory vars;\n        \n        (vars.mathErr,fixedFlowrateStreams[streamId].withdrawalAmount) = addUInt(fixedFlowrateStream.withdrawalAmount,amount);\n        assert(vars.mathErr == MathError.NO_ERROR);\n\n        require(IERC20(fixedFlowrateStream.tokenAddress).transfer(fixedFlowrateStream.recipient, amount), \"token transfer failure\");\n        emit WithdrawFromFixedFlowrateStream(streamId,fixedFlowrateStream.recipient,amount);\n    }\n    \n    /**\n     * @notice Finish the stream.\n     * @dev Throws if the streamId does not exist.\n     * Throw if caller is not sender or recipient.\n     * @param streamId The id of the stream to query.\n     * @return The bool of transfer amount.\n     */\n    function cancelFlowrateStream(uint256 streamId)\n        external\n        nonReentrant\n        streamExists(streamId)\n        onlySenderOrRecipient(streamId)\n        returns(bool)\n    {\n        cancelFlowrateStreamInternal(streamId);\n        return true;\n    }\n    \n    /**\n     * @notice transfer amount to recipient and sender of finish stream account.\n     * @dev Throws if the streamId does not exist.\n     * @param streamId The id of the stream to query.\n     */\n    function cancelFlowrateStreamInternal(uint256 streamId) internal{\n        Types.FixedFlowrateStream memory fixedFlowrateStream =  fixedFlowrateStreams[streamId];\n        \n        uint256 senderBalance = fixedFlowrateBalanceOf(streamId,fixedFlowrateStream.sender);\n        uint256 recipientBalance = fixedFlowrateBalanceOf(streamId,fixedFlowrateStream.recipient);\n        \n        delete fixedFlowrateStreams[streamId];\n\n        IERC20 token = IERC20(fixedFlowrateStream.tokenAddress);\n        if (recipientBalance > 0)\n            require(token.transfer(fixedFlowrateStream.recipient, recipientBalance), \"recipient token transfer failure\");\n        if (senderBalance > 0) require(token.transfer(fixedFlowrateStream.sender,senderBalance));\n        emit CancelFixedFlowrateStream(streamId, fixedFlowrateStream.sender, fixedFlowrateStream.recipient,senderBalance,recipientBalance,block.timestamp);\n    }\n}",
  "sourcePath": "F:\\streampayv4\\contracts\\streamPayOfFixedFlowrate.sol",
  "compiler": {
    "name": "solc",
    "version": "0.5.16+commit.9c3226ce.Emscripten.clang"
  },
  "schemaVersion": "3.0.23",
  "updatedAt": "2020-09-15T09:46:43.328Z",
  "devdoc": {
    "author": "StreamPay",
    "methods": {
      "cancelFlowrateStream(uint256)": {
        "details": "Throws if the streamId does not exist. Throw if caller is not sender or recipient.",
        "params": {
          "streamId": "The id of the stream to query."
        },
        "return": "The bool of transfer amount."
      },
      "createFixedFlowrateStream(address,uint256,address,uint256,uint256)": {
        "details": "Throws if paused. Throw if the recipient is zero address,the contract itself or the msg.sender. Throw if the maxAmount is 0. Throw if ratePerSecond is 0. Throw if maxAmount is smaller than ratePerSecond. Throw if startTime is smaller than block.timestamp. Throw if the streamId calculation has a math error. Throw if the remainder calculation has a math error. Throw if the maxStopTime calculation has a math error. Throw if the nextStreamId calculation has a math error.",
        "params": {
          "recipient": "The address of receipt stream money. maxAmount The max amount of stream. tokenAddress The ERC20 token. ratePerSecond The flow rate of the stream.Example 10000000000000000 per second. startTime The time of stream start."
        },
        "return": "The id of the stream."
      },
      "fixedFlowrateBalanceOf(uint256,address)": {
        "details": "Throws if the streamId does not exist. Throw if the handleBalance calculation has a math error. Throw if the recipientBalance calculation has a math error. Throw if the senderBalance calculation has a math error.",
        "params": {
          "streamId": "The id of the stream to query. who The account of the sender or recipient."
        },
        "return": "The account balance of sender or recipient."
      },
      "fixedFlowrateDeltaOf(uint256)": {
        "details": "Throws if the streamId does not exist.",
        "params": {
          "streamId": "The id of the stream to query."
        },
        "return": "The duration of the stream's startTime to now."
      },
      "getFixedFlowrateStream(uint256)": {
        "details": "Throws if the streamId does not exist.",
        "params": {
          "streamId": "The id of the stream to query."
        },
        "return": "The fixedflowratestream object."
      },
      "initialize(address)": {
        "details": "Initializes the contract in unpaused state. Assigns the Pauser role to the deployer."
      },
      "isOwner()": {
        "return": "true if `msg.sender` is the owner of the contract."
      },
      "owner()": {
        "return": "the address of the owner."
      },
      "pause()": {
        "details": "Called by a pauser to pause, triggers stopped state."
      },
      "paused()": {
        "details": "Returns true if the contract is paused, and false otherwise."
      },
      "transferOwnership(address)": {
        "details": "Allows the current owner to transfer control of the contract to a newOwner.",
        "params": {
          "newOwner": "The address to transfer ownership to."
        }
      },
      "transferWithFixedFlowrate(uint256,uint256)": {
        "details": "Throws if paused. Throws if the streamId does not exist. Throw if the maxAmount calculation has a math error. Throw if the remainder calculation has a math error. Throw if the maxStopTime calculation has a math error.",
        "params": {
          "streamId": "The id of the stream to query. amount The amount of continue stream for Increase maxAmount."
        },
        "return": "The bool of transfer amount."
      },
      "unpause()": {
        "details": "Called by a pauser to unpause, returns to normal state."
      },
      "withdrawFromFlowrateStream(uint256,uint256)": {
        "details": "Throws if paused. Throws if the streamId does not exist. Throw if caller is not recipient. Throw if the amount = 0. Throw if the amount is bigger than balance;",
        "params": {
          "streamId": "The id of the stream to query. amount The amount of withdraw from stream."
        },
        "return": "The bool of transfer."
      }
    },
    "title": "/StreamPay's money streaming of fixedFlowrateStream"
  },
  "userdoc": {
    "methods": {
      "cancelFlowrateStream(uint256)": {
        "notice": "Finish the stream."
      },
      "constructor": "* Contract Logic Starts Here ",
      "createFixedFlowrateStream(address,uint256,address,uint256,uint256)": {
        "notice": "Create a fixedflowratestream funded by `msg.sender` and paid towards `recipient`.."
      },
      "fixedFlowrateBalanceOf(uint256,address)": {
        "notice": "return the accountBalance of sender or recipient."
      },
      "fixedFlowrateDeltaOf(uint256)": {
        "notice": "return the duration of the stream"
      },
      "getFixedFlowrateStream(uint256)": {
        "notice": "Returns the fixedflowratestream with all its properties."
      },
      "transferWithFixedFlowrate(uint256,uint256)": {
        "notice": "renewal maxAmount for continue stream."
      },
      "withdrawFromFlowrateStream(uint256,uint256)": {
        "notice": "withdraw from stream."
      }
    }
  }
}