{
  "contractName": "streamPayOfInstallment",
  "abi": [
    {
      "inputs": [],
      "payable": false,
      "stateMutability": "nonpayable",
      "type": "constructor"
    },
    {
      "anonymous": false,
      "inputs": [
        {
          "indexed": true,
          "internalType": "uint256",
          "name": "streamId",
          "type": "uint256"
        },
        {
          "indexed": true,
          "internalType": "address",
          "name": "sender",
          "type": "address"
        },
        {
          "indexed": true,
          "internalType": "address",
          "name": "recipient",
          "type": "address"
        },
        {
          "indexed": false,
          "internalType": "uint256",
          "name": "senderBalance",
          "type": "uint256"
        },
        {
          "indexed": false,
          "internalType": "uint256",
          "name": "recipientBalance",
          "type": "uint256"
        },
        {
          "indexed": false,
          "internalType": "uint256",
          "name": "feesOfProtocol",
          "type": "uint256"
        },
        {
          "indexed": false,
          "internalType": "uint256",
          "name": "timestamp",
          "type": "uint256"
        }
      ],
      "name": "CancelInstallmentStream",
      "type": "event"
    },
    {
      "anonymous": false,
      "inputs": [
        {
          "indexed": true,
          "internalType": "uint256",
          "name": "streamId",
          "type": "uint256"
        },
        {
          "indexed": true,
          "internalType": "address",
          "name": "sender",
          "type": "address"
        },
        {
          "indexed": true,
          "internalType": "address",
          "name": "recipient",
          "type": "address"
        },
        {
          "indexed": false,
          "internalType": "uint256",
          "name": "deposit",
          "type": "uint256"
        },
        {
          "indexed": false,
          "internalType": "address",
          "name": "tokenAddress",
          "type": "address"
        },
        {
          "indexed": false,
          "internalType": "uint256",
          "name": "startTime",
          "type": "uint256"
        },
        {
          "indexed": false,
          "internalType": "uint256",
          "name": "stopTime",
          "type": "uint256"
        },
        {
          "indexed": false,
          "internalType": "uint256",
          "name": "numberOfInstallments",
          "type": "uint256"
        },
        {
          "indexed": false,
          "internalType": "uint256",
          "name": "feesOfRecipientPer",
          "type": "uint256"
        },
        {
          "indexed": false,
          "internalType": "uint256",
          "name": "haveBeenPaidAmount",
          "type": "uint256"
        },
        {
          "indexed": false,
          "internalType": "uint256",
          "name": "installmentAmountWithFees",
          "type": "uint256"
        }
      ],
      "name": "CreateInstallmentStream",
      "type": "event"
    },
    {
      "anonymous": false,
      "inputs": [
        {
          "indexed": true,
          "internalType": "address",
          "name": "previousOwner",
          "type": "address"
        },
        {
          "indexed": true,
          "internalType": "address",
          "name": "newOwner",
          "type": "address"
        }
      ],
      "name": "OwnershipTransferred",
      "type": "event"
    },
    {
      "anonymous": false,
      "inputs": [
        {
          "indexed": false,
          "internalType": "address",
          "name": "account",
          "type": "address"
        }
      ],
      "name": "Paused",
      "type": "event"
    },
    {
      "anonymous": false,
      "inputs": [
        {
          "indexed": true,
          "internalType": "address",
          "name": "account",
          "type": "address"
        }
      ],
      "name": "PauserAdded",
      "type": "event"
    },
    {
      "anonymous": false,
      "inputs": [
        {
          "indexed": true,
          "internalType": "address",
          "name": "account",
          "type": "address"
        }
      ],
      "name": "PauserRemoved",
      "type": "event"
    },
    {
      "anonymous": false,
      "inputs": [
        {
          "indexed": true,
          "internalType": "address",
          "name": "tokenAddress",
          "type": "address"
        },
        {
          "indexed": true,
          "internalType": "uint256",
          "name": "amount",
          "type": "uint256"
        }
      ],
      "name": "TakeEarnings",
      "type": "event"
    },
    {
      "anonymous": false,
      "inputs": [
        {
          "indexed": true,
          "internalType": "uint256",
          "name": "streamId",
          "type": "uint256"
        },
        {
          "indexed": false,
          "internalType": "uint256",
          "name": "transferAmount",
          "type": "uint256"
        },
        {
          "indexed": false,
          "internalType": "uint256",
          "name": "haveBeenPaidAmount",
          "type": "uint256"
        },
        {
          "indexed": false,
          "internalType": "uint256",
          "name": "haveBeenNumberOfInstallment",
          "type": "uint256"
        }
      ],
      "name": "TransferWithInstallment",
      "type": "event"
    },
    {
      "anonymous": false,
      "inputs": [
        {
          "indexed": false,
          "internalType": "address",
          "name": "account",
          "type": "address"
        }
      ],
      "name": "Unpaused",
      "type": "event"
    },
    {
      "anonymous": false,
      "inputs": [
        {
          "indexed": true,
          "internalType": "uint256",
          "name": "fee",
          "type": "uint256"
        }
      ],
      "name": "UpdateFee",
      "type": "event"
    },
    {
      "anonymous": false,
      "inputs": [
        {
          "indexed": true,
          "internalType": "uint256",
          "name": "streamId",
          "type": "uint256"
        },
        {
          "indexed": true,
          "internalType": "address",
          "name": "recipient",
          "type": "address"
        },
        {
          "indexed": false,
          "internalType": "uint256",
          "name": "amount",
          "type": "uint256"
        },
        {
          "indexed": false,
          "internalType": "uint256",
          "name": "actualAmount",
          "type": "uint256"
        },
        {
          "indexed": false,
          "internalType": "uint256",
          "name": "feesOfProtocol",
          "type": "uint256"
        }
      ],
      "name": "WithdrawFromInstallmentStream",
      "type": "event"
    },
    {
      "constant": false,
      "inputs": [
        {
          "internalType": "address",
          "name": "account",
          "type": "address"
        }
      ],
      "name": "addPauser",
      "outputs": [],
      "payable": false,
      "stateMutability": "nonpayable",
      "type": "function"
    },
    {
      "constant": true,
      "inputs": [],
      "name": "expFeeOfProtocol",
      "outputs": [
        {
          "internalType": "uint256",
          "name": "mantissa",
          "type": "uint256"
        }
      ],
      "payable": false,
      "stateMutability": "view",
      "type": "function"
    },
    {
      "constant": false,
      "inputs": [],
      "name": "initialize",
      "outputs": [],
      "payable": false,
      "stateMutability": "nonpayable",
      "type": "function"
    },
    {
      "constant": false,
      "inputs": [
        {
          "internalType": "address",
          "name": "sender",
          "type": "address"
        }
      ],
      "name": "initialize",
      "outputs": [],
      "payable": false,
      "stateMutability": "nonpayable",
      "type": "function"
    },
    {
      "constant": true,
      "inputs": [],
      "name": "isOwner",
      "outputs": [
        {
          "internalType": "bool",
          "name": "",
          "type": "bool"
        }
      ],
      "payable": false,
      "stateMutability": "view",
      "type": "function"
    },
    {
      "constant": true,
      "inputs": [
        {
          "internalType": "address",
          "name": "account",
          "type": "address"
        }
      ],
      "name": "isPauser",
      "outputs": [
        {
          "internalType": "bool",
          "name": "",
          "type": "bool"
        }
      ],
      "payable": false,
      "stateMutability": "view",
      "type": "function"
    },
    {
      "constant": true,
      "inputs": [],
      "name": "nextStreamId",
      "outputs": [
        {
          "internalType": "uint256",
          "name": "",
          "type": "uint256"
        }
      ],
      "payable": false,
      "stateMutability": "view",
      "type": "function"
    },
    {
      "constant": true,
      "inputs": [],
      "name": "owner",
      "outputs": [
        {
          "internalType": "address",
          "name": "",
          "type": "address"
        }
      ],
      "payable": false,
      "stateMutability": "view",
      "type": "function"
    },
    {
      "constant": false,
      "inputs": [],
      "name": "pause",
      "outputs": [],
      "payable": false,
      "stateMutability": "nonpayable",
      "type": "function"
    },
    {
      "constant": true,
      "inputs": [],
      "name": "paused",
      "outputs": [
        {
          "internalType": "bool",
          "name": "",
          "type": "bool"
        }
      ],
      "payable": false,
      "stateMutability": "view",
      "type": "function"
    },
    {
      "constant": false,
      "inputs": [
        {
          "internalType": "address",
          "name": "newOwner",
          "type": "address"
        }
      ],
      "name": "transferOwnership",
      "outputs": [],
      "payable": false,
      "stateMutability": "nonpayable",
      "type": "function"
    },
    {
      "constant": false,
      "inputs": [],
      "name": "unpause",
      "outputs": [],
      "payable": false,
      "stateMutability": "nonpayable",
      "type": "function"
    },
    {
      "constant": false,
      "inputs": [
        {
          "internalType": "uint256",
          "name": "feePer",
          "type": "uint256"
        }
      ],
      "name": "updateFeesOfProtocolPer",
      "outputs": [],
      "payable": false,
      "stateMutability": "nonpayable",
      "type": "function"
    },
    {
      "constant": true,
      "inputs": [
        {
          "internalType": "address",
          "name": "tokenAddress",
          "type": "address"
        }
      ],
      "name": "getEarnings",
      "outputs": [
        {
          "internalType": "uint256",
          "name": "",
          "type": "uint256"
        }
      ],
      "payable": false,
      "stateMutability": "view",
      "type": "function"
    },
    {
      "constant": false,
      "inputs": [
        {
          "internalType": "address",
          "name": "tokenAddress",
          "type": "address"
        },
        {
          "internalType": "uint256",
          "name": "amount",
          "type": "uint256"
        }
      ],
      "name": "takeEarnings",
      "outputs": [],
      "payable": false,
      "stateMutability": "nonpayable",
      "type": "function"
    },
    {
      "constant": true,
      "inputs": [
        {
          "internalType": "uint256",
          "name": "amount",
          "type": "uint256"
        }
      ],
      "name": "calculationFeesOfProtocol",
      "outputs": [
        {
          "internalType": "uint256",
          "name": "",
          "type": "uint256"
        }
      ],
      "payable": false,
      "stateMutability": "view",
      "type": "function"
    },
    {
      "constant": true,
      "inputs": [
        {
          "internalType": "uint256",
          "name": "streamId",
          "type": "uint256"
        }
      ],
      "name": "getInstallmentStream",
      "outputs": [
        {
          "internalType": "address",
          "name": "sender",
          "type": "address"
        },
        {
          "internalType": "address",
          "name": "recipient",
          "type": "address"
        },
        {
          "internalType": "uint256",
          "name": "deposit",
          "type": "uint256"
        },
        {
          "internalType": "address",
          "name": "tokenAddress",
          "type": "address"
        },
        {
          "internalType": "uint256",
          "name": "startTime",
          "type": "uint256"
        },
        {
          "internalType": "uint256",
          "name": "stopTime",
          "type": "uint256"
        },
        {
          "internalType": "uint256",
          "name": "numberOfInstallments",
          "type": "uint256"
        },
        {
          "internalType": "uint256",
          "name": "feesOfRecipientPer",
          "type": "uint256"
        },
        {
          "internalType": "uint256",
          "name": "haveBeenNumberOfInstallment",
          "type": "uint256"
        },
        {
          "internalType": "uint256",
          "name": "haveBeenPaidAmount",
          "type": "uint256"
        },
        {
          "internalType": "uint256",
          "name": "withdrawalAmount",
          "type": "uint256"
        }
      ],
      "payable": false,
      "stateMutability": "view",
      "type": "function"
    },
    {
      "constant": true,
      "inputs": [
        {
          "internalType": "uint256",
          "name": "streamId",
          "type": "uint256"
        }
      ],
      "name": "getInstallmentStreamCal",
      "outputs": [
        {
          "internalType": "uint256",
          "name": "installmentAmountWithFees",
          "type": "uint256"
        },
        {
          "internalType": "uint256",
          "name": "oneOfInstallmentAmount",
          "type": "uint256"
        },
        {
          "internalType": "uint256",
          "name": "oneOfInstallmentTime",
          "type": "uint256"
        },
        {
          "internalType": "uint256",
          "name": "ratePerSecond",
          "type": "uint256"
        }
      ],
      "payable": false,
      "stateMutability": "view",
      "type": "function"
    },
    {
      "constant": false,
      "inputs": [
        {
          "internalType": "address",
          "name": "recipient",
          "type": "address"
        },
        {
          "internalType": "uint256",
          "name": "deposit",
          "type": "uint256"
        },
        {
          "internalType": "address",
          "name": "tokenAddress",
          "type": "address"
        },
        {
          "internalType": "uint256",
          "name": "startTime",
          "type": "uint256"
        },
        {
          "internalType": "uint256",
          "name": "stopTime",
          "type": "uint256"
        },
        {
          "internalType": "uint256",
          "name": "numberOfInstallments",
          "type": "uint256"
        },
        {
          "internalType": "uint256",
          "name": "feesOfRecipientPer",
          "type": "uint256"
        }
      ],
      "name": "createInstallmentStream",
      "outputs": [
        {
          "internalType": "uint256",
          "name": "",
          "type": "uint256"
        }
      ],
      "payable": false,
      "stateMutability": "nonpayable",
      "type": "function"
    },
    {
      "constant": true,
      "inputs": [
        {
          "internalType": "uint256",
          "name": "streamId",
          "type": "uint256"
        }
      ],
      "name": "installmentDeltaOf",
      "outputs": [
        {
          "internalType": "uint256",
          "name": "",
          "type": "uint256"
        }
      ],
      "payable": false,
      "stateMutability": "view",
      "type": "function"
    },
    {
      "constant": true,
      "inputs": [
        {
          "internalType": "uint256",
          "name": "streamId",
          "type": "uint256"
        },
        {
          "internalType": "address",
          "name": "who",
          "type": "address"
        }
      ],
      "name": "installmentBalanceOf",
      "outputs": [
        {
          "internalType": "uint256",
          "name": "balance",
          "type": "uint256"
        }
      ],
      "payable": false,
      "stateMutability": "view",
      "type": "function"
    },
    {
      "constant": false,
      "inputs": [
        {
          "internalType": "uint256",
          "name": "streamId",
          "type": "uint256"
        }
      ],
      "name": "transferWithInstallment",
      "outputs": [
        {
          "internalType": "bool",
          "name": "",
          "type": "bool"
        }
      ],
      "payable": false,
      "stateMutability": "nonpayable",
      "type": "function"
    },
    {
      "constant": false,
      "inputs": [
        {
          "internalType": "uint256",
          "name": "streamId",
          "type": "uint256"
        },
        {
          "internalType": "uint256",
          "name": "amount",
          "type": "uint256"
        }
      ],
      "name": "withdrawInstallmentStream",
      "outputs": [
        {
          "internalType": "bool",
          "name": "",
          "type": "bool"
        }
      ],
      "payable": false,
      "stateMutability": "nonpayable",
      "type": "function"
    },
    {
      "constant": false,
      "inputs": [
        {
          "internalType": "uint256",
          "name": "streamId",
          "type": "uint256"
        }
      ],
      "name": "cancelInstallmentStream",
      "outputs": [
        {
          "internalType": "bool",
          "name": "",
          "type": "bool"
        }
      ],
      "payable": false,
      "stateMutability": "nonpayable",
      "type": "function"
    }
  ],
  "bytecode": "0x60806040523480156200001157600080fd5b5062000028336200005060201b620036581760201c565b6200003e336200015360201b62001f0b1760201c565b600160cd55622dc6c060ce5562000477565b600054610100900460ff1680620000755750620000756001600160e01b036200022616565b8062000084575060005460ff16155b620000c15760405162461bcd60e51b815260040180806020018281038252602e81526020018062003df8602e913960400191505060405180910390fd5b600054610100900460ff16158015620000ed576000805460ff1961ff0019909116610100171660011790555b603380546001600160a01b0319166001600160a01b0384811691909117918290556040519116906000907f8be0079c531659141344cd1fd0a4f28419497f9722a3daafe3b4186f6b6457e0908290a380156200014f576000805461ff00191690555b5050565b600054610100900460ff1680620001785750620001786001600160e01b036200022616565b8062000187575060005460ff16155b620001c45760405162461bcd60e51b815260040180806020018281038252602e81526020018062003df8602e913960400191505060405180910390fd5b600054610100900460ff16158015620001f0576000805460ff1961ff0019909116610100171660011790555b62000206826200022c60201b62002e111760201c565b6099805460ff1916905580156200014f576000805461ff00191690555050565b303b1590565b600054610100900460ff1680620002515750620002516001600160e01b036200022616565b8062000260575060005460ff16155b6200029d5760405162461bcd60e51b815260040180806020018281038252602e81526020018062003df8602e913960400191505060405180910390fd5b600054610100900460ff16158015620002c9576000805460ff1961ff0019909116610100171660011790555b620002dd826001600160e01b036200030c16565b620002f657620002f6826001600160e01b036200032f16565b80156200014f576000805461ff00191690555050565b6000620003298260666200038160201b620029a01790919060201c565b92915050565b6200034a816066620003ea60201b6200346d1790919060201c565b6040516001600160a01b038216907f6719d08c1888103bea251a4ed56406bd0c3e69723c8a1686e017e7bbe159b6f890600090a250565b60006001600160a01b038216620003ca5760405162461bcd60e51b815260040180806020018281038252602281526020018062003dd66022913960400191505060405180910390fd5b506001600160a01b03166000908152602091909152604090205460ff1690565b620003ff82826001600160e01b036200038116565b1562000452576040805162461bcd60e51b815260206004820152601f60248201527f526f6c65733a206163636f756e7420616c72656164792068617320726f6c6500604482015290519081900360640190fd5b6001600160a01b0316600090815260209190915260409020805460ff19166001179055565b61394f80620004876000396000f3fe608060405234801561001057600080fd5b50600436106101585760003560e01c806382dc1ec4116100c3578063c4d66de81161007c578063c4d66de8146103ff578063c8358cd714610425578063c87f13d014610442578063ef47c29b1461045f578063f2fde38b1461047c578063fd74159a146104a257610158565b806382dc1ec4146103565780638456cb591461037c5780638da5cb5b146103845780638dd5bf4c146103a85780638f32d59b146103cb578063c1eb9ee0146103d357610158565b806346fbf68e1161011557806346fbf68e146102955780634916ef38146102cf578063527274a7146103125780635c975abb1461031a5780636d34fa59146103225780638129fc1c1461034e57610158565b806305c610ab1461015d578063131b9c04146101bb5780631e99d569146101e1578063263b7a09146101e957806337f267d0146102065780633f4ba83a1461028b575b600080fd5b6101a9600480360360e081101561017357600080fd5b506001600160a01b0381358116916020810135916040820135169060608101359060808101359060a08101359060c001356104bf565b60408051918252519081900360200190f35b6101a9600480360360208110156101d157600080fd5b50356001600160a01b0316610db5565b6101a9610dd0565b6101a9600480360360208110156101ff57600080fd5b5035610dd6565b6102236004803603602081101561021c57600080fd5b5035610f57565b604080516001600160a01b039c8d1681529a8c1660208c01528a810199909952969099166060890152608088019490945260a087019290925260c086015260e08501526101008401526101208301939093526101408201929092529051908190036101600190f35b610293611128565b005b6102bb600480360360208110156102ab57600080fd5b50356001600160a01b0316611211565b604080519115158252519081900360200190f35b6102ec600480360360208110156102e557600080fd5b503561122a565b604080519485526020850193909352838301919091526060830152519081900360800190f35b6101a96112bd565b6102bb6112c3565b6101a96004803603604081101561033857600080fd5b50803590602001356001600160a01b03166112cc565b61029361177f565b6102936004803603602081101561036c57600080fd5b50356001600160a01b0316611826565b610293611875565b61038c61193c565b604080516001600160a01b039092168252519081900360200190f35b6102bb600480360360408110156103be57600080fd5b508035906020013561194b565b6102bb611c5f565b610293600480360360408110156103e957600080fd5b506001600160a01b038135169060200135611c85565b6102936004803603602081101561041557600080fd5b50356001600160a01b0316611f0b565b6102bb6004803603602081101561043b57600080fd5b5035611fc1565b6102bb6004803603602081101561045857600080fd5b503561210f565b6102936004803603602081101561047557600080fd5b503561264c565b6102936004803603602081101561049257600080fd5b50356001600160a01b0316612748565b6101a9600480360360208110156104b857600080fd5b5035612762565b60995460009060ff161561050d576040805162461bcd60e51b815260206004820152601060248201526f14185d5cd8589b194e881c185d5cd95960821b604482015290519081900360640190fd5b6001600160a01b038816610568576040805162461bcd60e51b815260206004820152601a60248201527f73747265616d20746f20746865207a65726f2061646472657373000000000000604482015290519081900360640190fd5b6001600160a01b0388163014156105bf576040805162461bcd60e51b81526020600482015260166024820152751cdd1c99585b481d1bc81d1a194818dbdb9d1c9858dd60521b604482015290519081900360640190fd5b6001600160a01b038816331415610614576040805162461bcd60e51b815260206004820152601460248201527339ba3932b0b6903a37903a34329031b0b63632b960611b604482015290519081900360640190fd5b6000871161065b576040805162461bcd60e51b815260206004820152600f60248201526e6465706f736974206973207a65726f60881b604482015290519081900360640190fd5b4285101561069a5760405162461bcd60e51b81526004018080602001828103825260218152602001806137e26021913960400191505060405180910390fd5b8484116106ee576040805162461bcd60e51b815260206004820152601f60248201527f73746f702074696d65206265666f7265207468652073746172742074696d6500604482015290519081900360640190fd5b8287101561072d5760405162461bcd60e51b815260040180806020018281038252602881526020018061386c6028913960400191505060405180910390fd5b6002831015610783576040805162461bcd60e51b815260206004820152601f60248201527f6e756d6265724f66496e7374616c6c6d656e747320697320736d616c6c203200604482015290519081900360640190fd5b61078b6134ee565b61079585876127d4565b60208301819052828260038111156107a957fe5b60038111156107b457fe5b90525060009050815160038111156107c857fe5b146107cf57fe5b8060200151881015610828576040805162461bcd60e51b815260206004820152601f60248201527f6465706f73697420736d616c6c6572207468616e2074696d652064656c746100604482015290519081900360640190fd5b838160200151101561086b5760405162461bcd60e51b815260040180806020018281038252602481526020018061377a6024913960400191505060405180910390fd5b8381602001518161087857fe5b06156108b55760405162461bcd60e51b815260040180806020018281038252602e81526020018061383e602e913960400191505060405180910390fd5b60006108c789858460200151886127fa565b90506108d3818661294b565b60408401819052838260038111156108e757fe5b60038111156108f257fe5b905250600090508251600381111561090657fe5b1461090d57fe5b61091b82602001518661294b565b606084018190528382600381111561092f57fe5b600381111561093a57fe5b905250600090508251600381111561094e57fe5b1461095557fe5b6109678260400151836060015161294b565b608084018190528382600381111561097b57fe5b600381111561098657fe5b905250600090508251600381111561099a57fe5b146109a157fe5b60006109b160ce5460cd54612976565b915081848260038111156109c157fe5b60038111156109cc57fe5b90525060009050835160038111156109e057fe5b146109e757fe5b6109f68360a001516001612976565b60a0850181905284826003811115610a0a57fe5b6003811115610a1557fe5b9052506000905083516003811115610a2957fe5b14610a3057fe5b82604001518360c00181815250506040518061020001604052808b815260200183815260200184604001518152602001846060015181526020018981526020018881526020018c6001600160a01b03168152602001336001600160a01b03168152602001878152602001846080015181526020018681526020018460a0015181526020018460c001518152602001600081526020018a6001600160a01b031681526020016001151581525060cf6000838152602001908152602001600020600082015181600001556020820151816001015560408201518160020155606082015181600301556080820151816004015560a0820151816005015560c08201518160060160006101000a8154816001600160a01b0302191690836001600160a01b0316021790555060e08201518160070160006101000a8154816001600160a01b0302191690836001600160a01b031602179055506101008201518160080155610120820151816009015561014082015181600a015561016082015181600b015561018082015181600c01556101a082015181600d01556101c082015181600e0160006101000a8154816001600160a01b0302191690836001600160a01b031602179055506101e082015181600e0160146101000a81548160ff021916908315150217905550905050610c2560cd546001612976565b60cd81905584826003811115610c3757fe5b6003811115610c4257fe5b9052506000905083516003811115610c5657fe5b14610c5d57fe5b60408084015181516323b872dd60e01b8152336004820152306024820152604481019190915290516001600160a01b038b16916323b872dd9160648083019260209291908290030181600087803b158015610cb757600080fd5b505af1158015610ccb573d6000803e3d6000fd5b505050506040513d6020811015610ce157600080fd5b5051610d2d576040805162461bcd60e51b8152602060048201526016602482015275746f6b656e207472616e73666572206661696c75726560501b604482015290519081900360640190fd5b60c080840151604080518d81526001600160a01b038d811660208301528183018d9052606082018c9052608082018b905260a082018a90529381019290925260e0820185905251918d1691339184917f95a6ae542983366281b8656dd8bd575b02f9ac9839ae8e5982329dbe53409361918190036101000190a49a9950505050505050505050565b6001600160a01b0316600090815260d1602052604090205490565b60cd5481565b600081815260cf60205260408120600e01548290600160a01b900460ff16610e33576040805162461bcd60e51b8152602060048201526015602482015260008051602061379e833981519152604482015290519081900360640190fd5b610e3b61352c565b50600083815260cf60209081526040918290208251610200810184528154815260018201549281019290925260028101549282019290925260038201546060820152600482015460808201819052600583015460a083015260068301546001600160a01b0390811660c08401526007840154811660e084015260088401546101008401526009840154610120840152600a840154610140840152600b840154610160840152600c840154610180840152600d8401546101a0840152600e909301549283166101c0830152600160a01b90920460ff1615156101e0820152904211610f29576000925050610f51565b8060a00151421015610f42576080015142039150610f51565b80608001518160a00151039250505b50919050565b60008060008060008060008060008060008b60cf6000828152602001908152602001600020600e0160149054906101000a900460ff16610fcc576040805162461bcd60e51b8152602060048201526015602482015260008051602061379e833981519152604482015290519081900360640190fd5b60cf60008e815260200190815260200160002060070160009054906101000a90046001600160a01b03169b5060cf60008e815260200190815260200160002060060160009054906101000a90046001600160a01b03169a5060cf60008e815260200190815260200160002060000154995060cf60008e8152602001908152602001600020600e0160009054906101000a90046001600160a01b0316985060cf60008e815260200190815260200160002060040154975060cf60008e815260200190815260200160002060050154965060cf60008e815260200190815260200160002060080154955060cf60008e8152602001908152602001600020600a0154945060cf60008e8152602001908152602001600020600b0154935060cf60008e8152602001908152602001600020600c0154925060cf60008e8152602001908152602001600020600d015491505091939597999b90929496989a50565b61113861113361299c565b611211565b6111735760405162461bcd60e51b815260040180806020018281038252603081526020018061374a6030913960400191505060405180910390fd5b60995460ff166111c1576040805162461bcd60e51b815260206004820152601460248201527314185d5cd8589b194e881b9bdd081c185d5cd95960621b604482015290519081900360640190fd5b6099805460ff191690557f5db9ee0a495bf2e6ff9c91a7834c1ba4fdd244a5e8aa4e537bd38aeae4b073aa6111f461299c565b604080516001600160a01b039092168252519081900360200190a1565b600061122460668363ffffffff6129a016565b92915050565b600081815260cf60205260408120600e01548190819081908590600160a01b900460ff1661128d576040805162461bcd60e51b8152602060048201526015602482015260008051602061379e833981519152604482015290519081900360640190fd5b5050506000928352505060cf60205260409020600181015460028201546003830154600990930154919390929190565b60d05481565b60995460ff1690565b600082815260cf60205260408120600e01548390600160a01b900460ff16611329576040805162461bcd60e51b8152602060048201526015602482015260008051602061379e833981519152604482015290519081900360640190fd5b61133161352c565b50600084815260cf6020908152604091829020825161020081018452815481526001820154928101929092526002810154928201929092526003820154606082015260048201546080820152600582015460a082015260068201546001600160a01b0390811660c08301526007830154811660e083015260088301546101008301526009830154610120830152600a830154610140830152600b830154610160830152600c830154610180830152600d8301546101a0830152600e909201549182166101c0820152600160a01b90910460ff1615156101e08201526114146134ee565b600061141f87610dd6565b905061143081846101200151612a07565b606084018190528382600381111561144457fe5b600381111561144f57fe5b905250600090508251600381111561146357fe5b1461146a57fe5b826060015181106115be5761148381846060015161294b565b608084018190528382600381111561149757fe5b60038111156114a257fe5b90525060009050825160038111156114b657fe5b146114bd57fe5b826101600151826080015111156114da5761016083015160808301525b6114ec83604001518460600151612a46565b60c084018190528382600381111561150057fe5b600381111561150b57fe5b905250600090508251600381111561151f57fe5b1461152657fe5b61153882608001518360c00151612a07565b60c084018190528382600381111561154c57fe5b600381111561155757fe5b905250600090508251600381111561156b57fe5b1461157257fe5b61158482606001518360c00151612976565b606084018190528382600381111561159857fe5b60038111156115a357fe5b90525060009050825160038111156115b757fe5b146115be57fe5b8260a001514210611662576115dc8360200151846101000151612a46565b60a08401819052838260038111156115f057fe5b60038111156115fb57fe5b905250600090508251600381111561160f57fe5b1461161657fe5b61162882606001518360a00151612976565b606084018190528382600381111561163c57fe5b600381111561164757fe5b905250600090508251600381111561165b57fe5b1461166257fe5b82610180015182606001511061167e5761018083015160608301525b6116918260600151846101a001516127d4565b60208401819052838260038111156116a557fe5b60038111156116b057fe5b90525060009050825160038111156116c457fe5b146116cb57fe5b8260c001516001600160a01b0316866001600160a01b031614156116f757506020015192506117789050565b8260e001516001600160a01b0316866001600160a01b031614156117705761172883610180015183606001516127d4565b604084018190528382600381111561173c57fe5b600381111561174757fe5b905250600090508251600381111561175b57fe5b1461176257fe5b506040015192506117789050565b600094505050505b5092915050565b600054610100900460ff16806117985750611798612a71565b806117a6575060005460ff16155b6117e15760405162461bcd60e51b815260040180806020018281038252602e8152602001806138b6602e913960400191505060405180910390fd5b600054610100900460ff1615801561180c576000805460ff1961ff0019909116610100171660011790555b6001609a558015611823576000805461ff00191690555b50565b61183161113361299c565b61186c5760405162461bcd60e51b815260040180806020018281038252603081526020018061374a6030913960400191505060405180910390fd5b61182381612a77565b61188061113361299c565b6118bb5760405162461bcd60e51b815260040180806020018281038252603081526020018061374a6030913960400191505060405180910390fd5b60995460ff1615611906576040805162461bcd60e51b815260206004820152601060248201526f14185d5cd8589b194e881c185d5cd95960821b604482015290519081900360640190fd5b6099805460ff191660011790557f62e78cea01bee320cd4e420270b5ea74000d11b0c9f74754ebdbfc544b05a2586111f461299c565b6033546001600160a01b031690565b60995460009060ff1615611999576040805162461bcd60e51b815260206004820152601060248201526f14185d5cd8589b194e881c185d5cd95960821b604482015290519081900360640190fd5b609a805460010190819055600084815260cf60205260409020600e01548490600160a01b900460ff16611a01576040805162461bcd60e51b8152602060048201526015602482015260008051602061379e833981519152604482015290519081900360640190fd5b600085815260cf602052604090206007015485906001600160a01b0316331480611a445750600081815260cf60205260409020600601546001600160a01b031633145b611a7f5760405162461bcd60e51b81526004018080602001828103825260378152602001806138e46037913960400191505060405180910390fd5b60008511611ac5576040805162461bcd60e51b815260206004820152600e60248201526d616d6f756e74206973207a65726f60901b604482015290519081900360640190fd5b611acd61352c565b50600086815260cf60209081526040808320815161020081018352815481526001820154938101939093526002810154918301919091526003810154606083015260048101546080830152600581015460a083015260068101546001600160a01b0390811660c084018190526007830154821660e085015260088301546101008501526009830154610120850152600a830154610140850152600b830154610160850152600c830154610180850152600d8301546101a0850152600e909201549081166101c0840152600160a01b900460ff1615156101e0830152909190611bb69089906112cc565b905086811015611bf75760405162461bcd60e51b81526004018080602001828103825260248152602001806137be6024913960400191505060405180910390fd5b611c018888612abf565b6001955050505050609a548114611778576040805162461bcd60e51b815260206004820152601f60248201527f5265656e7472616e637947756172643a207265656e7472616e742063616c6c00604482015290519081900360640190fd5b6033546000906001600160a01b0316611c7661299c565b6001600160a01b031614905090565b611c8d611c5f565b611c9657600080fd5b609a80546001019081905581611ce4576040805162461bcd60e51b815260206004820152600e60248201526d616d6f756e74206973207a65726f60901b604482015290519081900360640190fd5b6001600160a01b038316600090815260d16020526040902054821115611d3b5760405162461bcd60e51b81526004018080602001828103825260248152602001806137be6024913960400191505060405180910390fd5b611d436135c6565b6001600160a01b038416600090815260d16020526040902054611d6690846127d4565b6001600160a01b038616600090815260d16020526040902081905582826003811115611d8e57fe5b6003811115611d9957fe5b9052506000905081516003811115611dad57fe5b14611db457fe5b60405183906001600160a01b038616907f13e8af02ad3e36f8d82fc8b86dcd67b7ed11f718f0e52fb245d2038eb71856ba90600090a36040805163a9059cbb60e01b81523360048201526024810185905290516001600160a01b0386169163a9059cbb9160448083019260209291908290030181600087803b158015611e3957600080fd5b505af1158015611e4d573d6000803e3d6000fd5b505050506040513d6020811015611e6357600080fd5b5051611eaf576040805162461bcd60e51b8152602060048201526016602482015275746f6b656e207472616e73666572206661696c75726560501b604482015290519081900360640190fd5b50609a548114611f06576040805162461bcd60e51b815260206004820152601f60248201527f5265656e7472616e637947756172643a207265656e7472616e742063616c6c00604482015290519081900360640190fd5b505050565b600054610100900460ff1680611f245750611f24612a71565b80611f32575060005460ff16155b611f6d5760405162461bcd60e51b815260040180806020018281038252602e8152602001806138b6602e913960400191505060405180910390fd5b600054610100900460ff16158015611f98576000805460ff1961ff0019909116610100171660011790555b611fa182612e11565b6099805460ff191690558015611fbd576000805461ff00191690555b5050565b609a805460010190819055600082815260cf60205260408120600e01549091908390600160a01b900460ff1661202c576040805162461bcd60e51b8152602060048201526015602482015260008051602061379e833981519152604482015290519081900360640190fd5b600084815260cf602052604090206007015484906001600160a01b031633148061206f5750600081815260cf60205260409020600601546001600160a01b031633145b6120aa5760405162461bcd60e51b81526004018080602001828103825260378152602001806138e46037913960400191505060405180910390fd5b6120b385612ec9565b600193505050609a548114610f51576040805162461bcd60e51b815260206004820152601f60248201527f5265656e7472616e637947756172643a207265656e7472616e742063616c6c00604482015290519081900360640190fd5b60995460009060ff161561215d576040805162461bcd60e51b815260206004820152601060248201526f14185d5cd8589b194e881c185d5cd95960821b604482015290519081900360640190fd5b600082815260cf60205260409020600e01548290600160a01b900460ff166121ba576040805162461bcd60e51b8152602060048201526015602482015260008051602061379e833981519152604482015290519081900360640190fd5b6121c26135da565b6121ca61352c565b50600084815260cf6020908152604091829020825161020081018452815481526001820154928101929092526002810154928201929092526003820154606082015260048201546080820152600582015460a082015260068201546001600160a01b0390811660c08301526007830154811660e0830152600883015461010083018190526009840154610120840152600a840154610140840152600b8401546101608401819052600c850154610180850152600d8501546101a0850152600e909401549182166101c0840152600160a01b90910460ff1615156101e08301529091106122f5576040805162461bcd60e51b81526020600482015260156024820152740d2dce6e8c2d8d8dacadce840d2e640ccd2dcd2e6d605b1b604482015290519081900360640190fd5b61230d8160600151826101600151836080015161333a565b606084018190528382600381111561232157fe5b600381111561232c57fe5b905250600090508251600381111561234057fe5b1461234757fe5b816060015142106123895760405162461bcd60e51b815260040180806020018281038252603b815260200180613803603b913960400191505060405180910390fd5b60018161010001510381610160015110156123ad576040810151602083015261245b565b600181610100015103816101600151141561245b576123d58160200151826101000151612a46565b60408401819052838260038111156123e957fe5b60038111156123f457fe5b905250600090508251600381111561240857fe5b1461240f57fe5b61242181604001518360400151612976565b602084018190528382600381111561243557fe5b600381111561244057fe5b905250600090508251600381111561245457fe5b1461245b57fe5b61246b8161016001516001612976565b600087815260cf60205260409020600b018190558382600381111561248c57fe5b600381111561249757fe5b90525060009050825160038111156124ab57fe5b146124b257fe5b6124c58161018001518360200151612976565b600087815260cf60205260409020600c01819055838260038111156124e657fe5b60038111156124f157fe5b905250600090508251600381111561250557fe5b1461250c57fe5b6101c0810151602080840151604080516323b872dd60e01b81523360048201523060248201526044810192909252516001600160a01b03909316926323b872dd926064808401939192918290030181600087803b15801561256c57600080fd5b505af1158015612580573d6000803e3d6000fd5b505050506040513d602081101561259657600080fd5b50516125e2576040805162461bcd60e51b8152602060048201526016602482015275746f6b656e207472616e73666572206661696c75726560501b604482015290519081900360640190fd5b602080830151600087815260cf8352604090819020600c810154600b9091015482519384529383015281810192909252905186917f2cb55cba6b927ca1fe38f093e666dbcddcebef9e4983889025d088effce45ded919081900360600190a2506001949350505050565b612654611c5f565b61265d57600080fd5b6127108111156126b4576040805162461bcd60e51b815260206004820152601760248201527f66656550657220686967686572207468616e2031303025000000000000000000604482015290519081900360640190fd5b6126bc61360a565b6126cc82655af3107a4000612a07565b60208301819052828260038111156126e057fe5b60038111156126eb57fe5b90525060009050815160038111156126ff57fe5b1461270657fe5b60408051602080820183528301519081905260d0555182907f38e229a7f3f9c329892d08eb37c4e91ccac6d12c798d394990ca4f56028ec26690600090a25050565b612750611c5f565b61275957600080fd5b61182381613387565b600061276c613621565b604080516020810190915260d054815261278690846133f6565b604083018190528282600381111561279a57fe5b60038111156127a557fe5b90525060009050815160038111156127b957fe5b146127c057fe5b6127cd816040015161345e565b9392505050565b6000808383116127eb5750600090508183036127f3565b506003905060005b9250929050565b6000612804613621565b60408051602080820190925286815290820181905261282390876133f6565b602083018190528282600381111561283757fe5b600381111561284257fe5b905250600090508151600381111561285657fe5b1461285d57fe5b61286b8160200151856133f6565b602083018190528282600381111561287f57fe5b600381111561288a57fe5b905250600090508151600381111561289e57fe5b146128a557fe5b6128b38160200151846133f6565b60208301819052828260038111156128c757fe5b60038111156128d257fe5b90525060009050815160038111156128e657fe5b146128ed57fe5b60006128fc826020015161345e565b9050600061290a8289612976565b9150818482600381111561291a57fe5b600381111561292557fe5b905250600090508351600381111561293957fe5b1461294057fe5b979650505050505050565b6000808261295f57506001905060006127f3565b600083858161296a57fe5b04915091509250929050565b60008083830184811061298e576000925090506127f3565b5060029150600090506127f3565b3390565b60006001600160a01b0382166129e75760405162461bcd60e51b81526004018080602001828103825260228152602001806138946022913960400191505060405180910390fd5b506001600160a01b03166000908152602091909152604090205460ff1690565b60008083612a1a575060009050806127f3565b83830283858281612a2757fe5b0414612a3b575060029150600090506127f3565b6000925090506127f3565b60008082612a5a57506001905060006127f3565b6000838581612a6557fe5b06915091509250929050565b303b1590565b612a8860668263ffffffff61346d16565b6040516001600160a01b038216907f6719d08c1888103bea251a4ed56406bd0c3e69723c8a1686e017e7bbe159b6f890600090a250565b612ac761352c565b50600082815260cf6020908152604091829020825161020081018452815481526001820154928101929092526002810154928201929092526003820154606082015260048201546080820152600582015460a082015260068201546001600160a01b0390811660c08301526007830154811660e083015260088301546101008301526009830154610120830152600a830154610140830152600b830154610160830152600c830154610180830152600d8301546101a0830152600e909201549182166101c0820152600160a01b90910460ff1615156101e0820152612baa61360a565b612bb9826101a0015184612976565b600086815260cf60205260409020600d0181905582826003811115612bda57fe5b6003811115612be557fe5b9052506000905081516003811115612bf957fe5b14612c0057fe5b6000612c0b84612762565b6101c08401516001600160a01b0316600090815260d16020526040902054909150612c369082612976565b6101c08501516001600160a01b0316600090815260d16020526040902081905583826003811115612c6357fe5b6003811115612c6e57fe5b9052506000905082516003811115612c8257fe5b14612c8957fe5b612c9384826127d4565b6020840181905283826003811115612ca757fe5b6003811115612cb257fe5b9052506000905082516003811115612cc657fe5b14612ccd57fe5b826101c001516001600160a01b031663a9059cbb8460c0015184602001516040518363ffffffff1660e01b815260040180836001600160a01b03166001600160a01b0316815260200182815260200192505050602060405180830381600087803b158015612d3a57600080fd5b505af1158015612d4e573d6000803e3d6000fd5b505050506040513d6020811015612d6457600080fd5b5051612db0576040805162461bcd60e51b8152602060048201526016602482015275746f6b656e207472616e73666572206661696c75726560501b604482015290519081900360640190fd5b8260c001516001600160a01b0316857f81d0ad13bc7ea3578116fa39f1bf691dd59527c340cd9925f660c8329507b8488685602001518560405180848152602001838152602001828152602001935050505060405180910390a35050505050565b600054610100900460ff1680612e2a5750612e2a612a71565b80612e38575060005460ff16155b612e735760405162461bcd60e51b815260040180806020018281038252602e8152602001806138b6602e913960400191505060405180910390fd5b600054610100900460ff16158015612e9e576000805460ff1961ff0019909116610100171660011790555b612ea782611211565b612eb457612eb482612a77565b8015611fbd576000805461ff00191690555050565b612ed161352c565b50600081815260cf6020908152604091829020825161020081018452815481526001820154928101929092526002810154928201929092526003820154606082015260048201546080820152600582015460a082015260068201546001600160a01b0390811660c08301526007830154811660e083015260088301546101008301526009830154610120830152600a830154610140830152600b830154610160830152600c830154610180830152600d8301546101a0830152600e909201549182166101c0820152600160a01b90910460ff1615156101e0820152612fb461360a565b6000612fc4848460e001516112cc565b90506000612fd6858560c001516112cc565b90506000612fe382612762565b6101c08601516001600160a01b0316600090815260d1602052604090205490915061300e9082612976565b6101c08701516001600160a01b0316600090815260d1602052604090208190558582600381111561303b57fe5b600381111561304657fe5b905250600090508451600381111561305a57fe5b1461306157fe5b61306b82826127d4565b602086018190528582600381111561307f57fe5b600381111561308a57fe5b905250600090508451600381111561309e57fe5b146130a557fe5b600086815260cf6020526040812081815560018101829055600281018290556003810182905560048101829055600581018290556006810180546001600160a01b031990811690915560078201805490911690556008810182905560098101829055600a8101829055600b8101829055600c8101829055600d810191909155600e0180546001600160a81b03191690556101c0850151821561322657806001600160a01b031663a9059cbb8760c0015187602001516040518363ffffffff1660e01b815260040180836001600160a01b03166001600160a01b0316815260200182815260200192505050602060405180830381600087803b1580156131a957600080fd5b505af11580156131bd573d6000803e3d6000fd5b505050506040513d60208110156131d357600080fd5b5051613226576040805162461bcd60e51b815260206004820181905260248201527f726563697069656e7420746f6b656e207472616e73666572206661696c757265604482015290519081900360640190fd5b83156132c557806001600160a01b031663a9059cbb8760e00151866040518363ffffffff1660e01b815260040180836001600160a01b03166001600160a01b0316815260200182815260200192505050602060405180830381600087803b15801561329057600080fd5b505af11580156132a4573d6000803e3d6000fd5b505050506040513d60208110156132ba57600080fd5b50516132c557600080fd5b8560c001516001600160a01b03168660e001516001600160a01b0316887f0c0185c518426e0a775c820ad17208f45905e6b396f3c506b3d0a4ae2a215cc4878787426040518085815260200184815260200183815260200182815260200194505050505060405180910390a450505050505050565b60008060008061334a8787612a07565b9092509050600082600381111561335d57fe5b1461336e575091506000905061337f565b6133788186612976565b9350935050505b935093915050565b6001600160a01b03811661339a57600080fd5b6033546040516001600160a01b038084169216907f8be0079c531659141344cd1fd0a4f28419497f9722a3daafe3b4186f6b6457e090600090a3603380546001600160a01b0319166001600160a01b0392909216919091179055565b6000613400613645565b600080613411866000015186612a07565b9092509050600082600381111561342457fe5b14613443575060408051602081019091526000815290925090506127f3565b60408051602081019091529081526000969095509350505050565b51670de0b6b3a7640000900490565b61347782826129a0565b156134c9576040805162461bcd60e51b815260206004820152601f60248201527f526f6c65733a206163636f756e7420616c72656164792068617320726f6c6500604482015290519081900360640190fd5b6001600160a01b0316600090815260209190915260409020805460ff19166001179055565b6040805160e0810190915280600081526020016000815260200160008152602001600081526020016000815260200160008152602001600081525090565b60405180610200016040528060008152602001600081526020016000815260200160008152602001600081526020016000815260200160006001600160a01b0316815260200160006001600160a01b0316815260200160008152602001600081526020016000815260200160008152602001600081526020016000815260200160006001600160a01b031681526020016000151581525090565b60408051602081019091528060005b905290565b6040805160a081019091528060008152602001600081526020016000815260200160008152602001600081525090565b604080518082019091526000808252602082015290565b6040805160608101909152806000815260200161363c613645565b81526020016135d55b6040518060200160405280600081525090565b600054610100900460ff16806136715750613671612a71565b8061367f575060005460ff16155b6136ba5760405162461bcd60e51b815260040180806020018281038252602e8152602001806138b6602e913960400191505060405180910390fd5b600054610100900460ff161580156136e5576000805460ff1961ff0019909116610100171660011790555b603380546001600160a01b0319166001600160a01b0384811691909117918290556040519116906000907f8be0079c531659141344cd1fd0a4f28419497f9722a3daafe3b4186f6b6457e0908290a38015611fbd576000805461ff0019169055505056fe506175736572526f6c653a2063616c6c657220646f6573206e6f742068617665207468652050617573657220726f6c656475726174696f6e203c206e756d6265724f66496e7374616c6c6d656e7453747265616d73747265616d20646f6573206e6f742065786973740000000000000000000000616d6f756e7420657863656564732074686520617661696c61626c652062616c616e636573746172742074696d65206265666f726520626c6f636b2e74696d657374616d70696e7374616c6c6d656e7453747265616d2069732066696e6973682c726174686572207468616e2053746f70496e7374616c6c6d656e7454696d656475726174696f6e2025206e756d6265724f66496e7374616c6c6d656e747320686176652072656d61696e6465726e756d6265724f66496e7374616c6c6d656e747320626967676572207468616e206465706f736974526f6c65733a206163636f756e7420697320746865207a65726f2061646472657373436f6e747261637420696e7374616e63652068617320616c7265616479206265656e20696e697469616c697a656463616c6c6572206973206e6f74207468652073656e646572206f722074686520726563697069656e74206f66207468652073747265616da265627a7a7231582034722310713f0a00c987dabb75b110127ac386eab83bad56f021782eb89463d764736f6c63430005100032526f6c65733a206163636f756e7420697320746865207a65726f2061646472657373436f6e747261637420696e7374616e63652068617320616c7265616479206265656e20696e697469616c697a6564",
  "source": "pragma solidity ^0.5.16;\n\nimport \"../node_modules/@openzeppelin/contracts-ethereum-package/contracts/token/ERC20/IERC20.sol\";\nimport \"../node_modules/@openzeppelin/contracts-ethereum-package/contracts/utils/ReentrancyGuard.sol\";\nimport \"./tools-contracts/OwnableWithoutRenounce.sol\";\nimport \"./tools-contracts/Exponential.sol\";\nimport \"./tools-contracts/PausableWithoutRenounce.sol\";\nimport \"./interface/streamPayOfInstallmentInterface.sol\";\nimport './Types.sol';\n\n/**\n * @title /StreamPay's money streaming of installmentStream.\n * @author StreamPay\n */\n \ncontract streamPayOfInstallment is OwnableWithoutRenounce, PausableWithoutRenounce, Exponential, ReentrancyGuard, streamPayOfInstallmentInterface{\n    /*** Storage Properties ***/\n    \n    /**\n     * @notice Counter for new stream ids.\n     */\n    uint256 public nextStreamId;\n    \n    /**\n     * @notice in order to distinguish difference part of StreamPay through symbol.\n     */\n    uint256 symbol;    \n    \n    /**\n     * @notice The stream objects identifiable by their unsigned integer ids.\n     */\n    mapping(uint256 =>Types.InstallmentStream) private installmentStreams;\n\n    /**\n     * @notice In Exp terms, 1e14 is 0.0001, or 0.01%\n     */\n    uint256 constant oneOfTenThousand = 1e14;\n    \n    /**\n     * @notice The fee charged by the contract on the accrued interest, 1 is 1 / 1e18\n     */\n    Exp public expFeeOfProtocol;\n    \n    /**\n     * @notice The amount of interest has been accrued per token address.\n     */\n    mapping(address => uint256) private earnings;\n\n    /*** Modifiers ***/\n    \n    /**\n     * Throws if the caller not sender or recipient of the stream.\n     */\n    modifier onlySenderOrRecipient(uint256 streamId) {\n        require(\n            msg.sender == installmentStreams[streamId].sender || msg.sender == installmentStreams[streamId].recipient,\n            \"caller is not the sender or the recipient of the stream\"\n        );\n        _;\n    }\n        \n    /**\n     * Throws if the streamId not exist.\n     */\n    modifier streamExists(uint256 streamId) {\n        require(installmentStreams[streamId].isEntity, \"stream does not exist\");\n        _;\n    }\n    \n    /*** Contract Logic Starts Here */\n\n    constructor() public {\n        OwnableWithoutRenounce.initialize(msg.sender);\n        PausableWithoutRenounce.initialize(msg.sender);\n        nextStreamId = 1;\n        symbol = 3000000;\n    }\n\n    /*** Owner Functions ***/\n\n    struct UpdateFeePerLocalVars {\n        MathError mathErr;\n        uint256 feePerMantissa;\n    }\n    \n    /**\n     * @notice update feeOfProtocolPer.\n     * @dev Throws if the caller is not owner.\n     * @param feePer The new feeOfProtocolPer.\n     */\n    function updateFeesOfProtocolPer(uint256 feePer) external onlyOwner{\n        require(feePer <= 10000, \"feePer higher than 100%\");\n        UpdateFeePerLocalVars memory vars;\n\n        (vars.mathErr, vars.feePerMantissa) = mulUInt(feePer, oneOfTenThousand);\n        assert(vars.mathErr == MathError.NO_ERROR);\n\n        expFeeOfProtocol = Exp({ mantissa:vars.feePerMantissa });\n        emit UpdateFee(feePer);    \n    }\n    \n    /**\n     * @notice Returns the amount of interest that has been accrued for the given token address.\n     * @param tokenAddress The address of the token to get the earnings for.\n     * @return The amount of interest as uint256.\n     */\n    function getEarnings(address tokenAddress) external view returns (uint256) {\n        return earnings[tokenAddress];\n    }\n    \n    struct TakeEarningsLocalVars {\n        MathError mathErr;\n    }\n    \n    /**\n     * @notice Withdraws the earnings for the given token address.\n     * @dev Throws if `amount` exceeds the available balance.\n     * @param tokenAddress The address of the token to withdraw earnings for.\n     * @param amount The amount of tokens to withdraw.\n     */\n    function takeEarnings(address tokenAddress, uint256 amount) external onlyOwner nonReentrant {\n        require(amount > 0, \"amount is zero\");\n        require(earnings[tokenAddress] >= amount, \"amount exceeds the available balance\");\n\n        TakeEarningsLocalVars memory vars;\n        \n        (vars.mathErr, earnings[tokenAddress]) = subUInt(earnings[tokenAddress], amount);\n        assert(vars.mathErr == MathError.NO_ERROR);\n\n        emit TakeEarnings(tokenAddress, amount);\n        require(IERC20(tokenAddress).transfer(msg.sender, amount), \"token transfer failure\");\n    }\n\n    struct InterestOfLocalVars{\n        MathError mathErr;\n        Exp feesOfRecipient;\n        Exp feesOfProtocol;\n    }\n\n    /**\n     * @notice calculation the fee charged of recipient,include the fee charged of feesOfProtocol.\n     * @dev Throw if the feesOfRecipient calculation has a math error.\n     * @param deposit The installment amount of the stream.\n     * feesOfRecipientPer The fee charged by the recipient on the accrued interest, 1 is 1 / 1e18\n     * duration The time interval of stopTime and starttime.\n     * numberOfInstallments The numbers of installments.\n     * @return The fee charged Of Recipient add deposit.\n     */\n    function calculationFees(uint256 deposit,uint256 feesOfRecipientPer,uint256 duration,uint256 numberOfInstallments)\n        internal\n        pure\n        returns(uint256)\n    {\n        InterestOfLocalVars memory vars;\n        vars.feesOfRecipient = Exp({mantissa:feesOfRecipientPer});\n        \n        (vars.mathErr,vars.feesOfRecipient) = mulScalar(vars.feesOfRecipient,deposit);\n        assert(vars.mathErr == MathError.NO_ERROR);\n\n        (vars.mathErr,vars.feesOfRecipient) = mulScalar(vars.feesOfRecipient,duration);\n        assert(vars.mathErr == MathError.NO_ERROR);\n\n        (vars.mathErr,vars.feesOfRecipient) = mulScalar(vars.feesOfRecipient,numberOfInstallments);\n        assert(vars.mathErr == MathError.NO_ERROR);\n        \n        uint256 fees = truncate(vars.feesOfRecipient);\n\n        uint256 installmentAmountWithFees;\n        (vars.mathErr,installmentAmountWithFees) = addUInt(fees,deposit);\n        assert(vars.mathErr == MathError.NO_ERROR);\n        \n        return installmentAmountWithFees;\n    }\n    \n    /**\n     * @notice calculation the fee charged of protocol.\n     * @dev Throw if the feesOfProtocol calculation has a math error.\n     * @param amount The amount is the recipient withdraw or cancel stream's.\n     * duration The time interval of stopTime and starttime.\n     * numberOfInstallments The numbers of installments.\n     * @return The fee charged Of Protocol.\n     */\n    function calculationFeesOfProtocol(uint256 amount)\n        public\n        view\n        returns(uint256)\n    {\n        InterestOfLocalVars memory vars;\n\n        (vars.mathErr,vars.feesOfProtocol) = mulScalar(expFeeOfProtocol,amount);\n        assert(vars.mathErr == MathError.NO_ERROR);\n        \n        return (truncate(vars.feesOfProtocol));\n    }\n    \n    /**\n     * @notice Returns the installmentStream with all its properties.\n     * @dev Throws if the streamId does not exist.\n     * @param streamId The id of the stream to query.\n     * @return The installmentStream object.\n     */\n    function getInstallmentStream(uint256 streamId) external view streamExists(streamId) returns(\n        address sender,\n        address recipient,\n        uint256 deposit,\n        address tokenAddress,\n        uint256 startTime,\n        uint256 stopTime,\n        uint256 numberOfInstallments,\n        uint256 feesOfRecipientPer,\n        uint256 haveBeenNumberOfInstallment,\n        uint256 haveBeenPaidAmount,\n        uint256 withdrawalAmount)\n    {\n        sender = installmentStreams[streamId].sender;\n        recipient = installmentStreams[streamId].recipient;\n        deposit = installmentStreams[streamId].deposit;\n        tokenAddress = installmentStreams[streamId].tokenAddress;\n        startTime = installmentStreams[streamId].startTime;\n        stopTime = installmentStreams[streamId].stopTime;\n        numberOfInstallments = installmentStreams[streamId].numberOfInstallments;\n        feesOfRecipientPer = installmentStreams[streamId].feesOfRecipientPer;  \n        haveBeenNumberOfInstallment = installmentStreams[streamId].haveBeenNumberOfInstallment;\n        haveBeenPaidAmount = installmentStreams[streamId].haveBeenPaidAmount;\n        withdrawalAmount = installmentStreams[streamId].withdrawalAmount;\n    }\n\n    function getInstallmentStreamCal(uint256 streamId) external view streamExists(streamId) returns(\n        uint256 installmentAmountWithFees,\n        uint256 oneOfInstallmentAmount,\n        uint256 oneOfInstallmentTime,\n        uint256 ratePerSecond)\n    {\n        installmentAmountWithFees = installmentStreams[streamId].installmentAmountWithFees;\n        oneOfInstallmentAmount = installmentStreams[streamId].oneOfInstallmentAmount;\n        oneOfInstallmentTime = installmentStreams[streamId].oneOfInstallmentTime;\n        ratePerSecond = installmentStreams[streamId].ratePerSecond;\n    }\n    \n    struct CreateInstallmentStreamLocalVars {\n        MathError mathErr;\n        uint256 duration;\n        uint256 oneOfInstallmentAmount;\n        uint256 oneOfInstallmentTime;\n        uint256 ratePerSecond;\n        uint256 haveBeenNumberOfInstallment;\n        uint256 haveBeenPaidAmount;\n    }\n    \n    /**\n     * @notice Create a installmentStream.\n     * @dev Throws if paused.\n     * Throw if the recipient is 0,the contract itself or the msg.sender.\n     * Throw if the deposit is 0.\n     * Throws if the start time is before `block.timestamp`.\n     * Throws if the stop time is before the start time.\n     * Throw if startTime is smaller than block.timestamp.\n     * Throw if maxAmount is smaller than ratePerSecond.\n     * Throw if deposit is smaller than numberOfInstallments.\n     * Throw if numberOfInstallments is less than 2.\n     * Throw if the streamId calculation has a math error.\n     * Throw if the duration calculation has a math error.\n     * Throw if the deposit is smaller than duration.\n     * Throws if the deposit is not a multiple of the duration.\n     * Throw if the oneOfInstallmentTime calculation has a math error.\n     * Throw if the installmentAmountWithFees calculation has a math error.\n     * Throw if the oneOfInstallmentAmount calculation has a math error.\n     * Throw if the ratePerSecond calculation has a math error.\n     * Throw if the nextStreamId calculation has a math error.\n     * Throw if the haveBeenNumberOfInstallment calculation has a math error.\n     * @param recipient The address of receipt stream money.\n     * deposit The amount of installment stream.\n     * tokenAddress The ERC20 token.\n     * startTime The time of stream start.\n     * stopTime The time of stream stop.\n     * numberOfInstallments The number of installments.\n     * feesOfRecipientPer The fee charged by the recipient on the accrued interest, 1 is 1 / 1e18.\n     * @return The id of the stream.\n     */\n    function createInstallmentStream(address recipient,uint256 deposit,address tokenAddress,uint256 startTime,\n    uint256 stopTime,uint256 numberOfInstallments,uint256 feesOfRecipientPer)\n        public\n        whenNotPaused\n        returns(uint256)\n    {\n        require(recipient != address(0x00),\"stream to the zero address\");\n        require(recipient != address(this),\"stream to the contract\");\n        require(recipient != msg.sender,\"stream to the caller\");\n        require(deposit > 0, \"deposit is zero\");\n        require(startTime >= block.timestamp, \"start time before block.timestamp\");\n        require(stopTime > startTime, \"stop time before the start time\");\n        require(deposit >= numberOfInstallments,\"numberOfInstallments bigger than deposit\");\n        require(numberOfInstallments >=2,\"numberOfInstallments is small 2\");\n        \n        CreateInstallmentStreamLocalVars memory vars;\n        \n        (vars.mathErr,vars.duration) = subUInt(stopTime,startTime);\n        assert(vars.mathErr == MathError.NO_ERROR);\n\n        require(deposit >= vars.duration,\"deposit smaller than time delta\");\n        require(vars.duration >= numberOfInstallments,\"duration < numberOfInstallmentStream\");\n        require(vars.duration % numberOfInstallments == 0,\"duration % numberOfInstallments have remainder\");\n        \n        uint256 installmentAmountWithFees = calculationFees(deposit,feesOfRecipientPer,vars.duration,numberOfInstallments);\n    \n        (vars.mathErr,vars.oneOfInstallmentAmount) = divUInt(installmentAmountWithFees,numberOfInstallments);\n        assert(vars.mathErr == MathError.NO_ERROR);\n        \n        (vars.mathErr,vars.oneOfInstallmentTime) = divUInt(vars.duration,numberOfInstallments);\n        assert(vars.mathErr == MathError.NO_ERROR);\n\n        (vars.mathErr,vars.ratePerSecond) = divUInt(vars.oneOfInstallmentAmount,vars.oneOfInstallmentTime);\n        assert(vars.mathErr == MathError.NO_ERROR);\n        \n        uint256 streamId;\n        (vars.mathErr,streamId) = addUInt(symbol,nextStreamId);\n        assert(vars.mathErr == MathError.NO_ERROR);\n\n        (vars.mathErr, vars.haveBeenNumberOfInstallment) = addUInt(vars.haveBeenNumberOfInstallment, uint256(1));\n        assert(vars.mathErr == MathError.NO_ERROR);\n\n        vars.haveBeenPaidAmount = vars.oneOfInstallmentAmount;\n\n        installmentStreams[streamId] = Types.InstallmentStream({\n            deposit:deposit,\n            installmentAmountWithFees:installmentAmountWithFees,\n            oneOfInstallmentAmount:vars.oneOfInstallmentAmount,\n            oneOfInstallmentTime:vars.oneOfInstallmentTime,\n            startTime:startTime,\n            stopTime:stopTime,\n            recipient:recipient,\n            sender:msg.sender,\n            numberOfInstallments:numberOfInstallments,\n            ratePerSecond:vars.ratePerSecond,\n            feesOfRecipientPer:feesOfRecipientPer,\n            haveBeenNumberOfInstallment:vars.haveBeenNumberOfInstallment,\n            haveBeenPaidAmount:vars.haveBeenPaidAmount,\n            withdrawalAmount:0,\n            tokenAddress:tokenAddress,\n            isEntity:true\n        });\n        \n        (vars.mathErr, nextStreamId) = addUInt(nextStreamId, uint256(1));\n        assert(vars.mathErr == MathError.NO_ERROR);\n\n        require(IERC20(tokenAddress).transferFrom(msg.sender, address(this), vars.oneOfInstallmentAmount), \"token transfer failure\");\n        \n        emit CreateInstallmentStream(streamId,msg.sender,recipient,deposit,tokenAddress,startTime,stopTime,numberOfInstallments,\n        feesOfRecipientPer,vars.haveBeenPaidAmount,installmentAmountWithFees);\n        return streamId;\n    } \n\n    /**\n     * @notice return the duration of the stream\n     * @dev Throws if the streamId does not exist.\n     * @param streamId The id of the stream to query.\n     * @return The duration of the stream's startTime to now.\n     */\n    function installmentDeltaOf(uint256 streamId)\n        public\n        view\n        streamExists(streamId)\n        returns(uint256)\n    {\n        Types.InstallmentStream memory installmentStream =  installmentStreams[streamId];\n        \n        if(block.timestamp <= installmentStream.startTime) return 0;\n        if(block.timestamp < installmentStream.stopTime) return block.timestamp - installmentStream.startTime;\n        return installmentStream.stopTime - installmentStream.startTime;\n    }\n    \n    struct InstallmentBalanceOfLocalVars {\n        MathError mathErr;\n        uint256 recipientBalance;\n        uint256 senderBalance;\n        uint256 handleBalance;\n        uint256 numberOfTime;\n        uint256 remainderOfInstallmentAmountWithFees;\n        uint256 remainderOfOneInstallment;\n    }\n\n    /**\n     * @notice return the accountBalance of sender or recipient.\n     * @dev Throws if the streamId does not exist.\n     * Throw if the handleBalance calculation has a math error.\n     * Throw if the recipientBalance calculation has a math error.\n     * Throw if the senderBalance calculation has a math error.\n     * @param streamId The id of the stream to query.\n     * who The account of the sender or recipient.\n     * @return The account balance of sender or recipient.\n     */\n    function installmentBalanceOf(uint256 streamId, address who)\n        public\n        view\n        streamExists(streamId)\n        returns (uint256 balance)\n    {\n        Types.InstallmentStream memory installmentStream = installmentStreams[streamId];\n        InstallmentBalanceOfLocalVars memory vars;\n        \n        uint256 delta = installmentDeltaOf(streamId);\n        \n        (vars.mathErr, vars.handleBalance) = mulUInt(delta,installmentStream.ratePerSecond);\n        assert(vars.mathErr == MathError.NO_ERROR);\n\n        if (delta >= installmentStream.oneOfInstallmentTime){\n            (vars.mathErr, vars.numberOfTime) = divUInt(delta,installmentStream.oneOfInstallmentTime);\n            assert(vars.mathErr == MathError.NO_ERROR);\n\n            if(vars.numberOfTime > installmentStream.haveBeenNumberOfInstallment){\n                vars.numberOfTime = installmentStream.haveBeenNumberOfInstallment;\n            }\n\n            (vars.mathErr,vars.remainderOfOneInstallment) = modUInt(installmentStream.oneOfInstallmentAmount,installmentStream.oneOfInstallmentTime);\n            assert(vars.mathErr == MathError.NO_ERROR);\n\n            (vars.mathErr,vars.remainderOfOneInstallment) = mulUInt(vars.numberOfTime,vars.remainderOfOneInstallment);\n            assert(vars.mathErr == MathError.NO_ERROR);\n\n            (vars.mathErr,vars.handleBalance) = addUInt(vars.handleBalance,vars.remainderOfOneInstallment);\n            assert(vars.mathErr == MathError.NO_ERROR);\n        }\n        \n        if (block.timestamp >= installmentStream.stopTime){\n            (vars.mathErr,vars.remainderOfInstallmentAmountWithFees) = modUInt(installmentStream.installmentAmountWithFees,installmentStream.numberOfInstallments);\n            assert(vars.mathErr == MathError.NO_ERROR);\n            \n            (vars.mathErr,vars.handleBalance) = addUInt(vars.handleBalance,vars.remainderOfInstallmentAmountWithFees);\n            assert(vars.mathErr == MathError.NO_ERROR);\n        }\n        \n        if (vars.handleBalance >= installmentStream.haveBeenPaidAmount){\n            vars.handleBalance = installmentStream.haveBeenPaidAmount;\n        }\n        \n        (vars.mathErr,vars.recipientBalance) = subUInt(vars.handleBalance,installmentStream.withdrawalAmount);\n        assert(vars.mathErr == MathError.NO_ERROR);\n\n        if (who == installmentStream.recipient) return vars.recipientBalance;\n        if (who == installmentStream.sender){\n            (vars.mathErr,vars.senderBalance) = subUInt(installmentStream.haveBeenPaidAmount,vars.handleBalance);\n            assert(vars.mathErr == MathError.NO_ERROR);\n\n            return vars.senderBalance;\n        }\n        return 0;\n    \n    }\n    \n    struct TransferLocalVars {\n        MathError mathErr;\n        uint256 transferAmount;\n        uint256 remainderOfInstallmentAmountWithFees;\n        uint256 nextStopInstallmentTime;\n        uint256 startOfInstallmentTime;\n    }\n\n    /**\n     * @notice transfer installment amount for continue stream.\n     * @dev Throws if paused.\n     * Throws if the streamId does not exist.\n     * Throws if the block.timestamp rather than nextStopInstallmentTime.\n     * Throw if the remainderOfInstallmentAmountWithFees calculation has a math error.\n     * Throw if the transferAmount calculation has a math error.\n     * Throw if the haveBeenNumberOfInstallment calculation has a math error.\n     * Throw if the haveBeenPaidAmount calculation has a math error.\n     * @param streamId The id of the stream to query.\n     * @return The bool of transfer.\n     */\n    function transferWithInstallment(uint256 streamId)\n        public\n        whenNotPaused\n        streamExists(streamId)\n        returns(bool)\n    {\n        TransferLocalVars memory vars;\n        Types.InstallmentStream memory installmentStream =  installmentStreams[streamId];\n\n        require(installmentStream.haveBeenNumberOfInstallment < installmentStream.numberOfInstallments,\"installment is finish\");\n        \n        (vars.mathErr,vars.nextStopInstallmentTime) = mulThenAddUint(installmentStream.oneOfInstallmentTime,installmentStream.haveBeenNumberOfInstallment,installmentStream.startTime);\n        assert(vars.mathErr == MathError.NO_ERROR);  \n        \n        require(block.timestamp < vars.nextStopInstallmentTime,\"installmentStream is finish,rather than StopInstallmentTime\");\n        \n        if (installmentStream.haveBeenNumberOfInstallment < installmentStream.numberOfInstallments - 1){\n            vars.transferAmount = installmentStream.oneOfInstallmentAmount;\n        }else if(installmentStream.haveBeenNumberOfInstallment == installmentStream.numberOfInstallments - 1){\n            (vars.mathErr,vars.remainderOfInstallmentAmountWithFees) = modUInt(installmentStream.installmentAmountWithFees,installmentStream.numberOfInstallments);\n            assert(vars.mathErr == MathError.NO_ERROR);\n            \n            (vars.mathErr,vars.transferAmount) = addUInt(installmentStream.oneOfInstallmentAmount,vars.remainderOfInstallmentAmountWithFees);\n            assert(vars.mathErr == MathError.NO_ERROR);\n        }\n        \n        (vars.mathErr, installmentStreams[streamId].haveBeenNumberOfInstallment) = addUInt(installmentStream.haveBeenNumberOfInstallment,uint256(1));\n        assert(vars.mathErr == MathError.NO_ERROR);\n        \n        (vars.mathErr, installmentStreams[streamId].haveBeenPaidAmount) = addUInt(installmentStream.haveBeenPaidAmount,vars.transferAmount);\n        assert(vars.mathErr == MathError.NO_ERROR);\n        \n        require(IERC20(installmentStream.tokenAddress).transferFrom(msg.sender, address(this), vars.transferAmount), \"token transfer failure\");\n        emit TransferWithInstallment(streamId,vars.transferAmount,installmentStreams[streamId].haveBeenPaidAmount,installmentStreams[streamId].haveBeenNumberOfInstallment);\n\n        return true;\n    }\n\n    /**\n     * @notice withdraw from stream.\n     * @dev Throws if paused.\n     * Throws if the streamId does not exist.\n     * Throw if caller is not recipient.\n     * Throw if the amount = 0.\n     * Throw if the amount is bigger than balance;\n     * @param streamId The id of the stream to query.\n     * amount The amount of withdraw from stream.\n     * @return The bool of transfer amount.\n     */\n    function withdrawInstallmentStream(uint256 streamId,uint256 amount)\n        external\n        whenNotPaused\n        nonReentrant\n        streamExists(streamId)\n        onlySenderOrRecipient(streamId)\n        returns(bool)\n    {\n        require(amount > 0,\"amount is zero\");\n        Types.InstallmentStream memory installmentStream =  installmentStreams[streamId];\n        uint256 balance = installmentBalanceOf(streamId,installmentStream.recipient);\n        require(balance >= amount,\"amount exceeds the available balance\");\n        \n        withdrawInstallmentStreamInterval(streamId,amount);\n        return true;\n    }\n    \n    struct WithdrawLocalVars {\n        MathError mathErr;\n        uint256 actualAmount;\n    }\n\n    /**\n     * @notice transfer withdraw amount to recipient.\n     * @dev Throws if the streamId does not exist.\n     * Throw if the withdrawalAmount calculation has a math error.\n     * @param streamId The id of the stream to query.\n     * amount The amount of withdraw from stream.\n     */\n    function withdrawInstallmentStreamInterval(uint256 streamId,uint256 amount) internal{\n        Types.InstallmentStream memory installmentStream =  installmentStreams[streamId];\n        WithdrawLocalVars memory vars;\n\n        (vars.mathErr,installmentStreams[streamId].withdrawalAmount) = addUInt(installmentStream.withdrawalAmount,amount);\n        assert(vars.mathErr == MathError.NO_ERROR);\n\n        uint256 feesOfProtocol = calculationFeesOfProtocol(amount);\n        \n        (vars.mathErr, earnings[installmentStream.tokenAddress]) = addUInt(earnings[installmentStream.tokenAddress], feesOfProtocol);\n        assert(vars.mathErr == MathError.NO_ERROR);\n        \n        (vars.mathErr, vars.actualAmount) = subUInt(amount, feesOfProtocol);\n        assert(vars.mathErr == MathError.NO_ERROR);\n\n        require(IERC20(installmentStream.tokenAddress).transfer(installmentStream.recipient, vars.actualAmount), \"token transfer failure\");\n        emit WithdrawFromInstallmentStream(streamId,installmentStream.recipient,amount,vars.actualAmount,feesOfProtocol);\n    }    \n\n\n    /**\n     * @notice Finish the stream.\n     * @dev Throws if the streamId does not exist.\n     * Throw if caller is not sender or recipient.\n     * @param streamId The id of the stream to query.\n     * @return The bool of transfer amount.\n     */\n    function cancelInstallmentStream(uint256 streamId)\n        external\n        nonReentrant\n        streamExists(streamId)\n        onlySenderOrRecipient(streamId)\n        returns(bool)\n    {\n        cancelInstallmentStreamInternal(streamId);\n        return true;\n    }\n    \n    struct CancelLocalVars {\n        MathError mathErr;\n        uint256 actualRecipientBalance;\n    }\n\n    /**\n     * @notice transfer amount to recipient and sender of finish stream account.\n     * @dev Throws if the streamId does not exist.\n     * @param streamId The id of the stream to query.\n     */\n    function cancelInstallmentStreamInternal(uint256 streamId) internal{\n        Types.InstallmentStream memory installmentStream =  installmentStreams[streamId];\n        CancelLocalVars memory vars;\n\n        uint256 senderBalance = installmentBalanceOf(streamId,installmentStream.sender);\n        uint256 recipientBalance = installmentBalanceOf(streamId,installmentStream.recipient);\n        uint256 feesOfProtocol = calculationFeesOfProtocol(recipientBalance);\n        \n        (vars.mathErr, earnings[installmentStream.tokenAddress]) = addUInt(earnings[installmentStream.tokenAddress], feesOfProtocol);\n        assert(vars.mathErr == MathError.NO_ERROR);\n\n        (vars.mathErr, vars.actualRecipientBalance) = subUInt(recipientBalance, feesOfProtocol);\n        assert(vars.mathErr == MathError.NO_ERROR);\n        \n        delete installmentStreams[streamId];\n        \n        IERC20 token = IERC20(installmentStream.tokenAddress);\n        if (recipientBalance > 0)\n            require(token.transfer(installmentStream.recipient, vars.actualRecipientBalance), \"recipient token transfer failure\");\n        if (senderBalance > 0) require(token.transfer(installmentStream.sender,senderBalance));\n        \n        emit CancelInstallmentStream(streamId,installmentStream.sender,installmentStream.recipient,senderBalance,recipientBalance,feesOfProtocol,block.timestamp);\n    }\n}",
  "sourcePath": "F:\\streampayv4\\contracts\\streamPayOfInstallment.sol",
  "compiler": {
    "name": "solc",
    "version": "0.5.16+commit.9c3226ce.Emscripten.clang"
  },
  "schemaVersion": "3.0.23",
  "updatedAt": "2020-09-15T09:46:43.385Z",
  "devdoc": {
    "author": "StreamPay",
    "methods": {
      "calculationFeesOfProtocol(uint256)": {
        "details": "Throw if the feesOfProtocol calculation has a math error.",
        "params": {
          "amount": "The amount is the recipient withdraw or cancel stream's. duration The time interval of stopTime and starttime. numberOfInstallments The numbers of installments."
        },
        "return": "The fee charged Of Protocol."
      },
      "cancelInstallmentStream(uint256)": {
        "details": "Throws if the streamId does not exist. Throw if caller is not sender or recipient.",
        "params": {
          "streamId": "The id of the stream to query."
        },
        "return": "The bool of transfer amount."
      },
      "createInstallmentStream(address,uint256,address,uint256,uint256,uint256,uint256)": {
        "details": "Throws if paused. Throw if the recipient is 0,the contract itself or the msg.sender. Throw if the deposit is 0. Throws if the start time is before `block.timestamp`. Throws if the stop time is before the start time. Throw if startTime is smaller than block.timestamp. Throw if maxAmount is smaller than ratePerSecond. Throw if deposit is smaller than numberOfInstallments. Throw if numberOfInstallments is less than 2. Throw if the streamId calculation has a math error. Throw if the duration calculation has a math error. Throw if the deposit is smaller than duration. Throws if the deposit is not a multiple of the duration. Throw if the oneOfInstallmentTime calculation has a math error. Throw if the installmentAmountWithFees calculation has a math error. Throw if the oneOfInstallmentAmount calculation has a math error. Throw if the ratePerSecond calculation has a math error. Throw if the nextStreamId calculation has a math error. Throw if the haveBeenNumberOfInstallment calculation has a math error.",
        "params": {
          "recipient": "The address of receipt stream money. deposit The amount of installment stream. tokenAddress The ERC20 token. startTime The time of stream start. stopTime The time of stream stop. numberOfInstallments The number of installments. feesOfRecipientPer The fee charged by the recipient on the accrued interest, 1 is 1 / 1e18."
        },
        "return": "The id of the stream."
      },
      "getEarnings(address)": {
        "params": {
          "tokenAddress": "The address of the token to get the earnings for."
        },
        "return": "The amount of interest as uint256."
      },
      "getInstallmentStream(uint256)": {
        "details": "Throws if the streamId does not exist.",
        "params": {
          "streamId": "The id of the stream to query."
        },
        "return": "The installmentStream object."
      },
      "initialize(address)": {
        "details": "Initializes the contract in unpaused state. Assigns the Pauser role to the deployer."
      },
      "installmentBalanceOf(uint256,address)": {
        "details": "Throws if the streamId does not exist. Throw if the handleBalance calculation has a math error. Throw if the recipientBalance calculation has a math error. Throw if the senderBalance calculation has a math error.",
        "params": {
          "streamId": "The id of the stream to query. who The account of the sender or recipient."
        },
        "return": "The account balance of sender or recipient."
      },
      "installmentDeltaOf(uint256)": {
        "details": "Throws if the streamId does not exist.",
        "params": {
          "streamId": "The id of the stream to query."
        },
        "return": "The duration of the stream's startTime to now."
      },
      "isOwner()": {
        "return": "true if `msg.sender` is the owner of the contract."
      },
      "owner()": {
        "return": "the address of the owner."
      },
      "pause()": {
        "details": "Called by a pauser to pause, triggers stopped state."
      },
      "paused()": {
        "details": "Returns true if the contract is paused, and false otherwise."
      },
      "takeEarnings(address,uint256)": {
        "details": "Throws if `amount` exceeds the available balance.",
        "params": {
          "amount": "The amount of tokens to withdraw.",
          "tokenAddress": "The address of the token to withdraw earnings for."
        }
      },
      "transferOwnership(address)": {
        "details": "Allows the current owner to transfer control of the contract to a newOwner.",
        "params": {
          "newOwner": "The address to transfer ownership to."
        }
      },
      "transferWithInstallment(uint256)": {
        "details": "Throws if paused. Throws if the streamId does not exist. Throws if the block.timestamp rather than nextStopInstallmentTime. Throw if the remainderOfInstallmentAmountWithFees calculation has a math error. Throw if the transferAmount calculation has a math error. Throw if the haveBeenNumberOfInstallment calculation has a math error. Throw if the haveBeenPaidAmount calculation has a math error.",
        "params": {
          "streamId": "The id of the stream to query."
        },
        "return": "The bool of transfer."
      },
      "unpause()": {
        "details": "Called by a pauser to unpause, returns to normal state."
      },
      "updateFeesOfProtocolPer(uint256)": {
        "details": "Throws if the caller is not owner.",
        "params": {
          "feePer": "The new feeOfProtocolPer."
        }
      },
      "withdrawInstallmentStream(uint256,uint256)": {
        "details": "Throws if paused. Throws if the streamId does not exist. Throw if caller is not recipient. Throw if the amount = 0. Throw if the amount is bigger than balance;",
        "params": {
          "streamId": "The id of the stream to query. amount The amount of withdraw from stream."
        },
        "return": "The bool of transfer amount."
      }
    },
    "title": "/StreamPay's money streaming of installmentStream."
  },
  "userdoc": {
    "methods": {
      "calculationFeesOfProtocol(uint256)": {
        "notice": "calculation the fee charged of protocol."
      },
      "cancelInstallmentStream(uint256)": {
        "notice": "Finish the stream."
      },
      "constructor": "* Contract Logic Starts Here ",
      "createInstallmentStream(address,uint256,address,uint256,uint256,uint256,uint256)": {
        "notice": "Create a installmentStream."
      },
      "getEarnings(address)": {
        "notice": "Returns the amount of interest that has been accrued for the given token address."
      },
      "getInstallmentStream(uint256)": {
        "notice": "Returns the installmentStream with all its properties."
      },
      "installmentBalanceOf(uint256,address)": {
        "notice": "return the accountBalance of sender or recipient."
      },
      "installmentDeltaOf(uint256)": {
        "notice": "return the duration of the stream"
      },
      "takeEarnings(address,uint256)": {
        "notice": "Withdraws the earnings for the given token address."
      },
      "transferWithInstallment(uint256)": {
        "notice": "transfer installment amount for continue stream."
      },
      "updateFeesOfProtocolPer(uint256)": {
        "notice": "update feeOfProtocolPer."
      },
      "withdrawInstallmentStream(uint256,uint256)": {
        "notice": "withdraw from stream."
      }
    }
  }
}