{
  "contractName": "OwnableWithoutRenounce",
  "abi": [
    {
      "anonymous": false,
      "inputs": [
        {
          "indexed": true,
          "internalType": "address",
          "name": "previousOwner",
          "type": "address"
        },
        {
          "indexed": true,
          "internalType": "address",
          "name": "newOwner",
          "type": "address"
        }
      ],
      "name": "OwnershipTransferred",
      "type": "event"
    },
    {
      "constant": false,
      "inputs": [
        {
          "internalType": "address",
          "name": "sender",
          "type": "address"
        }
      ],
      "name": "initialize",
      "outputs": [],
      "payable": false,
      "stateMutability": "nonpayable",
      "type": "function"
    },
    {
      "constant": true,
      "inputs": [],
      "name": "owner",
      "outputs": [
        {
          "internalType": "address",
          "name": "",
          "type": "address"
        }
      ],
      "payable": false,
      "stateMutability": "view",
      "type": "function"
    },
    {
      "constant": true,
      "inputs": [],
      "name": "isOwner",
      "outputs": [
        {
          "internalType": "bool",
          "name": "",
          "type": "bool"
        }
      ],
      "payable": false,
      "stateMutability": "view",
      "type": "function"
    },
    {
      "constant": false,
      "inputs": [
        {
          "internalType": "address",
          "name": "newOwner",
          "type": "address"
        }
      ],
      "name": "transferOwnership",
      "outputs": [],
      "payable": false,
      "stateMutability": "nonpayable",
      "type": "function"
    }
  ],
  "bytecode": "0x60806040526102ff806100136000396000f3fe608060405234801561001057600080fd5b506004361061004c5760003560e01c80638da5cb5b146100515780638f32d59b14610075578063c4d66de814610091578063f2fde38b146100b9575b600080fd5b6100596100df565b604080516001600160a01b039092168252519081900360200190f35b61007d6100ee565b604080519115158252519081900360200190f35b6100b7600480360360208110156100a757600080fd5b50356001600160a01b0316610114565b005b6100b7600480360360208110156100cf57600080fd5b50356001600160a01b0316610206565b6033546001600160a01b031690565b6033546000906001600160a01b0316610105610223565b6001600160a01b031614905090565b600054610100900460ff168061012d575061012d610227565b8061013b575060005460ff16155b6101765760405162461bcd60e51b815260040180806020018281038252602e81526020018061029d602e913960400191505060405180910390fd5b600054610100900460ff161580156101a1576000805460ff1961ff0019909116610100171660011790555b603380546001600160a01b0319166001600160a01b0384811691909117918290556040519116906000907f8be0079c531659141344cd1fd0a4f28419497f9722a3daafe3b4186f6b6457e0908290a38015610202576000805461ff00191690555b5050565b61020e6100ee565b61021757600080fd5b6102208161022d565b50565b3390565b303b1590565b6001600160a01b03811661024057600080fd5b6033546040516001600160a01b038084169216907f8be0079c531659141344cd1fd0a4f28419497f9722a3daafe3b4186f6b6457e090600090a3603380546001600160a01b0319166001600160a01b039290921691909117905556fe436f6e747261637420696e7374616e63652068617320616c7265616479206265656e20696e697469616c697a6564a265627a7a72315820fd6b783d205c57c3fd149c2391a3b048c246f879df27a7f8a47aee0307fd02d164736f6c63430005100032",
  "source": "pragma solidity 0.5.16;\r\n\r\nimport \"../../node_modules/@openzeppelin/contracts-ethereum-package/contracts/GSN/Context.sol\";\r\nimport \"../../node_modules/@openzeppelin/upgrades/contracts/Initializable.sol\";\r\n\r\n/**\r\n * @title OwnableWithoutRenounce\r\n * @author Sablier\r\n * @dev Fork of OpenZeppelin's Ownable contract, which provides basic authorization control, but with\r\n *  the `renounceOwnership` function removed to avoid fat-finger errors.\r\n *  We inherit from `Context` to keep this contract compatible with the Gas Station Network.\r\n * See https://github.com/OpenZeppelin/openzeppelin-contracts-ethereum-package/blob/master/contracts/ownership/Ownable.sol\r\n * See https://forum.openzeppelin.com/t/contract-request-ownable-without-renounceownership/1400\r\n * See https://docs.openzeppelin.com/contracts/2.x/gsn#_msg_sender_and_msg_data\r\n */\r\ncontract OwnableWithoutRenounce is Initializable, Context {\r\n    address private _owner;\r\n\r\n    event OwnershipTransferred(address indexed previousOwner, address indexed newOwner);\r\n\r\n    /**\r\n     * @dev The Ownable constructor sets the original `owner` of the contract to the sender\r\n     * account.\r\n     */\r\n    function initialize(address sender) public initializer {\r\n        _owner = sender;\r\n        emit OwnershipTransferred(address(0), _owner);\r\n    }\r\n\r\n\r\n    /**\r\n     * @return the address of the owner.\r\n     */\r\n    function owner() public view returns (address) {\r\n        return _owner;\r\n    }\r\n\r\n    /**\r\n     * @dev Throws if called by any account other than the owner.\r\n     */\r\n    modifier onlyOwner() {\r\n        require(isOwner());\r\n        _;\r\n    }\r\n\r\n    /**\r\n     * @return true if `msg.sender` is the owner of the contract.\r\n     */\r\n    function isOwner() public view returns (bool) {\r\n        return _msgSender() == _owner;\r\n    }\r\n\r\n    /**\r\n     * @dev Allows the current owner to transfer control of the contract to a newOwner.\r\n     * @param newOwner The address to transfer ownership to.\r\n     */\r\n    function transferOwnership(address newOwner) public onlyOwner {\r\n        _transferOwnership(newOwner);\r\n    }\r\n\r\n    /**\r\n     * @dev Transfers control of the contract to a newOwner.\r\n     * @param newOwner The address to transfer ownership to.\r\n     */\r\n    function _transferOwnership(address newOwner) internal {\r\n        require(newOwner != address(0));\r\n        emit OwnershipTransferred(_owner, newOwner);\r\n        _owner = newOwner;\r\n    }\r\n\r\n    uint256[50] private ______gap;\r\n}\r\n",
  "sourcePath": "F:\\streampayv4\\contracts\\tools-contracts\\OwnableWithoutRenounce.sol",
  "compiler": {
    "name": "solc",
    "version": "0.5.16+commit.9c3226ce.Emscripten.clang"
  },
  "schemaVersion": "3.0.23",
  "updatedAt": "2020-09-15T09:46:43.495Z",
  "devdoc": {
    "author": "Sablier",
    "details": "Fork of OpenZeppelin's Ownable contract, which provides basic authorization control, but with the `renounceOwnership` function removed to avoid fat-finger errors. We inherit from `Context` to keep this contract compatible with the Gas Station Network. See https://github.com/OpenZeppelin/openzeppelin-contracts-ethereum-package/blob/master/contracts/ownership/Ownable.sol See https://forum.openzeppelin.com/t/contract-request-ownable-without-renounceownership/1400 See https://docs.openzeppelin.com/contracts/2.x/gsn#_msg_sender_and_msg_data",
    "methods": {
      "initialize(address)": {
        "details": "The Ownable constructor sets the original `owner` of the contract to the sender account."
      },
      "isOwner()": {
        "return": "true if `msg.sender` is the owner of the contract."
      },
      "owner()": {
        "return": "the address of the owner."
      },
      "transferOwnership(address)": {
        "details": "Allows the current owner to transfer control of the contract to a newOwner.",
        "params": {
          "newOwner": "The address to transfer ownership to."
        }
      }
    },
    "title": "OwnableWithoutRenounce"
  },
  "userdoc": {
    "methods": {}
  }
}