{
  "contractName": "PauserRoleWithoutRenounce",
  "abi": [
    {
      "anonymous": false,
      "inputs": [
        {
          "indexed": true,
          "internalType": "address",
          "name": "account",
          "type": "address"
        }
      ],
      "name": "PauserAdded",
      "type": "event"
    },
    {
      "anonymous": false,
      "inputs": [
        {
          "indexed": true,
          "internalType": "address",
          "name": "account",
          "type": "address"
        }
      ],
      "name": "PauserRemoved",
      "type": "event"
    },
    {
      "constant": false,
      "inputs": [
        {
          "internalType": "address",
          "name": "sender",
          "type": "address"
        }
      ],
      "name": "initialize",
      "outputs": [],
      "payable": false,
      "stateMutability": "nonpayable",
      "type": "function"
    },
    {
      "constant": true,
      "inputs": [
        {
          "internalType": "address",
          "name": "account",
          "type": "address"
        }
      ],
      "name": "isPauser",
      "outputs": [
        {
          "internalType": "bool",
          "name": "",
          "type": "bool"
        }
      ],
      "payable": false,
      "stateMutability": "view",
      "type": "function"
    },
    {
      "constant": false,
      "inputs": [
        {
          "internalType": "address",
          "name": "account",
          "type": "address"
        }
      ],
      "name": "addPauser",
      "outputs": [],
      "payable": false,
      "stateMutability": "nonpayable",
      "type": "function"
    }
  ],
  "bytecode": "0x60806040526103e6806100136000396000f3fe608060405234801561001057600080fd5b50600436106100415760003560e01c806346fbf68e1461004657806382dc1ec414610080578063c4d66de8146100a8575b600080fd5b61006c6004803603602081101561005c57600080fd5b50356001600160a01b03166100ce565b604080519115158252519081900360200190f35b6100a66004803603602081101561009657600080fd5b50356001600160a01b03166100e7565b005b6100a6600480360360208110156100be57600080fd5b50356001600160a01b031661013e565b60006100e160338363ffffffff6101f716565b92915050565b6100f76100f261025e565b6100ce565b6101325760405162461bcd60e51b81526004018080602001828103825260308152602001806103326030913960400191505060405180910390fd5b61013b81610262565b50565b600054610100900460ff168061015757506101576102aa565b80610165575060005460ff16155b6101a05760405162461bcd60e51b815260040180806020018281038252602e815260200180610384602e913960400191505060405180910390fd5b600054610100900460ff161580156101cb576000805460ff1961ff0019909116610100171660011790555b6101d4826100ce565b6101e1576101e182610262565b80156101f3576000805461ff00191690555b5050565b60006001600160a01b03821661023e5760405162461bcd60e51b81526004018080602001828103825260228152602001806103626022913960400191505060405180910390fd5b506001600160a01b03166000908152602091909152604090205460ff1690565b3390565b61027360338263ffffffff6102b016565b6040516001600160a01b038216907f6719d08c1888103bea251a4ed56406bd0c3e69723c8a1686e017e7bbe159b6f890600090a250565b303b1590565b6102ba82826101f7565b1561030c576040805162461bcd60e51b815260206004820152601f60248201527f526f6c65733a206163636f756e7420616c72656164792068617320726f6c6500604482015290519081900360640190fd5b6001600160a01b0316600090815260209190915260409020805460ff1916600117905556fe506175736572526f6c653a2063616c6c657220646f6573206e6f742068617665207468652050617573657220726f6c65526f6c65733a206163636f756e7420697320746865207a65726f2061646472657373436f6e747261637420696e7374616e63652068617320616c7265616479206265656e20696e697469616c697a6564a265627a7a7231582017c08a617add2330887440f29ff174f7a8075d9f3ba10a89a6a884b6e808b75064736f6c63430005100032",
  "source": "pragma solidity 0.5.16;\r\n\r\nimport \"../../node_modules/@openzeppelin/contracts-ethereum-package/contracts/GSN/Context.sol\";\r\nimport \"../../node_modules/@openzeppelin/contracts-ethereum-package/contracts/access/Roles.sol\";\r\nimport \"../../node_modules/@openzeppelin/upgrades/contracts/Initializable.sol\";\r\n\r\n/**\r\n * @title PauserRoleWithoutRenounce\r\n * @author Sablier\r\n * @notice Fork of OpenZeppelin's PauserRole, but with the `renouncePauser` function removed to avoid fat-finger errors.\r\n *  We inherit from `Context` to keep this contract compatible with the Gas Station Network.\r\n * See https://github.com/OpenZeppelin/openzeppelin-contracts-ethereum-package/blob/master/contracts/access/roles/PauserRole.sol\r\n */\r\n\r\ncontract PauserRoleWithoutRenounce is Initializable, Context {\r\n    using Roles for Roles.Role;\r\n\r\n    event PauserAdded(address indexed account);\r\n    event PauserRemoved(address indexed account);\r\n\r\n    Roles.Role private _pausers;\r\n\r\n    function initialize(address sender) public initializer {\r\n        if (!isPauser(sender)) {\r\n            _addPauser(sender);\r\n        }\r\n    }\r\n\r\n    modifier onlyPauser() {\r\n        require(isPauser(_msgSender()), \"PauserRole: caller does not have the Pauser role\");\r\n        _;\r\n    }\r\n\r\n    function isPauser(address account) public view returns (bool) {\r\n        return _pausers.has(account);\r\n    }\r\n\r\n    function addPauser(address account) public onlyPauser {\r\n        _addPauser(account);\r\n    }\r\n\r\n    function _addPauser(address account) internal {\r\n        _pausers.add(account);\r\n        emit PauserAdded(account);\r\n    }\r\n\r\n    function _removePauser(address account) internal {\r\n        _pausers.remove(account);\r\n        emit PauserRemoved(account);\r\n    }\r\n\r\n    uint256[50] private ______gap;\r\n}\r\n",
  "sourcePath": "F:\\streampayv4\\contracts\\tools-contracts\\PauserRoleWithoutRenounce.sol",
  "compiler": {
    "name": "solc",
    "version": "0.5.16+commit.9c3226ce.Emscripten.clang"
  },
  "schemaVersion": "3.0.23",
  "updatedAt": "2020-09-15T09:46:43.500Z",
  "devdoc": {
    "author": "Sablier",
    "methods": {},
    "title": "PauserRoleWithoutRenounce"
  },
  "userdoc": {
    "methods": {},
    "notice": "Fork of OpenZeppelin's PauserRole, but with the `renouncePauser` function removed to avoid fat-finger errors. We inherit from `Context` to keep this contract compatible with the Gas Station Network. See https://github.com/OpenZeppelin/openzeppelin-contracts-ethereum-package/blob/master/contracts/access/roles/PauserRole.sol"
  }
}