{
  "contractName": "Sablier",
  "abi": [
    {
      "inputs": [],
      "payable": false,
      "stateMutability": "nonpayable",
      "type": "constructor"
    },
    {
      "anonymous": false,
      "inputs": [
        {
          "indexed": true,
          "internalType": "uint256",
          "name": "streamId",
          "type": "uint256"
        },
        {
          "indexed": true,
          "internalType": "address",
          "name": "sender",
          "type": "address"
        },
        {
          "indexed": true,
          "internalType": "address",
          "name": "recipient",
          "type": "address"
        },
        {
          "indexed": false,
          "internalType": "uint256",
          "name": "senderBalance",
          "type": "uint256"
        },
        {
          "indexed": false,
          "internalType": "uint256",
          "name": "recipientBalance",
          "type": "uint256"
        },
        {
          "indexed": false,
          "internalType": "uint256",
          "name": "timestamp",
          "type": "uint256"
        }
      ],
      "name": "CancelStream",
      "type": "event"
    },
    {
      "anonymous": false,
      "inputs": [
        {
          "indexed": true,
          "internalType": "uint256",
          "name": "streamId",
          "type": "uint256"
        },
        {
          "indexed": true,
          "internalType": "address",
          "name": "sender",
          "type": "address"
        },
        {
          "indexed": true,
          "internalType": "address",
          "name": "recipient",
          "type": "address"
        },
        {
          "indexed": false,
          "internalType": "uint256",
          "name": "deposit",
          "type": "uint256"
        },
        {
          "indexed": false,
          "internalType": "address",
          "name": "tokenAddress",
          "type": "address"
        },
        {
          "indexed": false,
          "internalType": "uint256",
          "name": "startTime",
          "type": "uint256"
        },
        {
          "indexed": false,
          "internalType": "uint256",
          "name": "stopTime",
          "type": "uint256"
        }
      ],
      "name": "CreateStream",
      "type": "event"
    },
    {
      "anonymous": false,
      "inputs": [
        {
          "indexed": true,
          "internalType": "address",
          "name": "previousOwner",
          "type": "address"
        },
        {
          "indexed": true,
          "internalType": "address",
          "name": "newOwner",
          "type": "address"
        }
      ],
      "name": "OwnershipTransferred",
      "type": "event"
    },
    {
      "anonymous": false,
      "inputs": [
        {
          "indexed": false,
          "internalType": "address",
          "name": "account",
          "type": "address"
        }
      ],
      "name": "Paused",
      "type": "event"
    },
    {
      "anonymous": false,
      "inputs": [
        {
          "indexed": true,
          "internalType": "address",
          "name": "account",
          "type": "address"
        }
      ],
      "name": "PauserAdded",
      "type": "event"
    },
    {
      "anonymous": false,
      "inputs": [
        {
          "indexed": true,
          "internalType": "address",
          "name": "account",
          "type": "address"
        }
      ],
      "name": "PauserRemoved",
      "type": "event"
    },
    {
      "anonymous": false,
      "inputs": [
        {
          "indexed": false,
          "internalType": "address",
          "name": "account",
          "type": "address"
        }
      ],
      "name": "Unpaused",
      "type": "event"
    },
    {
      "anonymous": false,
      "inputs": [
        {
          "indexed": true,
          "internalType": "uint256",
          "name": "streamId",
          "type": "uint256"
        },
        {
          "indexed": true,
          "internalType": "address",
          "name": "recipient",
          "type": "address"
        },
        {
          "indexed": false,
          "internalType": "uint256",
          "name": "amount",
          "type": "uint256"
        }
      ],
      "name": "WithdrawFromStream",
      "type": "event"
    },
    {
      "constant": false,
      "inputs": [
        {
          "internalType": "address",
          "name": "account",
          "type": "address"
        }
      ],
      "name": "addPauser",
      "outputs": [],
      "payable": false,
      "stateMutability": "nonpayable",
      "type": "function"
    },
    {
      "constant": false,
      "inputs": [],
      "name": "initialize",
      "outputs": [],
      "payable": false,
      "stateMutability": "nonpayable",
      "type": "function"
    },
    {
      "constant": false,
      "inputs": [
        {
          "internalType": "address",
          "name": "sender",
          "type": "address"
        }
      ],
      "name": "initialize",
      "outputs": [],
      "payable": false,
      "stateMutability": "nonpayable",
      "type": "function"
    },
    {
      "constant": true,
      "inputs": [],
      "name": "isOwner",
      "outputs": [
        {
          "internalType": "bool",
          "name": "",
          "type": "bool"
        }
      ],
      "payable": false,
      "stateMutability": "view",
      "type": "function"
    },
    {
      "constant": true,
      "inputs": [
        {
          "internalType": "address",
          "name": "account",
          "type": "address"
        }
      ],
      "name": "isPauser",
      "outputs": [
        {
          "internalType": "bool",
          "name": "",
          "type": "bool"
        }
      ],
      "payable": false,
      "stateMutability": "view",
      "type": "function"
    },
    {
      "constant": true,
      "inputs": [],
      "name": "nextStreamId",
      "outputs": [
        {
          "internalType": "uint256",
          "name": "",
          "type": "uint256"
        }
      ],
      "payable": false,
      "stateMutability": "view",
      "type": "function"
    },
    {
      "constant": true,
      "inputs": [],
      "name": "owner",
      "outputs": [
        {
          "internalType": "address",
          "name": "",
          "type": "address"
        }
      ],
      "payable": false,
      "stateMutability": "view",
      "type": "function"
    },
    {
      "constant": false,
      "inputs": [],
      "name": "pause",
      "outputs": [],
      "payable": false,
      "stateMutability": "nonpayable",
      "type": "function"
    },
    {
      "constant": true,
      "inputs": [],
      "name": "paused",
      "outputs": [
        {
          "internalType": "bool",
          "name": "",
          "type": "bool"
        }
      ],
      "payable": false,
      "stateMutability": "view",
      "type": "function"
    },
    {
      "constant": false,
      "inputs": [
        {
          "internalType": "address",
          "name": "newOwner",
          "type": "address"
        }
      ],
      "name": "transferOwnership",
      "outputs": [],
      "payable": false,
      "stateMutability": "nonpayable",
      "type": "function"
    },
    {
      "constant": false,
      "inputs": [],
      "name": "unpause",
      "outputs": [],
      "payable": false,
      "stateMutability": "nonpayable",
      "type": "function"
    },
    {
      "constant": true,
      "inputs": [
        {
          "internalType": "uint256",
          "name": "streamId",
          "type": "uint256"
        }
      ],
      "name": "getStream",
      "outputs": [
        {
          "internalType": "address",
          "name": "sender",
          "type": "address"
        },
        {
          "internalType": "address",
          "name": "recipient",
          "type": "address"
        },
        {
          "internalType": "uint256",
          "name": "deposit",
          "type": "uint256"
        },
        {
          "internalType": "address",
          "name": "tokenAddress",
          "type": "address"
        },
        {
          "internalType": "uint256",
          "name": "startTime",
          "type": "uint256"
        },
        {
          "internalType": "uint256",
          "name": "stopTime",
          "type": "uint256"
        },
        {
          "internalType": "uint256",
          "name": "remainingBalance",
          "type": "uint256"
        },
        {
          "internalType": "uint256",
          "name": "ratePerSecond",
          "type": "uint256"
        }
      ],
      "payable": false,
      "stateMutability": "view",
      "type": "function"
    },
    {
      "constant": true,
      "inputs": [
        {
          "internalType": "uint256",
          "name": "streamId",
          "type": "uint256"
        }
      ],
      "name": "deltaOf",
      "outputs": [
        {
          "internalType": "uint256",
          "name": "delta",
          "type": "uint256"
        }
      ],
      "payable": false,
      "stateMutability": "view",
      "type": "function"
    },
    {
      "constant": true,
      "inputs": [
        {
          "internalType": "uint256",
          "name": "streamId",
          "type": "uint256"
        },
        {
          "internalType": "address",
          "name": "who",
          "type": "address"
        }
      ],
      "name": "balanceOf",
      "outputs": [
        {
          "internalType": "uint256",
          "name": "balance",
          "type": "uint256"
        }
      ],
      "payable": false,
      "stateMutability": "view",
      "type": "function"
    },
    {
      "constant": false,
      "inputs": [
        {
          "internalType": "address",
          "name": "recipient",
          "type": "address"
        },
        {
          "internalType": "uint256",
          "name": "deposit",
          "type": "uint256"
        },
        {
          "internalType": "address",
          "name": "tokenAddress",
          "type": "address"
        },
        {
          "internalType": "uint256",
          "name": "startTime",
          "type": "uint256"
        },
        {
          "internalType": "uint256",
          "name": "stopTime",
          "type": "uint256"
        }
      ],
      "name": "createStream",
      "outputs": [
        {
          "internalType": "uint256",
          "name": "",
          "type": "uint256"
        }
      ],
      "payable": false,
      "stateMutability": "nonpayable",
      "type": "function"
    },
    {
      "constant": false,
      "inputs": [
        {
          "internalType": "uint256",
          "name": "streamId",
          "type": "uint256"
        },
        {
          "internalType": "uint256",
          "name": "amount",
          "type": "uint256"
        }
      ],
      "name": "withdrawFromStream",
      "outputs": [
        {
          "internalType": "bool",
          "name": "",
          "type": "bool"
        }
      ],
      "payable": false,
      "stateMutability": "nonpayable",
      "type": "function"
    },
    {
      "constant": false,
      "inputs": [
        {
          "internalType": "uint256",
          "name": "streamId",
          "type": "uint256"
        }
      ],
      "name": "cancelStream",
      "outputs": [
        {
          "internalType": "bool",
          "name": "",
          "type": "bool"
        }
      ],
      "payable": false,
      "stateMutability": "nonpayable",
      "type": "function"
    }
  ],
  "bytecode": "0x60806040523480156200001157600080fd5b5062000028336200005060201b620021891760201c565b6200003e336200015360201b620010811760201c565b600160cd55620f424060ce5562000477565b600054610100900460ff1680620000755750620000756001600160e01b036200022616565b8062000084575060005460ff16155b620000c15760405162461bcd60e51b815260040180806020018281038252602e81526020018062002877602e913960400191505060405180910390fd5b600054610100900460ff16158015620000ed576000805460ff1961ff0019909116610100171660011790555b603380546001600160a01b0319166001600160a01b0384811691909117918290556040519116906000907f8be0079c531659141344cd1fd0a4f28419497f9722a3daafe3b4186f6b6457e0908290a380156200014f576000805461ff00191690555b5050565b600054610100900460ff1680620001785750620001786001600160e01b036200022616565b8062000187575060005460ff16155b620001c45760405162461bcd60e51b815260040180806020018281038252602e81526020018062002877602e913960400191505060405180910390fd5b600054610100900460ff16158015620001f0576000805460ff1961ff0019909116610100171660011790555b62000206826200022c60201b62001ee21760201c565b6099805460ff1916905580156200014f576000805461ff00191690555050565b303b1590565b600054610100900460ff1680620002515750620002516001600160e01b036200022616565b8062000260575060005460ff16155b6200029d5760405162461bcd60e51b815260040180806020018281038252602e81526020018062002877602e913960400191505060405180910390fd5b600054610100900460ff16158015620002c9576000805460ff1961ff0019909116610100171660011790555b620002dd826001600160e01b036200030c16565b620002f657620002f6826001600160e01b036200032f16565b80156200014f576000805461ff00191690555050565b6000620003298260666200038160201b620018991790919060201c565b92915050565b6200034a816066620003ea60201b620020341790919060201c565b6040516001600160a01b038216907f6719d08c1888103bea251a4ed56406bd0c3e69723c8a1686e017e7bbe159b6f890600090a250565b60006001600160a01b038216620003ca5760405162461bcd60e51b8152600401808060200182810382526022815260200180620028556022913960400191505060405180910390fd5b506001600160a01b03166000908152602091909152604090205460ff1690565b620003ff82826001600160e01b036200038116565b1562000452576040805162461bcd60e51b815260206004820152601f60248201527f526f6c65733a206163636f756e7420616c72656164792068617320726f6c6500604482015290519081900360640190fd5b6001600160a01b0316600090815260209190915260409020805460ff19166001179055565b6123ce80620004876000396000f3fe608060405234801561001057600080fd5b506004361061010b5760003560e01c806382dc1ec4116100a25780638f32d59b116100715780638f32d59b146102ac578063a82ccd4d146102b4578063c4d66de8146102d1578063cc1b4bf6146102f7578063f2fde38b146103375761010b565b806382dc1ec4146101ea5780638456cb5914610210578063894e9a0d146102185780638da5cb5b146102885761010b565b80635c975abb116100de5780635c975abb1461019a5780636db9241b146101a25780637a9b2c6c146101bf5780638129fc1c146101e25761010b565b80631e99d569146101105780633656eec21461012a5780633f4ba83a1461015657806346fbf68e14610160575b600080fd5b61011861035d565b60408051918252519081900360200190f35b6101186004803603604081101561014057600080fd5b50803590602001356001600160a01b0316610363565b61015e61072d565b005b6101866004803603602081101561017657600080fd5b50356001600160a01b0316610816565b604080519115158252519081900360200190f35b61018661082f565b610186600480360360208110156101b857600080fd5b5035610838565b610186600480360360408110156101d557600080fd5b5080359060200135610996565b61015e610c72565b61015e6004803603602081101561020057600080fd5b50356001600160a01b0316610d19565b61015e610d68565b6102356004803603602081101561022e57600080fd5b5035610e2f565b604080516001600160a01b03998a168152978916602089015287810196909652939096166060860152608085019190915260a084015260c083019390935260e08201929092529051908190036101000190f35b610290610f05565b604080516001600160a01b039092168252519081900360200190f35b610186610f14565b610118600480360360208110156102ca57600080fd5b5035610f3a565b61015e600480360360208110156102e757600080fd5b50356001600160a01b0316611081565b610118600480360360a081101561030d57600080fd5b506001600160a01b0381358116916020810135916040820135169060608101359060800135611137565b61015e6004803603602081101561034d57600080fd5b50356001600160a01b03166117c5565b60cd5481565b600082815260cf60205260408120600801548390600160a01b900460ff166103ca576040805162461bcd60e51b81526020600482015260156024820152741cdd1c99585b48191bd95cc81b9bdd08195e1a5cdd605a1b604482015290519081900360640190fd5b6103d26120b5565b50600084815260cf6020908152604091829020825161014081018452815481526001820154928101929092526002810154928201929092526003820154606082015260048201546080820152600582015460a082015260068201546001600160a01b0390811660c08301526007830154811660e0830152600890920154918216610100820152600160a01b90910460ff161515610120820152610473612125565b600061047e87610f3a565b905061048e8184602001516117df565b60208401819052838260038111156104a257fe5b60038111156104ad57fe5b90525060009050825160038111156104c157fe5b146104fd5760405162461bcd60e51b81526004018080602001828103825260238152602001806123406023913960400191505060405180910390fd5b8260a0015142106105d55761051a83600001518460400151611821565b608084018190528382600381111561052e57fe5b600381111561053957fe5b905250600090508251600381111561054d57fe5b1461055457fe5b6105668260800151836020015161184c565b602084018190528382600381111561057a57fe5b600381111561058557fe5b905250600090508251600381111561059957fe5b146105d55760405162461bcd60e51b81526004018080602001828103825260238152602001806123406023913960400191505060405180910390fd5b60608301518351111561067a576105f483600001518460600151611872565b604084018190528382600381111561060857fe5b600381111561061357fe5b905250600090508251600381111561062757fe5b1461062e57fe5b61064082602001518360400151611872565b602084018190528382600381111561065457fe5b600381111561065f57fe5b905250600090508251600381111561067357fe5b1461067a57fe5b8260c001516001600160a01b0316866001600160a01b031614156106a657506020015192506107269050565b8260e001516001600160a01b0316866001600160a01b0316141561071e576106d683606001518360200151611872565b60608401819052838260038111156106ea57fe5b60038111156106f557fe5b905250600090508251600381111561070957fe5b1461071057fe5b506060015192506107269050565b600094505050505b5092915050565b61073d610738611895565b610816565b6107785760405162461bcd60e51b815260040180806020018281038252603081526020018061227b6030913960400191505060405180910390fd5b60995460ff166107c6576040805162461bcd60e51b815260206004820152601460248201527314185d5cd8589b194e881b9bdd081c185d5cd95960621b604482015290519081900360640190fd5b6099805460ff191690557f5db9ee0a495bf2e6ff9c91a7834c1ba4fdd244a5e8aa4e537bd38aeae4b073aa6107f9611895565b604080516001600160a01b039092168252519081900360200190a1565b600061082960668363ffffffff61189916565b92915050565b60995460ff1690565b609a805460010190819055600082815260cf60205260408120600801549091908390600160a01b900460ff166108ad576040805162461bcd60e51b81526020600482015260156024820152741cdd1c99585b48191bd95cc81b9bdd08195e1a5cdd605a1b604482015290519081900360640190fd5b600084815260cf602052604090206007015484906001600160a01b03163314806108f05750600081815260cf60205260409020600601546001600160a01b031633145b61092b5760405162461bcd60e51b81526004018080602001828103825260378152602001806123636037913960400191505060405180910390fd5b61093485611900565b600193505050609a548114610990576040805162461bcd60e51b815260206004820152601f60248201527f5265656e7472616e637947756172643a207265656e7472616e742063616c6c00604482015290519081900360640190fd5b50919050565b60995460009060ff16156109e4576040805162461bcd60e51b815260206004820152601060248201526f14185d5cd8589b194e881c185d5cd95960821b604482015290519081900360640190fd5b609a805460010190819055600084815260cf60205260409020600801548490600160a01b900460ff16610a56576040805162461bcd60e51b81526020600482015260156024820152741cdd1c99585b48191bd95cc81b9bdd08195e1a5cdd605a1b604482015290519081900360640190fd5b600085815260cf602052604090206007015485906001600160a01b0316331480610a995750600081815260cf60205260409020600601546001600160a01b031633145b610ad45760405162461bcd60e51b81526004018080602001828103825260378152602001806123636037913960400191505060405180910390fd5b60008511610b1a576040805162461bcd60e51b815260206004820152600e60248201526d616d6f756e74206973207a65726f60901b604482015290519081900360640190fd5b610b226120b5565b50600086815260cf60209081526040808320815161014081018352815481526001820154938101939093526002810154918301919091526003810154606083015260048101546080830152600581015460a083015260068101546001600160a01b0390811660c084018190526007830154821660e0850152600890920154908116610100840152600160a01b900460ff161515610120830152909190610bc9908990610363565b905086811015610c0a5760405162461bcd60e51b81526004018080602001828103825260248152602001806122ab6024913960400191505060405180910390fd5b610c148888611c69565b6001955050505050609a548114610726576040805162461bcd60e51b815260206004820152601f60248201527f5265656e7472616e637947756172643a207265656e7472616e742063616c6c00604482015290519081900360640190fd5b600054610100900460ff1680610c8b5750610c8b611e94565b80610c99575060005460ff16155b610cd45760405162461bcd60e51b815260040180806020018281038252602e815260200180612312602e913960400191505060405180910390fd5b600054610100900460ff16158015610cff576000805460ff1961ff0019909116610100171660011790555b6001609a558015610d16576000805461ff00191690555b50565b610d24610738611895565b610d5f5760405162461bcd60e51b815260040180806020018281038252603081526020018061227b6030913960400191505060405180910390fd5b610d1681611e9a565b610d73610738611895565b610dae5760405162461bcd60e51b815260040180806020018281038252603081526020018061227b6030913960400191505060405180910390fd5b60995460ff1615610df9576040805162461bcd60e51b815260206004820152601060248201526f14185d5cd8589b194e881c185d5cd95960821b604482015290519081900360640190fd5b6099805460ff191660011790557f62e78cea01bee320cd4e420270b5ea74000d11b0c9f74754ebdbfc544b05a2586107f9611895565b6000806000806000806000808860cf600082815260200190815260200160002060080160149054906101000a900460ff16610ea9576040805162461bcd60e51b81526020600482015260156024820152741cdd1c99585b48191bd95cc81b9bdd08195e1a5cdd605a1b604482015290519081900360640190fd5b5050506000968752505060cf6020525050604090922060078101546006820154825460088401546004850154600586015460038701546001909701546001600160a01b039687169a958716995093975091909416949092909190565b6033546001600160a01b031690565b6033546000906001600160a01b0316610f2b611895565b6001600160a01b031614905090565b600081815260cf60205260408120600801548290600160a01b900460ff16610fa1576040805162461bcd60e51b81526020600482015260156024820152741cdd1c99585b48191bd95cc81b9bdd08195e1a5cdd605a1b604482015290519081900360640190fd5b610fa96120b5565b50600083815260cf60209081526040918290208251610140810184528154815260018201549281019290925260028101549282019290925260038201546060820152600482015460808201819052600583015460a083015260068301546001600160a01b0390811660c08401526007840154811660e0840152600890930154928316610100830152600160a01b90920460ff161515610120820152904211611055576000925050610990565b8060a0015142101561106e576080015142039150610990565b608081015160a090910151039392505050565b600054610100900460ff168061109a575061109a611e94565b806110a8575060005460ff16155b6110e35760405162461bcd60e51b815260040180806020018281038252602e815260200180612312602e913960400191505060405180910390fd5b600054610100900460ff1615801561110e576000805460ff1961ff0019909116610100171660011790555b61111782611ee2565b6099805460ff191690558015611133576000805461ff00191690555b5050565b60995460009060ff1615611185576040805162461bcd60e51b815260206004820152601060248201526f14185d5cd8589b194e881c185d5cd95960821b604482015290519081900360640190fd5b6001600160a01b0386166111e0576040805162461bcd60e51b815260206004820152601a60248201527f73747265616d20746f20746865207a65726f2061646472657373000000000000604482015290519081900360640190fd5b6001600160a01b03861630141561123e576040805162461bcd60e51b815260206004820152601d60248201527f73747265616d20746f2074686520636f6e747261637420697473656c66000000604482015290519081900360640190fd5b6001600160a01b038616331415611293576040805162461bcd60e51b815260206004820152601460248201527339ba3932b0b6903a37903a34329031b0b63632b960611b604482015290519081900360640190fd5b600085116112da576040805162461bcd60e51b815260206004820152600f60248201526e6465706f736974206973207a65726f60881b604482015290519081900360640190fd5b428310156113195760405162461bcd60e51b81526004018080602001828103825260218152602001806122cf6021913960400191505060405180910390fd5b82821161136d576040805162461bcd60e51b815260206004820152601f60248201527f73746f702074696d65206265666f7265207468652073746172742074696d6500604482015290519081900360640190fd5b611375612155565b61137f8385611872565b602083018190528282600381111561139357fe5b600381111561139e57fe5b90525060009050815160038111156113b257fe5b146113b957fe5b8060200151861015611412576040805162461bcd60e51b815260206004820152601f60248201527f6465706f73697420736d616c6c6572207468616e2074696d652064656c746100604482015290519081900360640190fd5b611420868260200151611f9a565b604083018190528282600381111561143457fe5b600381111561143f57fe5b905250600090508151600381111561145357fe5b1461145a57fe5b600061146a60ce5460cd5461184c565b9150818382600381111561147a57fe5b600381111561148557fe5b905250600090508251600381111561149957fe5b146114a057fe5b6040518061014001604052808881526020018360400151815260200183602001518152602001888152602001868152602001858152602001896001600160a01b03168152602001336001600160a01b03168152602001876001600160a01b031681526020016001151581525060cf6000838152602001908152602001600020600082015181600001556020820151816001015560408201518160020155606082015181600301556080820151816004015560a0820151816005015560c08201518160060160006101000a8154816001600160a01b0302191690836001600160a01b0316021790555060e08201518160070160006101000a8154816001600160a01b0302191690836001600160a01b031602179055506101008201518160080160006101000a8154816001600160a01b0302191690836001600160a01b031602179055506101208201518160080160146101000a81548160ff02191690831515021790555090505061161460cd54600161184c565b60cd8190558382600381111561162657fe5b600381111561163157fe5b905250600090508251600381111561164557fe5b14611697576040805162461bcd60e51b815260206004820181905260248201527f6e6578742073747265616d2069642063616c63756c6174696f6e206572726f72604482015290519081900360640190fd5b604080516323b872dd60e01b81523360048201523060248201526044810189905290516001600160a01b038816916323b872dd9160648083019260209291908290030181600087803b1580156116ec57600080fd5b505af1158015611700573d6000803e3d6000fd5b505050506040513d602081101561171657600080fd5b5051611762576040805162461bcd60e51b8152602060048201526016602482015275746f6b656e207472616e73666572206661696c75726560501b604482015290519081900360640190fd5b604080518881526001600160a01b038881166020830152818301889052606082018790529151918a1691339184917f7b01d409597969366dc268d7f957a990d1ca3d3449baf8fb45db67351aecfe789181900360800190a4979650505050505050565b6117cd610f14565b6117d657600080fd5b610d1681611fc5565b600080836117f25750600090508061181a565b838302838582816117ff57fe5b04146118135750600291506000905061181a565b6000925090505b9250929050565b60008082611835575060019050600061181a565b600083858161184057fe5b06915091509250929050565b6000808383018481106118645760009250905061181a565b50600291506000905061181a565b60008083831161188957506000905081830361181a565b5060039050600061181a565b3390565b60006001600160a01b0382166118e05760405162461bcd60e51b81526004018080602001828103825260228152602001806122f06022913960400191505060405180910390fd5b506001600160a01b03166000908152602091909152604090205460ff1690565b6119086120b5565b50600081815260cf60209081526040808320815161014081018352815481526001820154938101939093526002810154918301919091526003810154606083015260048101546080830152600581015460a083015260068101546001600160a01b0390811660c08401526007820154811660e08401819052600890920154908116610100840152600160a01b900460ff1615156101208301529091906119af908490610363565b905060006119c1848460c00151610363565b600085815260cf602052604081208181556001810182905560028101829055600381018290556004810182905560058101919091556006810180546001600160a01b0319908116909155600782018054909116905560080180546001600160a81b03191690556101008401519091508115611b1757806001600160a01b031663a9059cbb8560c00151846040518363ffffffff1660e01b815260040180836001600160a01b03166001600160a01b0316815260200182815260200192505050602060405180830381600087803b158015611a9a57600080fd5b505af1158015611aae573d6000803e3d6000fd5b505050506040513d6020811015611ac457600080fd5b5051611b17576040805162461bcd60e51b815260206004820181905260248201527f726563697069656e7420746f6b656e207472616e73666572206661696c757265604482015290519081900360640190fd5b8215611bfe57806001600160a01b031663a9059cbb8560e00151856040518363ffffffff1660e01b815260040180836001600160a01b03166001600160a01b0316815260200182815260200192505050602060405180830381600087803b158015611b8157600080fd5b505af1158015611b95573d6000803e3d6000fd5b505050506040513d6020811015611bab57600080fd5b5051611bfe576040805162461bcd60e51b815260206004820152601d60248201527f73656e64657220746f6b656e207472616e73666572206661696c757265000000604482015290519081900360640190fd5b8360c001516001600160a01b03168460e001516001600160a01b0316867fe371262148aa0236440bd4cc10ef3ca0ee9668dd0cf3f65e1419d261dffaab2886864260405180848152602001838152602001828152602001935050505060405180910390a45050505050565b611c716120b5565b50600082815260cf6020908152604091829020825161014081018452815481526001820154928101929092526002810154928201929092526003820154606082015260048201546080820152600582015460a082015260068201546001600160a01b0390811660c08301526007830154811660e0830152600890920154918216610100820152600160a01b90910460ff161515610120820152611d12612177565b611d20826060015184611872565b600086815260cf60205260409020600390810182905583908390811115611d4357fe5b6003811115611d4e57fe5b9052506000905081516003811115611d6257fe5b14611d6957fe5b8161010001516001600160a01b031663a9059cbb8360c00151856040518363ffffffff1660e01b815260040180836001600160a01b03166001600160a01b0316815260200182815260200192505050602060405180830381600087803b158015611dd257600080fd5b505af1158015611de6573d6000803e3d6000fd5b505050506040513d6020811015611dfc57600080fd5b5051611e48576040805162461bcd60e51b8152602060048201526016602482015275746f6b656e207472616e73666572206661696c75726560501b604482015290519081900360640190fd5b8160c001516001600160a01b0316847f36c3ab437e6a424ed25dc4bfdeb62706aa06558660fab2dab229d2555adaf89c856040518082815260200191505060405180910390a350505050565b303b1590565b611eab60668263ffffffff61203416565b6040516001600160a01b038216907f6719d08c1888103bea251a4ed56406bd0c3e69723c8a1686e017e7bbe159b6f890600090a250565b600054610100900460ff1680611efb5750611efb611e94565b80611f09575060005460ff16155b611f445760405162461bcd60e51b815260040180806020018281038252602e815260200180612312602e913960400191505060405180910390fd5b600054610100900460ff16158015611f6f576000805460ff1961ff0019909116610100171660011790555b611f7882610816565b611f8557611f8582611e9a565b8015611133576000805461ff00191690555050565b60008082611fae575060019050600061181a565b6000838581611fb957fe5b04915091509250929050565b6001600160a01b038116611fd857600080fd5b6033546040516001600160a01b038084169216907f8be0079c531659141344cd1fd0a4f28419497f9722a3daafe3b4186f6b6457e090600090a3603380546001600160a01b0319166001600160a01b0392909216919091179055565b61203e8282611899565b15612090576040805162461bcd60e51b815260206004820152601f60248201527f526f6c65733a206163636f756e7420616c72656164792068617320726f6c6500604482015290519081900360640190fd5b6001600160a01b0316600090815260209190915260409020805460ff19166001179055565b60405180610140016040528060008152602001600081526020016000815260200160008152602001600081526020016000815260200160006001600160a01b0316815260200160006001600160a01b0316815260200160006001600160a01b031681526020016000151581525090565b6040805160a081019091528060008152602001600081526020016000815260200160008152602001600081525090565b6040805160608101909152806000815260200160008152602001600081525090565b60408051602081019091526000815290565b600054610100900460ff16806121a257506121a2611e94565b806121b0575060005460ff16155b6121eb5760405162461bcd60e51b815260040180806020018281038252602e815260200180612312602e913960400191505060405180910390fd5b600054610100900460ff16158015612216576000805460ff1961ff0019909116610100171660011790555b603380546001600160a01b0319166001600160a01b0384811691909117918290556040519116906000907f8be0079c531659141344cd1fd0a4f28419497f9722a3daafe3b4186f6b6457e0908290a38015611133576000805461ff0019169055505056fe506175736572526f6c653a2063616c6c657220646f6573206e6f742068617665207468652050617573657220726f6c65616d6f756e7420657863656564732074686520617661696c61626c652062616c616e636573746172742074696d65206265666f726520626c6f636b2e74696d657374616d70526f6c65733a206163636f756e7420697320746865207a65726f2061646472657373436f6e747261637420696e7374616e63652068617320616c7265616479206265656e20696e697469616c697a6564726563697069656e742062616c616e63652063616c63756c6174696f6e206572726f7263616c6c6572206973206e6f74207468652073656e646572206f722074686520726563697069656e74206f66207468652073747265616da265627a7a72315820e03abd9e05be8682f51c23b0d85207fb01dbde1681dacece07a9bed27589a7f964736f6c63430005100032526f6c65733a206163636f756e7420697320746865207a65726f2061646472657373436f6e747261637420696e7374616e63652068617320616c7265616479206265656e20696e697469616c697a6564",
  "source": "pragma solidity 0.5.16;\n\nimport \"../node_modules/@openzeppelin/contracts-ethereum-package/contracts/token/ERC20/IERC20.sol\";\nimport \"../node_modules/@openzeppelin/contracts-ethereum-package/contracts/utils/ReentrancyGuard.sol\";\n\nimport \"./tools-contracts/OwnableWithoutRenounce.sol\";\nimport \"./tools-contracts/Exponential.sol\";\nimport \"./tools-contracts/PausableWithoutRenounce.sol\";\n\nimport \"./interface/IERC1620.sol\";\nimport './Types.sol';\n\n/**\n * @title /StreamPay's money streaming of fixedDepositStream\n * @author StreamPay\n * Thank you @PaulBerg,@Sablier.Their ideas give me a lot help.\n * FixedDepositStream content used for sablier,there just add the handleRemainder methods.\n */\n \n/**\n * @title Sablier's Money Streaming\n * @author Sablier\n *         From https://github.com/sablierhq/sablier/blob/develop/packages/protocol/contracts/Sablier.sol\n */\ncontract Sablier is IERC1620,OwnableWithoutRenounce, PausableWithoutRenounce, Exponential, ReentrancyGuard{\n    /*** Storage Properties ***/\n\n    /**\n     * @notice Counter for new stream ids.\n     */\n    uint256 public nextStreamId;\n\n    /**\n     * @notice in order to distinguish difference part of StreamPay through symbol.\n     */\n    uint256 symbol;\n    \n    /**\n     * @notice The stream objects identifiable by their unsigned integer ids.\n     */\n    mapping(uint256 => Types.Stream) private streams;\n    \n    /*** Modifiers ***/\n\n    /**\n     * @dev Throws if the caller is not the sender of the recipient of the stream.\n     */\n    modifier onlySenderOrRecipient(uint256 streamId) {\n        require(\n            msg.sender == streams[streamId].sender || msg.sender == streams[streamId].recipient,\n            \"caller is not the sender or the recipient of the stream\"\n        );\n        _;\n    }\n\n    /**\n     * @dev Throws if the provided id does not point to a valid stream.\n     */\n    modifier streamExists(uint256 streamId) {\n        require(streams[streamId].isEntity, \"stream does not exist\");\n        _;\n    }\n\n    /*** Contract Logic Starts Here */\n\n    constructor() public {\n        OwnableWithoutRenounce.initialize(msg.sender);\n        PausableWithoutRenounce.initialize(msg.sender);\n        nextStreamId = 1;\n        symbol = 1000000;\n    }\n    \n    /*** Owner Functions ***/\n\n    /**\n     * @notice Returns the stream with all its properties.\n     * @dev Throws if the id does not point to a valid stream.\n     * @param streamId The id of the stream to query.\n     * @return The stream object.\n     */\n    function getStream(uint256 streamId)\n        external\n        view\n        streamExists(streamId)\n        returns (\n            address sender,\n            address recipient,\n            uint256 deposit,\n            address tokenAddress,\n            uint256 startTime,\n            uint256 stopTime,\n            uint256 remainingBalance,\n            uint256 ratePerSecond\n        )\n    {\n        sender = streams[streamId].sender;\n        recipient = streams[streamId].recipient;\n        deposit = streams[streamId].deposit;\n        tokenAddress = streams[streamId].tokenAddress;\n        startTime = streams[streamId].startTime;\n        stopTime = streams[streamId].stopTime;\n        remainingBalance = streams[streamId].remainingBalance;\n        ratePerSecond = streams[streamId].ratePerSecond;\n    }\n\n    /**\n     * @notice Returns either the delta in seconds between `block.timestamp` and `startTime` or\n     *  between `stopTime` and `startTime, whichever is smaller. If `block.timestamp` i.starts before\n     *  `startTime`, it returns 0.\n     * @dev Throws if the id does not point to a valid stream.\n     * @param streamId The id of the stream for which to query the delta.\n     * @return The time delta in seconds.\n     */\n    function deltaOf(uint256 streamId) public view streamExists(streamId) returns (uint256 delta) {\n        Types.Stream memory stream = streams[streamId];\n        if (block.timestamp <= stream.startTime) return 0;\n        if (block.timestamp < stream.stopTime) return block.timestamp - stream.startTime;\n        return stream.stopTime - stream.startTime;\n    }\n\n    struct BalanceOfLocalVars {\n        MathError mathErr;\n        uint256 recipientBalance;\n        uint256 withdrawalAmount;\n        uint256 senderBalance;\n        uint256 remainder;\n    }\n\n    /**\n     * @notice Returns the available funds for the given stream id and address.\n     * @dev Throws if the id does not point to a valid stream.\n     * @param streamId The id of the stream for which to query the balance.\n     * @param who The address for which to query the balance.\n     * @return The total funds allocated to `who` as uint256.\n     */\n    function balanceOf(uint256 streamId, address who) public view streamExists(streamId) returns (uint256 balance) {\n        Types.Stream memory stream = streams[streamId];\n        BalanceOfLocalVars memory vars;\n\n        uint256 delta = deltaOf(streamId);\n        (vars.mathErr, vars.recipientBalance) = mulUInt(delta, stream.ratePerSecond);\n        require(vars.mathErr == MathError.NO_ERROR, \"recipient balance calculation error\");\n\n        if(block.timestamp >= stream.stopTime){\n            /* This calculation dealing with remainders */\n            (vars.mathErr,vars.remainder) = modUInt(stream.deposit,stream.duration);\n            assert(vars.mathErr == MathError.NO_ERROR);\n\n            (vars.mathErr, vars.recipientBalance) = addUInt(vars.remainder, vars.recipientBalance);\n            require(vars.mathErr == MathError.NO_ERROR, \"recipient balance calculation error\");\n        }\n\n        /*\n         * If the stream `balance` does not equal `deposit`, it means there have been withdrawals.\n         * We have to subtract the total amount withdrawn from the amount of money that has been\n         * streamed until now.\n         */\n        if (stream.deposit > stream.remainingBalance) {\n            (vars.mathErr, vars.withdrawalAmount) = subUInt(stream.deposit, stream.remainingBalance);\n            assert(vars.mathErr == MathError.NO_ERROR);\n            (vars.mathErr, vars.recipientBalance) = subUInt(vars.recipientBalance, vars.withdrawalAmount);\n            /* `withdrawalAmount` cannot and should not be bigger than `recipientBalance`. */\n            assert(vars.mathErr == MathError.NO_ERROR);\n        }\n\n        if (who == stream.recipient) return vars.recipientBalance;\n        if (who == stream.sender) {\n            (vars.mathErr, vars.senderBalance) = subUInt(stream.remainingBalance, vars.recipientBalance);\n            /* `recipientBalance` cannot and should not be bigger than `remainingBalance`. */\n            assert(vars.mathErr == MathError.NO_ERROR);\n            return vars.senderBalance;\n        }\n        return 0;\n    }\n\n    /*** Public Effects & Interactions Functions ***/\n\n    struct CreateStreamLocalVars {\n        MathError mathErr;\n        uint256 duration;\n        uint256 ratePerSecond;\n    }\n\n    /**\n     * @notice Creates a new stream funded by `msg.sender` and paid towards `recipient`.\n     * @dev Throws if paused.\n     *  Throws if the recipient is the zero address, the contract itself or the caller.\n     *  Throws if the deposit is 0.\n     *  Throws if the start time is before `block.timestamp`.\n     *  Throws if the stop time is before the start time.\n     *  Throws if the duration calculation has a math error.\n     *  Throws if the deposit is smaller than the duration.\n     *  Throws if the deposit is not a multiple of the duration.\n     *  Throws if the rate calculation has a math error.\n     *  Throws if the next stream id calculation has a math error.\n     *  Throws if the contract is not allowed to transfer enough tokens.\n     *  Throws if there is a token transfer failure.\n     * @param recipient The address towards which the money is streamed.\n     * @param deposit The amount of money to be streamed.\n     * @param tokenAddress The ERC20 token to use as streaming currency.\n     * @param startTime The unix timestamp for when the stream starts.\n     * @param stopTime The unix timestamp for when the stream stops.\n     * @return The uint256 id of the newly created stream.\n     */\n    function createStream(address recipient, uint256 deposit, address tokenAddress, uint256 startTime, uint256 stopTime)\n        public\n        whenNotPaused\n        returns (uint256)\n    {\n        require(recipient != address(0x00), \"stream to the zero address\");\n        require(recipient != address(this), \"stream to the contract itself\");\n        require(recipient != msg.sender, \"stream to the caller\");\n        require(deposit > 0, \"deposit is zero\");\n        require(startTime >= block.timestamp, \"start time before block.timestamp\");\n        require(stopTime > startTime, \"stop time before the start time\");\n\n        CreateStreamLocalVars memory vars;\n        (vars.mathErr, vars.duration) = subUInt(stopTime, startTime);\n        /* `subUInt` can only return MathError.INTEGER_UNDERFLOW but we know `stopTime` is higher than `startTime`. */\n        assert(vars.mathErr == MathError.NO_ERROR);\n\n        /* Without this, the rate per second would be zero. */\n        require(deposit >= vars.duration, \"deposit smaller than time delta\");\n\n        (vars.mathErr, vars.ratePerSecond) = divUInt(deposit, vars.duration);\n        /* `divUInt` can only return MathError.DIVISION_BY_ZERO but we know `duration` is not zero. */\n        assert(vars.mathErr == MathError.NO_ERROR);\n\n        /* Create and store the stream object. */\n        uint256 streamId;\n        (vars.mathErr,streamId) = addUInt(symbol,nextStreamId);\n        assert(vars.mathErr == MathError.NO_ERROR);\n\n        streams[streamId] = Types.Stream({\n            remainingBalance: deposit,\n            deposit: deposit,\n            isEntity: true,\n            ratePerSecond: vars.ratePerSecond,\n            duration: vars.duration,\n            recipient: recipient,\n            sender: msg.sender,\n            startTime: startTime,\n            stopTime: stopTime,\n            tokenAddress: tokenAddress\n        });\n\n        /* Increment the next stream id. */\n        (vars.mathErr, nextStreamId) = addUInt(nextStreamId, uint256(1));\n        require(vars.mathErr == MathError.NO_ERROR, \"next stream id calculation error\");\n\n        require(IERC20(tokenAddress).transferFrom(msg.sender, address(this), deposit), \"token transfer failure\");\n        emit CreateStream(streamId, msg.sender, recipient, deposit, tokenAddress, startTime, stopTime);\n        return streamId;\n    }\n\n    /**\n     * @notice Withdraws from the contract to the recipient's account.\n     * @dev Throws if the id does not point to a valid stream.\n     *  Throws if caller is not recipient.\n     *  Throws if the amount exceeds the available balance.\n     *  Throws if there is a token transfer failure.\n     * @param streamId The id of the stream to withdraw tokens from.\n     * @param amount The amount of tokens to withdraw.\n     * @return bool true=success, otherwise false.\n     */\n    function withdrawFromStream(uint256 streamId, uint256 amount)\n        external\n        whenNotPaused\n        nonReentrant\n        streamExists(streamId)\n        onlySenderOrRecipient(streamId)\n        returns (bool)\n    {\n        require(amount > 0, \"amount is zero\");\n        Types.Stream memory stream = streams[streamId];\n        uint256 balance = balanceOf(streamId, stream.recipient);\n        require(balance >= amount, \"amount exceeds the available balance\");\n\n        withdrawFromStreamInternal(streamId, amount);\n        return true;\n    }\n\n    /**\n     * @notice Cancels the stream and transfers the tokens back on a pro rata basis.\n     * @dev Throws if the id does not point to a valid stream.\n     *  Throws if the caller is not the sender or the recipient of the stream.\n     *  Throws if there is a token transfer failure.\n     * @param streamId The id of the stream to cancel.\n     * @return bool true=success, otherwise false.\n     */\n    function cancelStream(uint256 streamId)\n        external\n        nonReentrant\n        streamExists(streamId)\n        onlySenderOrRecipient(streamId)\n        returns (bool)\n    {\n        cancelStreamInternal(streamId);\n        return true;\n    }\n\n    /*** Internal Effects & Interactions Functions ***/\n\n    struct WithdrawFromStreamInternalLocalVars {\n        MathError mathErr;\n    }\n\n    /**\n     * @notice Makes the withdrawal to the recipient of the stream.\n     * @dev If the stream balance has been depleted to 0, the stream object is deleted\n     *  to save gas and optimise contract storage.\n     *  Throws if the stream balance calculation has a math error.\n     *  Throws if there is a token transfer failure.\n     */\n    function withdrawFromStreamInternal(uint256 streamId, uint256 amount) internal {\n        Types.Stream memory stream = streams[streamId];\n        WithdrawFromStreamInternalLocalVars memory vars;\n        (vars.mathErr, streams[streamId].remainingBalance) = subUInt(stream.remainingBalance, amount);\n        /**\n         * `subUInt` can only return MathError.INTEGER_UNDERFLOW but we know that `remainingBalance` is at least\n         * as big as `amount`. See the `require` check in `withdrawFromInternal`.\n         */\n        assert(vars.mathErr == MathError.NO_ERROR);\n\n        require(IERC20(stream.tokenAddress).transfer(stream.recipient, amount), \"token transfer failure\");\n        emit WithdrawFromStream(streamId, stream.recipient, amount);\n    }\n\n    /**\n     * @notice Cancels the stream and transfers the tokens back on a pro rata basis.\n     * @dev The stream and compounding stream vars objects get deleted to save gas\n     *  and optimise contract storage.\n     *  Throws if there is a token transfer failure.\n     */\n    function cancelStreamInternal(uint256 streamId) internal {\n        Types.Stream memory stream = streams[streamId];\n        uint256 senderBalance = balanceOf(streamId, stream.sender);\n        uint256 recipientBalance = balanceOf(streamId, stream.recipient);\n\n        delete streams[streamId];\n\n        IERC20 token = IERC20(stream.tokenAddress);\n        if (recipientBalance > 0)\n            require(token.transfer(stream.recipient, recipientBalance), \"recipient token transfer failure\");\n        if (senderBalance > 0) require(token.transfer(stream.sender, senderBalance), \"sender token transfer failure\");\n\n        emit CancelStream(streamId, stream.sender, stream.recipient, senderBalance, recipientBalance,block.timestamp);\n    }\n\n}\n",
  "sourcePath": "F:\\streampayv4\\contracts\\sablier.sol",
  "compiler": {
    "name": "solc",
    "version": "0.5.16+commit.9c3226ce.Emscripten.clang"
  },
  "schemaVersion": "3.0.23",
  "updatedAt": "2020-09-15T09:46:43.289Z",
  "devdoc": {
    "author": "Sablier        From https://github.com/sablierhq/sablier/blob/develop/packages/protocol/contracts/Sablier.sol",
    "methods": {
      "balanceOf(uint256,address)": {
        "details": "Throws if the id does not point to a valid stream.",
        "params": {
          "streamId": "The id of the stream for which to query the balance.",
          "who": "The address for which to query the balance."
        },
        "return": "The total funds allocated to `who` as uint256."
      },
      "cancelStream(uint256)": {
        "details": "Throws if the id does not point to a valid stream. Throws if the caller is not the sender or the recipient of the stream. Throws if there is a token transfer failure.",
        "params": {
          "streamId": "The id of the stream to cancel."
        },
        "return": "bool true=success, otherwise false."
      },
      "createStream(address,uint256,address,uint256,uint256)": {
        "details": "Throws if paused. Throws if the recipient is the zero address, the contract itself or the caller. Throws if the deposit is 0. Throws if the start time is before `block.timestamp`. Throws if the stop time is before the start time. Throws if the duration calculation has a math error. Throws if the deposit is smaller than the duration. Throws if the deposit is not a multiple of the duration. Throws if the rate calculation has a math error. Throws if the next stream id calculation has a math error. Throws if the contract is not allowed to transfer enough tokens. Throws if there is a token transfer failure.",
        "params": {
          "deposit": "The amount of money to be streamed.",
          "recipient": "The address towards which the money is streamed.",
          "startTime": "The unix timestamp for when the stream starts.",
          "stopTime": "The unix timestamp for when the stream stops.",
          "tokenAddress": "The ERC20 token to use as streaming currency."
        },
        "return": "The uint256 id of the newly created stream."
      },
      "deltaOf(uint256)": {
        "details": "Throws if the id does not point to a valid stream.",
        "params": {
          "streamId": "The id of the stream for which to query the delta."
        },
        "return": "The time delta in seconds."
      },
      "getStream(uint256)": {
        "details": "Throws if the id does not point to a valid stream.",
        "params": {
          "streamId": "The id of the stream to query."
        },
        "return": "The stream object."
      },
      "initialize(address)": {
        "details": "Initializes the contract in unpaused state. Assigns the Pauser role to the deployer."
      },
      "isOwner()": {
        "return": "true if `msg.sender` is the owner of the contract."
      },
      "owner()": {
        "return": "the address of the owner."
      },
      "pause()": {
        "details": "Called by a pauser to pause, triggers stopped state."
      },
      "paused()": {
        "details": "Returns true if the contract is paused, and false otherwise."
      },
      "transferOwnership(address)": {
        "details": "Allows the current owner to transfer control of the contract to a newOwner.",
        "params": {
          "newOwner": "The address to transfer ownership to."
        }
      },
      "unpause()": {
        "details": "Called by a pauser to unpause, returns to normal state."
      },
      "withdrawFromStream(uint256,uint256)": {
        "details": "Throws if the id does not point to a valid stream. Throws if caller is not recipient. Throws if the amount exceeds the available balance. Throws if there is a token transfer failure.",
        "params": {
          "amount": "The amount of tokens to withdraw.",
          "streamId": "The id of the stream to withdraw tokens from."
        },
        "return": "bool true=success, otherwise false."
      }
    },
    "title": "Sablier's Money Streaming"
  },
  "userdoc": {
    "methods": {
      "balanceOf(uint256,address)": {
        "notice": "Returns the available funds for the given stream id and address."
      },
      "cancelStream(uint256)": {
        "notice": "Cancels the stream and transfers the tokens back on a pro rata basis."
      },
      "constructor": "* Contract Logic Starts Here ",
      "createStream(address,uint256,address,uint256,uint256)": {
        "notice": "Creates a new stream funded by `msg.sender` and paid towards `recipient`."
      },
      "deltaOf(uint256)": {
        "notice": "Returns either the delta in seconds between `block.timestamp` and `startTime` or between `stopTime` and `startTime, whichever is smaller. If `block.timestamp` i.starts before `startTime`, it returns 0."
      },
      "getStream(uint256)": {
        "notice": "Returns the stream with all its properties."
      },
      "withdrawFromStream(uint256,uint256)": {
        "notice": "Withdraws from the contract to the recipient's account."
      }
    }
  }
}