{
  "contractName": "streamPayOfInstallmentWithDP",
  "abi": [
    {
      "inputs": [],
      "payable": false,
      "stateMutability": "nonpayable",
      "type": "constructor"
    },
    {
      "anonymous": false,
      "inputs": [
        {
          "indexed": true,
          "internalType": "uint256",
          "name": "streamId",
          "type": "uint256"
        },
        {
          "indexed": true,
          "internalType": "address",
          "name": "sender",
          "type": "address"
        },
        {
          "indexed": true,
          "internalType": "address",
          "name": "recipient",
          "type": "address"
        },
        {
          "indexed": false,
          "internalType": "uint256",
          "name": "senderBalance",
          "type": "uint256"
        },
        {
          "indexed": false,
          "internalType": "uint256",
          "name": "recipientBalance",
          "type": "uint256"
        },
        {
          "indexed": false,
          "internalType": "uint256",
          "name": "feesOfProtocol",
          "type": "uint256"
        },
        {
          "indexed": false,
          "internalType": "uint256",
          "name": "timestamp",
          "type": "uint256"
        }
      ],
      "name": "CancelInstallmentWithDPStream",
      "type": "event"
    },
    {
      "anonymous": false,
      "inputs": [
        {
          "indexed": true,
          "internalType": "uint256",
          "name": "streamId",
          "type": "uint256"
        },
        {
          "indexed": true,
          "internalType": "address",
          "name": "sender",
          "type": "address"
        },
        {
          "indexed": true,
          "internalType": "address",
          "name": "recipient",
          "type": "address"
        },
        {
          "indexed": false,
          "internalType": "uint256",
          "name": "deposit",
          "type": "uint256"
        },
        {
          "indexed": false,
          "internalType": "address",
          "name": "tokenAddress",
          "type": "address"
        },
        {
          "indexed": false,
          "internalType": "uint256",
          "name": "startTime",
          "type": "uint256"
        },
        {
          "indexed": false,
          "internalType": "uint256",
          "name": "stopTime",
          "type": "uint256"
        },
        {
          "indexed": false,
          "internalType": "uint256",
          "name": "numberOfInstallments",
          "type": "uint256"
        },
        {
          "indexed": false,
          "internalType": "uint256",
          "name": "downPaymentRatio",
          "type": "uint256"
        },
        {
          "indexed": false,
          "internalType": "uint256",
          "name": "feesOfRecipientPer",
          "type": "uint256"
        },
        {
          "indexed": false,
          "internalType": "uint256",
          "name": "haveBeenPaidAmount",
          "type": "uint256"
        },
        {
          "indexed": false,
          "internalType": "uint256",
          "name": "installmentAmountWithFees",
          "type": "uint256"
        }
      ],
      "name": "CreateInstallmentWithDPStream",
      "type": "event"
    },
    {
      "anonymous": false,
      "inputs": [
        {
          "indexed": true,
          "internalType": "address",
          "name": "previousOwner",
          "type": "address"
        },
        {
          "indexed": true,
          "internalType": "address",
          "name": "newOwner",
          "type": "address"
        }
      ],
      "name": "OwnershipTransferred",
      "type": "event"
    },
    {
      "anonymous": false,
      "inputs": [
        {
          "indexed": false,
          "internalType": "address",
          "name": "account",
          "type": "address"
        }
      ],
      "name": "Paused",
      "type": "event"
    },
    {
      "anonymous": false,
      "inputs": [
        {
          "indexed": true,
          "internalType": "address",
          "name": "account",
          "type": "address"
        }
      ],
      "name": "PauserAdded",
      "type": "event"
    },
    {
      "anonymous": false,
      "inputs": [
        {
          "indexed": true,
          "internalType": "address",
          "name": "account",
          "type": "address"
        }
      ],
      "name": "PauserRemoved",
      "type": "event"
    },
    {
      "anonymous": false,
      "inputs": [
        {
          "indexed": true,
          "internalType": "address",
          "name": "tokenAddress",
          "type": "address"
        },
        {
          "indexed": true,
          "internalType": "uint256",
          "name": "amount",
          "type": "uint256"
        }
      ],
      "name": "TakeEarnings",
      "type": "event"
    },
    {
      "anonymous": false,
      "inputs": [
        {
          "indexed": true,
          "internalType": "uint256",
          "name": "streamId",
          "type": "uint256"
        },
        {
          "indexed": false,
          "internalType": "uint256",
          "name": "transferAmount",
          "type": "uint256"
        },
        {
          "indexed": false,
          "internalType": "uint256",
          "name": "haveBeenPaidAmount",
          "type": "uint256"
        },
        {
          "indexed": false,
          "internalType": "uint256",
          "name": "haveBeenNumberOfInstallment",
          "type": "uint256"
        }
      ],
      "name": "TransferWithDP",
      "type": "event"
    },
    {
      "anonymous": false,
      "inputs": [
        {
          "indexed": false,
          "internalType": "address",
          "name": "account",
          "type": "address"
        }
      ],
      "name": "Unpaused",
      "type": "event"
    },
    {
      "anonymous": false,
      "inputs": [
        {
          "indexed": true,
          "internalType": "uint256",
          "name": "fee",
          "type": "uint256"
        }
      ],
      "name": "UpdateFee",
      "type": "event"
    },
    {
      "anonymous": false,
      "inputs": [
        {
          "indexed": true,
          "internalType": "uint256",
          "name": "streamId",
          "type": "uint256"
        },
        {
          "indexed": true,
          "internalType": "address",
          "name": "recipient",
          "type": "address"
        },
        {
          "indexed": false,
          "internalType": "uint256",
          "name": "amount",
          "type": "uint256"
        },
        {
          "indexed": false,
          "internalType": "uint256",
          "name": "actualAmount",
          "type": "uint256"
        },
        {
          "indexed": false,
          "internalType": "uint256",
          "name": "feesOfProtocol",
          "type": "uint256"
        }
      ],
      "name": "WithdrawFromInstallmentWithDPStream",
      "type": "event"
    },
    {
      "constant": false,
      "inputs": [
        {
          "internalType": "address",
          "name": "account",
          "type": "address"
        }
      ],
      "name": "addPauser",
      "outputs": [],
      "payable": false,
      "stateMutability": "nonpayable",
      "type": "function"
    },
    {
      "constant": true,
      "inputs": [],
      "name": "expFeeOfProtocol",
      "outputs": [
        {
          "internalType": "uint256",
          "name": "mantissa",
          "type": "uint256"
        }
      ],
      "payable": false,
      "stateMutability": "view",
      "type": "function"
    },
    {
      "constant": false,
      "inputs": [],
      "name": "initialize",
      "outputs": [],
      "payable": false,
      "stateMutability": "nonpayable",
      "type": "function"
    },
    {
      "constant": false,
      "inputs": [
        {
          "internalType": "address",
          "name": "sender",
          "type": "address"
        }
      ],
      "name": "initialize",
      "outputs": [],
      "payable": false,
      "stateMutability": "nonpayable",
      "type": "function"
    },
    {
      "constant": true,
      "inputs": [],
      "name": "isOwner",
      "outputs": [
        {
          "internalType": "bool",
          "name": "",
          "type": "bool"
        }
      ],
      "payable": false,
      "stateMutability": "view",
      "type": "function"
    },
    {
      "constant": true,
      "inputs": [
        {
          "internalType": "address",
          "name": "account",
          "type": "address"
        }
      ],
      "name": "isPauser",
      "outputs": [
        {
          "internalType": "bool",
          "name": "",
          "type": "bool"
        }
      ],
      "payable": false,
      "stateMutability": "view",
      "type": "function"
    },
    {
      "constant": true,
      "inputs": [],
      "name": "nextStreamId",
      "outputs": [
        {
          "internalType": "uint256",
          "name": "",
          "type": "uint256"
        }
      ],
      "payable": false,
      "stateMutability": "view",
      "type": "function"
    },
    {
      "constant": true,
      "inputs": [],
      "name": "owner",
      "outputs": [
        {
          "internalType": "address",
          "name": "",
          "type": "address"
        }
      ],
      "payable": false,
      "stateMutability": "view",
      "type": "function"
    },
    {
      "constant": false,
      "inputs": [],
      "name": "pause",
      "outputs": [],
      "payable": false,
      "stateMutability": "nonpayable",
      "type": "function"
    },
    {
      "constant": true,
      "inputs": [],
      "name": "paused",
      "outputs": [
        {
          "internalType": "bool",
          "name": "",
          "type": "bool"
        }
      ],
      "payable": false,
      "stateMutability": "view",
      "type": "function"
    },
    {
      "constant": false,
      "inputs": [
        {
          "internalType": "address",
          "name": "newOwner",
          "type": "address"
        }
      ],
      "name": "transferOwnership",
      "outputs": [],
      "payable": false,
      "stateMutability": "nonpayable",
      "type": "function"
    },
    {
      "constant": false,
      "inputs": [],
      "name": "unpause",
      "outputs": [],
      "payable": false,
      "stateMutability": "nonpayable",
      "type": "function"
    },
    {
      "constant": false,
      "inputs": [
        {
          "internalType": "uint256",
          "name": "feePer",
          "type": "uint256"
        }
      ],
      "name": "updateFeesOfProtocolPer",
      "outputs": [],
      "payable": false,
      "stateMutability": "nonpayable",
      "type": "function"
    },
    {
      "constant": true,
      "inputs": [
        {
          "internalType": "address",
          "name": "tokenAddress",
          "type": "address"
        }
      ],
      "name": "getEarnings",
      "outputs": [
        {
          "internalType": "uint256",
          "name": "",
          "type": "uint256"
        }
      ],
      "payable": false,
      "stateMutability": "view",
      "type": "function"
    },
    {
      "constant": false,
      "inputs": [
        {
          "internalType": "address",
          "name": "tokenAddress",
          "type": "address"
        },
        {
          "internalType": "uint256",
          "name": "amount",
          "type": "uint256"
        }
      ],
      "name": "takeEarnings",
      "outputs": [],
      "payable": false,
      "stateMutability": "nonpayable",
      "type": "function"
    },
    {
      "constant": true,
      "inputs": [
        {
          "internalType": "uint256",
          "name": "amount",
          "type": "uint256"
        }
      ],
      "name": "calculationFeesOfProtocol",
      "outputs": [
        {
          "internalType": "uint256",
          "name": "",
          "type": "uint256"
        }
      ],
      "payable": false,
      "stateMutability": "view",
      "type": "function"
    },
    {
      "constant": true,
      "inputs": [
        {
          "internalType": "uint256",
          "name": "deposit",
          "type": "uint256"
        },
        {
          "internalType": "uint256",
          "name": "downPaymentRatio",
          "type": "uint256"
        }
      ],
      "name": "calculationDownPaymentAmount",
      "outputs": [
        {
          "internalType": "uint256",
          "name": "",
          "type": "uint256"
        }
      ],
      "payable": false,
      "stateMutability": "pure",
      "type": "function"
    },
    {
      "constant": true,
      "inputs": [
        {
          "internalType": "uint256",
          "name": "streamId",
          "type": "uint256"
        }
      ],
      "name": "getInstallmentWithDPStream",
      "outputs": [
        {
          "internalType": "address",
          "name": "sender",
          "type": "address"
        },
        {
          "internalType": "address",
          "name": "recipient",
          "type": "address"
        },
        {
          "internalType": "uint256",
          "name": "deposit",
          "type": "uint256"
        },
        {
          "internalType": "uint256",
          "name": "downPaymentAmount",
          "type": "uint256"
        },
        {
          "internalType": "address",
          "name": "tokenAddress",
          "type": "address"
        },
        {
          "internalType": "uint256",
          "name": "startTime",
          "type": "uint256"
        },
        {
          "internalType": "uint256",
          "name": "stopTime",
          "type": "uint256"
        },
        {
          "internalType": "uint256",
          "name": "numberOfInstallments",
          "type": "uint256"
        },
        {
          "internalType": "uint256",
          "name": "feesOfRecipientPer",
          "type": "uint256"
        },
        {
          "internalType": "uint256",
          "name": "haveBeenNumberOfInstallment",
          "type": "uint256"
        },
        {
          "internalType": "uint256",
          "name": "haveBeenPaidAmount",
          "type": "uint256"
        },
        {
          "internalType": "uint256",
          "name": "withdrawalAmount",
          "type": "uint256"
        }
      ],
      "payable": false,
      "stateMutability": "view",
      "type": "function"
    },
    {
      "constant": true,
      "inputs": [
        {
          "internalType": "uint256",
          "name": "streamId",
          "type": "uint256"
        }
      ],
      "name": "getInstallmentWithDPStreamCal",
      "outputs": [
        {
          "internalType": "uint256",
          "name": "installmentAmountWithFees",
          "type": "uint256"
        },
        {
          "internalType": "uint256",
          "name": "oneOfInstallmentAmount",
          "type": "uint256"
        },
        {
          "internalType": "uint256",
          "name": "oneOfInstallmentTime",
          "type": "uint256"
        },
        {
          "internalType": "uint256",
          "name": "ratePerSecond",
          "type": "uint256"
        }
      ],
      "payable": false,
      "stateMutability": "view",
      "type": "function"
    },
    {
      "constant": false,
      "inputs": [
        {
          "internalType": "address",
          "name": "recipient",
          "type": "address"
        },
        {
          "internalType": "uint256",
          "name": "deposit",
          "type": "uint256"
        },
        {
          "internalType": "address",
          "name": "tokenAddress",
          "type": "address"
        },
        {
          "internalType": "uint256",
          "name": "startTime",
          "type": "uint256"
        },
        {
          "internalType": "uint256",
          "name": "stopTime",
          "type": "uint256"
        },
        {
          "internalType": "uint256",
          "name": "numberOfInstallments",
          "type": "uint256"
        },
        {
          "internalType": "uint256",
          "name": "downPaymentRatio",
          "type": "uint256"
        },
        {
          "internalType": "uint256",
          "name": "feesOfRecipientPer",
          "type": "uint256"
        }
      ],
      "name": "createInstallmentWithDPStream",
      "outputs": [
        {
          "internalType": "uint256",
          "name": "",
          "type": "uint256"
        }
      ],
      "payable": false,
      "stateMutability": "nonpayable",
      "type": "function"
    },
    {
      "constant": true,
      "inputs": [
        {
          "internalType": "uint256",
          "name": "streamId",
          "type": "uint256"
        }
      ],
      "name": "installmentDeltaOf",
      "outputs": [
        {
          "internalType": "uint256",
          "name": "",
          "type": "uint256"
        }
      ],
      "payable": false,
      "stateMutability": "view",
      "type": "function"
    },
    {
      "constant": true,
      "inputs": [
        {
          "internalType": "uint256",
          "name": "streamId",
          "type": "uint256"
        },
        {
          "internalType": "address",
          "name": "who",
          "type": "address"
        }
      ],
      "name": "installmentWithDPBalanceOf",
      "outputs": [
        {
          "internalType": "uint256",
          "name": "balance",
          "type": "uint256"
        }
      ],
      "payable": false,
      "stateMutability": "view",
      "type": "function"
    },
    {
      "constant": false,
      "inputs": [
        {
          "internalType": "uint256",
          "name": "streamId",
          "type": "uint256"
        }
      ],
      "name": "transferWithDP",
      "outputs": [
        {
          "internalType": "bool",
          "name": "",
          "type": "bool"
        }
      ],
      "payable": false,
      "stateMutability": "nonpayable",
      "type": "function"
    },
    {
      "constant": false,
      "inputs": [
        {
          "internalType": "uint256",
          "name": "streamId",
          "type": "uint256"
        },
        {
          "internalType": "uint256",
          "name": "amount",
          "type": "uint256"
        }
      ],
      "name": "withdrawInstallmentWithDPStream",
      "outputs": [
        {
          "internalType": "bool",
          "name": "",
          "type": "bool"
        }
      ],
      "payable": false,
      "stateMutability": "nonpayable",
      "type": "function"
    },
    {
      "constant": false,
      "inputs": [
        {
          "internalType": "uint256",
          "name": "streamId",
          "type": "uint256"
        }
      ],
      "name": "cancelInstallmentWithDPStream",
      "outputs": [
        {
          "internalType": "bool",
          "name": "",
          "type": "bool"
        }
      ],
      "payable": false,
      "stateMutability": "nonpayable",
      "type": "function"
    }
  ],
  "bytecode": "0x60806040523480156200001157600080fd5b5062000028336200005060201b62003a261760201c565b6200003e336200015360201b620021661760201c565b600160cd55623d090060ce5562000477565b600054610100900460ff1680620000755750620000756001600160e01b036200022616565b8062000084575060005460ff16155b620000c15760405162461bcd60e51b815260040180806020018281038252602e815260200180620041c6602e913960400191505060405180910390fd5b600054610100900460ff16158015620000ed576000805460ff1961ff0019909116610100171660011790555b603380546001600160a01b0319166001600160a01b0384811691909117918290556040519116906000907f8be0079c531659141344cd1fd0a4f28419497f9722a3daafe3b4186f6b6457e0908290a380156200014f576000805461ff00191690555b5050565b600054610100900460ff1680620001785750620001786001600160e01b036200022616565b8062000187575060005460ff16155b620001c45760405162461bcd60e51b815260040180806020018281038252602e815260200180620041c6602e913960400191505060405180910390fd5b600054610100900460ff16158015620001f0576000805460ff1961ff0019909116610100171660011790555b62000206826200022c60201b62002e8f1760201c565b6099805460ff1916905580156200014f576000805461ff00191690555050565b303b1590565b600054610100900460ff1680620002515750620002516001600160e01b036200022616565b8062000260575060005460ff16155b6200029d5760405162461bcd60e51b815260040180806020018281038252602e815260200180620041c6602e913960400191505060405180910390fd5b600054610100900460ff16158015620002c9576000805460ff1961ff0019909116610100171660011790555b620002dd826001600160e01b036200030c16565b620002f657620002f6826001600160e01b036200032f16565b80156200014f576000805461ff00191690555050565b6000620003298260666200038160201b62002a9e1790919060201c565b92915050565b6200034a816066620003ea60201b620037bb1790919060201c565b6040516001600160a01b038216907f6719d08c1888103bea251a4ed56406bd0c3e69723c8a1686e017e7bbe159b6f890600090a250565b60006001600160a01b038216620003ca5760405162461bcd60e51b8152600401808060200182810382526022815260200180620041a46022913960400191505060405180910390fd5b506001600160a01b03166000908152602091909152604090205460ff1690565b620003ff82826001600160e01b036200038116565b1562000452576040805162461bcd60e51b815260206004820152601f60248201527f526f6c65733a206163636f756e7420616c72656164792068617320726f6c6500604482015290519081900360640190fd5b6001600160a01b0316600090815260209190915260409020805460ff19166001179055565b613d1d80620004876000396000f3fe608060405234801561001057600080fd5b50600436106101735760003560e01c80638da5cb5b116100de578063d18aec1d11610097578063f2fde38b11610071578063f2fde38b146103f9578063f64cb5f01461041f578063f72b5b2f146104b0578063fd74159a146104f357610173565b8063d18aec1d1461039c578063dce97733146103bf578063ef47c29b146103dc57610173565b80638da5cb5b146102de5780638f32d59b14610302578063beb20a451461030a578063c09bf8941461032d578063c1eb9ee01461034a578063c4d66de81461037657610173565b8063527274a711610130578063527274a7146102455780635c975abb1461024d5780637bd408d3146102555780638129fc1c146102a857806382dc1ec4146102b05780638456cb59146102d657610173565b8063131b9c04146101785780631e99d569146101b0578063263b7a09146101b85780633f4ba83a146101d557806346fbf68e146101df57806350cf5aa714610219575b600080fd5b61019e6004803603602081101561018e57600080fd5b50356001600160a01b0316610510565b60408051918252519081900360200190f35b61019e61052b565b61019e600480360360208110156101ce57600080fd5b5035610531565b6101dd6106c8565b005b610205600480360360208110156101f557600080fd5b50356001600160a01b03166107b1565b604080519115158252519081900360200190f35b61019e6004803603604081101561022f57600080fd5b50803590602001356001600160a01b03166107ca565b61019e610cec565b610205610cf2565b61019e600480360361010081101561026c57600080fd5b506001600160a01b0381358116916020810135916040820135169060608101359060808101359060a08101359060c08101359060e00135610cfb565b6101dd611683565b6101dd600480360360208110156102c657600080fd5b50356001600160a01b031661172a565b6101dd611779565b6102e6611840565b604080516001600160a01b039092168252519081900360200190f35b61020561184f565b61019e6004803603604081101561032057600080fd5b5080359060200135611875565b6102056004803603602081101561034357600080fd5b503561198d565b6101dd6004803603604081101561036057600080fd5b506001600160a01b038135169060200135611ee0565b6101dd6004803603602081101561038c57600080fd5b50356001600160a01b0316612166565b610205600480360360408110156103b257600080fd5b508035906020013561221c565b610205600480360360208110156103d557600080fd5b5035612546565b6101dd600480360360208110156103f257600080fd5b5035612694565b6101dd6004803603602081101561040f57600080fd5b50356001600160a01b0316612790565b61043c6004803603602081101561043557600080fd5b50356127aa565b604080516001600160a01b039d8e1681529b8d1660208d01528b81019a909a5260608b019890985295909916608089015260a088019390935260c087019190915260e08601526101008501526101208401949094526101408301939093526101608201929092529051908190036101800190f35b6104cd600480360360208110156104c657600080fd5b5035612995565b604080519485526020850193909352838301919091526060830152519081900360800190f35b61019e6004803603602081101561050957600080fd5b5035612a28565b6001600160a01b0316600090815260d1602052604090205490565b60cd5481565b600081815260cf60205260408120601001548290600160a01b900460ff1661058e576040805162461bcd60e51b81526020600482015260156024820152600080516020613b6c833981519152604482015290519081900360640190fd5b61059661383c565b50600083815260cf6020908152604091829020825161024081018452815481526001820154928101929092526002810154928201929092526003820154606082015260048201546080820152600582015460a0820152600682015460c08201819052600783015460e083015260088301546001600160a01b0390811661010084015260098401548116610120840152600a840154610140840152600b840154610160840152600c840154610180840152600d8401546101a0840152600e8401546101c0840152600f8401546101e0840152601090930154928316610200830152600160a01b90920460ff16151561022082015290421161069a5760009250506106c2565b8060e001514210156106b35760c00151420391506106c2565b8060c001518160e00151039250505b50919050565b6106d86106d3612a9a565b6107b1565b6107135760405162461bcd60e51b8152600401808060200182810382526030815260200180613b186030913960400191505060405180910390fd5b60995460ff16610761576040805162461bcd60e51b815260206004820152601460248201527314185d5cd8589b194e881b9bdd081c185d5cd95960621b604482015290519081900360640190fd5b6099805460ff191690557f5db9ee0a495bf2e6ff9c91a7834c1ba4fdd244a5e8aa4e537bd38aeae4b073aa610794612a9a565b604080516001600160a01b039092168252519081900360200190a1565b60006107c460668363ffffffff612a9e16565b92915050565b600082815260cf60205260408120601001548390600160a01b900460ff16610827576040805162461bcd60e51b81526020600482015260156024820152600080516020613b6c833981519152604482015290519081900360640190fd5b61082f61383c565b50600084815260cf6020908152604091829020825161024081018452815481526001820154928101929092526002810154928201929092526003820154606082015260048201546080820152600582015460a0820152600682015460c0820152600782015460e082015260088201546001600160a01b0390811661010083015260098301548116610120830152600a830154610140830152600b830154610160830152600c830154610180830152600d8301546101a0830152600e8301546101c0830152600f8301546101e0830152601090920154918216610200820152600160a01b90910460ff1615156102208201526109286138e4565b600061093387610531565b905061094481846101600151612b05565b606084018190528382600381111561095857fe5b600381111561096357fe5b905250600090508251600381111561097757fe5b1461097e57fe5b8260c0015142106109d55761099b82606001518460200151612b47565b60608401819052838260038111156109af57fe5b60038111156109ba57fe5b90525060009050825160038111156109ce57fe5b146109d557fe5b82608001518110610b29576109ee818460800151612b6d565b6080840181905283826003811115610a0257fe5b6003811115610a0d57fe5b9052506000905082516003811115610a2157fe5b14610a2857fe5b826101a0015182608001511115610a45576101a083015160808301525b610a5783606001518460800151612b98565b60c0840181905283826003811115610a6b57fe5b6003811115610a7657fe5b9052506000905082516003811115610a8a57fe5b14610a9157fe5b610aa382608001518360c00151612b05565b60c0840181905283826003811115610ab757fe5b6003811115610ac257fe5b9052506000905082516003811115610ad657fe5b14610add57fe5b610aef82606001518360c00151612b47565b6060840181905283826003811115610b0357fe5b6003811115610b0e57fe5b9052506000905082516003811115610b2257fe5b14610b2957fe5b8260e001514210610bcd57610b478360400151846101400151612b98565b60a0840181905283826003811115610b5b57fe5b6003811115610b6657fe5b9052506000905082516003811115610b7a57fe5b14610b8157fe5b610b9382606001518360a00151612b47565b6060840181905283826003811115610ba757fe5b6003811115610bb257fe5b9052506000905082516003811115610bc657fe5b14610bcd57fe5b826101c00151826060015110610be9576101c083015160608301525b610bfc8260600151846101e00151612bc3565b6020840181905283826003811115610c1057fe5b6003811115610c1b57fe5b9052506000905082516003811115610c2f57fe5b14610c3657fe5b8261010001516001600160a01b0316866001600160a01b03161415610c635750602001519250610ce59050565b8261012001516001600160a01b0316866001600160a01b03161415610cdd57610c95836101c001518360600151612bc3565b6040840181905283826003811115610ca957fe5b6003811115610cb457fe5b9052506000905082516003811115610cc857fe5b14610ccf57fe5b50604001519250610ce59050565b600094505050505b5092915050565b60d05481565b60995460ff1690565b60995460009060ff1615610d49576040805162461bcd60e51b815260206004820152601060248201526f14185d5cd8589b194e881c185d5cd95960821b604482015290519081900360640190fd5b6001600160a01b038916610da4576040805162461bcd60e51b815260206004820152601a60248201527f73747265616d20746f20746865207a65726f2061646472657373000000000000604482015290519081900360640190fd5b6001600160a01b038916301415610dfb576040805162461bcd60e51b81526020600482015260166024820152751cdd1c99585b481d1bc81d1a194818dbdb9d1c9858dd60521b604482015290519081900360640190fd5b6001600160a01b038916331415610e50576040805162461bcd60e51b815260206004820152601460248201527339ba3932b0b6903a37903a34329031b0b63632b960611b604482015290519081900360640190fd5b60008811610e97576040805162461bcd60e51b815260206004820152600f60248201526e6465706f736974206973207a65726f60881b604482015290519081900360640190fd5b42861015610ed65760405162461bcd60e51b8152600401808060200182810382526021815260200180613bb06021913960400191505060405180910390fd5b858511610f2a576040805162461bcd60e51b815260206004820152601f60248201527f73746f702074696d65206265666f7265207468652073746172742074696d6500604482015290519081900360640190fd5b838811610f685760405162461bcd60e51b8152600401808060200182810382526028815260200180613c3a6028913960400191505060405180910390fd5b6002841015610fbe576040805162461bcd60e51b815260206004820152601f60248201527f6e756d6265724f66496e7374616c6c6d656e747320697320736d616c6c203200604482015290519081900360640190fd5b610fc6613922565b610fd08688612bc3565b6020830181905282826003811115610fe457fe5b6003811115610fef57fe5b905250600090508151600381111561100357fe5b1461100a57fe5b8060200151891015611063576040805162461bcd60e51b815260206004820152601f60248201527f6465706f73697420736d616c6c6572207468616e2074696d652064656c746100604482015290519081900360640190fd5b84816020015110156110a65760405162461bcd60e51b8152600401808060200182810382526024815260200180613b486024913960400191505060405180910390fd5b848160200151816110b357fe5b06156110f05760405162461bcd60e51b815260040180806020018281038252602e815260200180613c0c602e913960400191505060405180910390fd5b6110fa8985611875565b604082018190526020820151600091611118918c919087908a612be6565b90506111248187612b6d565b606084018190528382600381111561113857fe5b600381111561114357fe5b905250600090508251600381111561115757fe5b1461115e57fe5b61116c826020015187612b6d565b608084018190528382600381111561118057fe5b600381111561118b57fe5b905250600090508251600381111561119f57fe5b146111a657fe5b6111b882606001518360800151612b6d565b60a08401819052838260038111156111cc57fe5b60038111156111d757fe5b90525060009050825160038111156111eb57fe5b146111f257fe5b61120482606001518360400151612b47565b60c084018190528382600381111561121857fe5b600381111561122357fe5b905250600090508251600381111561123757fe5b1461123e57fe5b600061124e60ce5460cd54612b47565b9150818482600381111561125e57fe5b600381111561126957fe5b905250600090508351600381111561127d57fe5b1461128457fe5b6112938360e001516001612b47565b60e08501819052848260038111156112a757fe5b60038111156112b257fe5b90525060009050835160038111156112c657fe5b146112cd57fe5b8260c00151836101000181815250506040518061024001604052808c81526020018460400151815260200183815260200184606001518152602001846080015181526020018781526020018a81526020018981526020018d6001600160a01b03168152602001336001600160a01b031681526020018881526020018460a0015181526020018681526020018460e0015181526020018460c001518152602001600081526020018b6001600160a01b031681526020016001151581525060cf6000838152602001908152602001600020600082015181600001556020820151816001015560408201518160020155606082015181600301556080820151816004015560a0820151816005015560c0820151816006015560e082015181600701556101008201518160080160006101000a8154816001600160a01b0302191690836001600160a01b031602179055506101208201518160090160006101000a8154816001600160a01b0302191690836001600160a01b0316021790555061014082015181600a015561016082015181600b015561018082015181600c01556101a082015181600d01556101c082015181600e01556101e082015181600f01556102008201518160100160006101000a8154816001600160a01b0302191690836001600160a01b031602179055506102208201518160100160146101000a81548160ff0219169083151502179055509050506114e960cd546001612b47565b60cd819055848260038111156114fb57fe5b600381111561150657fe5b905250600090508351600381111561151a57fe5b1461152157fe5b60c0830151604080516323b872dd60e01b81523360048201523060248201526044810192909252516001600160a01b038c16916323b872dd9160648083019260209291908290030181600087803b15801561157b57600080fd5b505af115801561158f573d6000803e3d6000fd5b505050506040513d60208110156115a557600080fd5b50516115f1576040805162461bcd60e51b8152602060048201526016602482015275746f6b656e207472616e73666572206661696c75726560501b604482015290519081900360640190fd5b61010080840151604080518e81526001600160a01b038e811660208301528183018e9052606082018d9052608082018c905260a082018b905260c082018a905260e082019390935292830185905251908e1691339184917fc60fe19dabd827777bd357dd09ae9ebe1c13a736914d27552ea9c0a0eab8f79991908190036101200190a49b9a5050505050505050505050565b600054610100900460ff168061169c575061169c612d7d565b806116aa575060005460ff16155b6116e55760405162461bcd60e51b815260040180806020018281038252602e815260200180613c84602e913960400191505060405180910390fd5b600054610100900460ff16158015611710576000805460ff1961ff0019909116610100171660011790555b6001609a558015611727576000805461ff00191690555b50565b6117356106d3612a9a565b6117705760405162461bcd60e51b8152600401808060200182810382526030815260200180613b186030913960400191505060405180910390fd5b61172781612d83565b6117846106d3612a9a565b6117bf5760405162461bcd60e51b8152600401808060200182810382526030815260200180613b186030913960400191505060405180910390fd5b60995460ff161561180a576040805162461bcd60e51b815260206004820152601060248201526f14185d5cd8589b194e881c185d5cd95960821b604482015290519081900360640190fd5b6099805460ff191660011790557f62e78cea01bee320cd4e420270b5ea74000d11b0c9f74754ebdbfc544b05a258610794612a9a565b6033546001600160a01b031690565b6033546000906001600160a01b0316611866612a9a565b6001600160a01b031614905090565b600060648211156118cd576040805162461bcd60e51b815260206004820152601f60248201527f6665652070657263656e7461676520686967686572207468616e203130302500604482015290519081900360640190fd5b6118d561396f565b6118e683662386f26fc10000612b05565b935083828260038111156118f657fe5b600381111561190157fe5b905250600090508151600381111561191557fe5b1461191c57fe5b61192461398f565b50604080516020810190915283815261193d8186612dcb565b602084018190528382600381111561195157fe5b600381111561195c57fe5b905250600090508251600381111561197057fe5b1461197757fe5b6119848260200151612e33565b95945050505050565b60995460009060ff16156119db576040805162461bcd60e51b815260206004820152601060248201526f14185d5cd8589b194e881c185d5cd95960821b604482015290519081900360640190fd5b600082815260cf60205260409020601001548290600160a01b900460ff16611a38576040805162461bcd60e51b81526020600482015260156024820152600080516020613b6c833981519152604482015290519081900360640190fd5b611a406139a2565b611a4861383c565b50600084815260cf6020908152604091829020825161024081018452815481526001820154928101929092526002810154928201929092526003820154606082015260048201546080820152600582015460a0820152600682015460c0820152600782015460e082015260088201546001600160a01b0390811661010083015260098301548116610120830152600a8301546101408301819052600b840154610160840152600c840154610180840152600d8401546101a08401819052600e8501546101c0850152600f8501546101e0850152601090940154918216610200840152600160a01b90910460ff161515610220830152909110611b89576040805162461bcd60e51b81526020600482015260156024820152740d2dce6e8c2d8d8dacadce840d2e640ccd2dcd2e6d605b1b604482015290519081900360640190fd5b611ba18160800151826101a001518360c00151612e42565b6060840181905283826003811115611bb557fe5b6003811115611bc057fe5b9052506000905082516003811115611bd457fe5b14611bdb57fe5b81606001514210611c1d5760405162461bcd60e51b815260040180806020018281038252603b815260200180613bd1603b913960400191505060405180910390fd5b600181610140015103816101a001511015611c415760608101516020830152611cef565b600181610140015103816101a001511415611cef57611c698160400151826101400151612b98565b6040840181905283826003811115611c7d57fe5b6003811115611c8857fe5b9052506000905082516003811115611c9c57fe5b14611ca357fe5b611cb581606001518360400151612b47565b6020840181905283826003811115611cc957fe5b6003811115611cd457fe5b9052506000905082516003811115611ce857fe5b14611cef57fe5b611cff816101a001516001612b47565b600087815260cf60205260409020600d0181905583826003811115611d2057fe5b6003811115611d2b57fe5b9052506000905082516003811115611d3f57fe5b14611d4657fe5b611d59816101c001518360200151612b47565b600087815260cf60205260409020600e0181905583826003811115611d7a57fe5b6003811115611d8557fe5b9052506000905082516003811115611d9957fe5b14611da057fe5b610200810151602080840151604080516323b872dd60e01b81523360048201523060248201526044810192909252516001600160a01b03909316926323b872dd926064808401939192918290030181600087803b158015611e0057600080fd5b505af1158015611e14573d6000803e3d6000fd5b505050506040513d6020811015611e2a57600080fd5b5051611e76576040805162461bcd60e51b8152602060048201526016602482015275746f6b656e207472616e73666572206661696c75726560501b604482015290519081900360640190fd5b602080830151600087815260cf8352604090819020600e810154600d9091015482519384529383015281810192909252905186917f2e7c703fda6ce8c99592f2a639675a567b550e982f9f006b0ee8e67ffb8997ff919081900360600190a2506001949350505050565b611ee861184f565b611ef157600080fd5b609a80546001019081905581611f3f576040805162461bcd60e51b815260206004820152600e60248201526d616d6f756e74206973207a65726f60901b604482015290519081900360640190fd5b6001600160a01b038316600090815260d16020526040902054821115611f965760405162461bcd60e51b8152600401808060200182810382526024815260200180613b8c6024913960400191505060405180910390fd5b611f9e6139d2565b6001600160a01b038416600090815260d16020526040902054611fc19084612bc3565b6001600160a01b038616600090815260d16020526040902081905582826003811115611fe957fe5b6003811115611ff457fe5b905250600090508151600381111561200857fe5b1461200f57fe5b60405183906001600160a01b038616907f13e8af02ad3e36f8d82fc8b86dcd67b7ed11f718f0e52fb245d2038eb71856ba90600090a36040805163a9059cbb60e01b81523360048201526024810185905290516001600160a01b0386169163a9059cbb9160448083019260209291908290030181600087803b15801561209457600080fd5b505af11580156120a8573d6000803e3d6000fd5b505050506040513d60208110156120be57600080fd5b505161210a576040805162461bcd60e51b8152602060048201526016602482015275746f6b656e207472616e73666572206661696c75726560501b604482015290519081900360640190fd5b50609a548114612161576040805162461bcd60e51b815260206004820152601f60248201527f5265656e7472616e637947756172643a207265656e7472616e742063616c6c00604482015290519081900360640190fd5b505050565b600054610100900460ff168061217f575061217f612d7d565b8061218d575060005460ff16155b6121c85760405162461bcd60e51b815260040180806020018281038252602e815260200180613c84602e913960400191505060405180910390fd5b600054610100900460ff161580156121f3576000805460ff1961ff0019909116610100171660011790555b6121fc82612e8f565b6099805460ff191690558015612218576000805461ff00191690555b5050565b60995460009060ff161561226a576040805162461bcd60e51b815260206004820152601060248201526f14185d5cd8589b194e881c185d5cd95960821b604482015290519081900360640190fd5b609a805460010190819055600084815260cf60205260409020601001548490600160a01b900460ff166122d2576040805162461bcd60e51b81526020600482015260156024820152600080516020613b6c833981519152604482015290519081900360640190fd5b600085815260cf602052604090206009015485906001600160a01b03163314806123155750600081815260cf60205260409020600801546001600160a01b031633145b6123505760405162461bcd60e51b8152600401808060200182810382526037815260200180613cb26037913960400191505060405180910390fd5b60008511612396576040805162461bcd60e51b815260206004820152600e60248201526d616d6f756e74206973207a65726f60901b604482015290519081900360640190fd5b61239e61383c565b50600086815260cf60209081526040808320815161024081018352815481526001820154938101939093526002810154918301919091526003810154606083015260048101546080830152600581015460a0830152600681015460c0830152600781015460e083015260088101546001600160a01b03908116610100840181905260098301548216610120850152600a830154610140850152600b830154610160850152600c830154610180850152600d8301546101a0850152600e8301546101c0850152600f8301546101e0850152601090920154908116610200840152600160a01b900460ff16151561022083015290919061249d9089906107ca565b9050868110156124de5760405162461bcd60e51b8152600401808060200182810382526024815260200180613b8c6024913960400191505060405180910390fd5b6124e88888612f47565b6001955050505050609a548114610ce5576040805162461bcd60e51b815260206004820152601f60248201527f5265656e7472616e637947756172643a207265656e7472616e742063616c6c00604482015290519081900360640190fd5b609a805460010190819055600082815260cf60205260408120601001549091908390600160a01b900460ff166125b1576040805162461bcd60e51b81526020600482015260156024820152600080516020613b6c833981519152604482015290519081900360640190fd5b600084815260cf602052604090206009015484906001600160a01b03163314806125f45750600081815260cf60205260409020600801546001600160a01b031633145b61262f5760405162461bcd60e51b8152600401808060200182810382526037815260200180613cb26037913960400191505060405180910390fd5b612638856132b1565b600193505050609a5481146106c2576040805162461bcd60e51b815260206004820152601f60248201527f5265656e7472616e637947756172643a207265656e7472616e742063616c6c00604482015290519081900360640190fd5b61269c61184f565b6126a557600080fd5b6127108111156126fc576040805162461bcd60e51b815260206004820152601760248201527f66656550657220686967686572207468616e2031303025000000000000000000604482015290519081900360640190fd5b6127046139ed565b61271482655af3107a4000612b05565b602083018190528282600381111561272857fe5b600381111561273357fe5b905250600090508151600381111561274757fe5b1461274e57fe5b60408051602080820183528301519081905260d0555182907f38e229a7f3f9c329892d08eb37c4e91ccac6d12c798d394990ca4f56028ec26690600090a25050565b61279861184f565b6127a157600080fd5b6117278161374c565b6000806000806000806000806000806000808c60cf600082815260200190815260200160002060100160149054906101000a900460ff16612820576040805162461bcd60e51b81526020600482015260156024820152600080516020613b6c833981519152604482015290519081900360640190fd5b60cf60008f815260200190815260200160002060090160009054906101000a90046001600160a01b03169c5060cf60008f815260200190815260200160002060080160009054906101000a90046001600160a01b03169b5060cf60008f8152602001908152602001600020600001549a5060cf60008f815260200190815260200160002060010154995060cf60008f815260200190815260200160002060100160009054906101000a90046001600160a01b0316985060cf60008f815260200190815260200160002060060154975060cf60008f815260200190815260200160002060070154965060cf60008f8152602001908152602001600020600a0154955060cf60008f8152602001908152602001600020600c0154945060cf60008f8152602001908152602001600020600d0154935060cf60008f8152602001908152602001600020600e0154925060cf60008f8152602001908152602001600020600f015491505091939597999b5091939597999b565b600081815260cf60205260408120601001548190819081908590600160a01b900460ff166129f8576040805162461bcd60e51b81526020600482015260156024820152600080516020613b6c833981519152604482015290519081900360640190fd5b5050506000928352505060cf60205260409020600281015460038201546004830154600b90930154919390929190565b6000612a326139d2565b604080516020810190915260d0548152612a4c9084612dcb565b6040830181905282826003811115612a6057fe5b6003811115612a6b57fe5b9052506000905081516003811115612a7f57fe5b14612a8657fe5b612a938160400151612e33565b9392505050565b3390565b60006001600160a01b038216612ae55760405162461bcd60e51b8152600401808060200182810382526022815260200180613c626022913960400191505060405180910390fd5b506001600160a01b03166000908152602091909152604090205460ff1690565b60008083612b1857506000905080612b40565b83830283858281612b2557fe5b0414612b3957506002915060009050612b40565b6000925090505b9250929050565b600080838301848110612b5f57600092509050612b40565b506002915060009050612b40565b60008082612b815750600190506000612b40565b6000838581612b8c57fe5b04915091509250929050565b60008082612bac5750600190506000612b40565b6000838581612bb757fe5b06915091509250929050565b600080838311612bda575060009050818303612b40565b50600390506000612b40565b6000612bf06139d2565b604080516020808201909252868152908201526000612c0f8888612bc3565b91508183826003811115612c1f57fe5b6003811115612c2a57fe5b9052506000905082516003811115612c3e57fe5b14612c4557fe5b612c53826020015182612dcb565b6020840181905283826003811115612c6757fe5b6003811115612c7257fe5b9052506000905082516003811115612c8657fe5b14612c8d57fe5b612c9b826020015186612dcb565b6020840181905283826003811115612caf57fe5b6003811115612cba57fe5b9052506000905082516003811115612cce57fe5b14612cd557fe5b612ce3826020015185612dcb565b6020840181905283826003811115612cf757fe5b6003811115612d0257fe5b9052506000905082516003811115612d1657fe5b14612d1d57fe5b6000612d2c8360200151612e33565b90506000612d3a8284612b47565b91508185826003811115612d4a57fe5b6003811115612d5557fe5b9052506000905084516003811115612d6957fe5b14612d7057fe5b9998505050505050505050565b303b1590565b612d9460668263ffffffff6137bb16565b6040516001600160a01b038216907f6719d08c1888103bea251a4ed56406bd0c3e69723c8a1686e017e7bbe159b6f890600090a250565b6000612dd561398f565b600080612de6866000015186612b05565b90925090506000826003811115612df957fe5b14612e1857506040805160208101909152600081529092509050612b40565b60408051602081019091529081526000969095509350505050565b51670de0b6b3a7640000900490565b600080600080612e528787612b05565b90925090506000826003811115612e6557fe5b14612e765750915060009050612e87565b612e808186612b47565b9350935050505b935093915050565b600054610100900460ff1680612ea85750612ea8612d7d565b80612eb6575060005460ff16155b612ef15760405162461bcd60e51b815260040180806020018281038252602e815260200180613c84602e913960400191505060405180910390fd5b600054610100900460ff16158015612f1c576000805460ff1961ff0019909116610100171660011790555b612f25826107b1565b612f3257612f3282612d83565b8015612218576000805461ff00191690555050565b612f4f61383c565b50600082815260cf6020908152604091829020825161024081018452815481526001820154928101929092526002810154928201929092526003820154606082015260048201546080820152600582015460a0820152600682015460c0820152600782015460e082015260088201546001600160a01b0390811661010083015260098301548116610120830152600a830154610140830152600b830154610160830152600c830154610180830152600d8301546101a0830152600e8301546101c0830152600f8301546101e0830152601090920154918216610200820152600160a01b90910460ff161515610220820152613048613a04565b613057826101e0015184612b47565b600086815260cf60205260409020600f018190558282600381111561307857fe5b600381111561308357fe5b905250600090508151600381111561309757fe5b1461309e57fe5b60006130a984612a28565b6102008401516001600160a01b0316600090815260d160205260409020549091506130d49082612b47565b6102008501516001600160a01b0316600090815260d1602052604090208190558382600381111561310157fe5b600381111561310c57fe5b905250600090508251600381111561312057fe5b1461312757fe5b6131318482612bc3565b602084018190528382600381111561314557fe5b600381111561315057fe5b905250600090508251600381111561316457fe5b1461316b57fe5b8261020001516001600160a01b031663a9059cbb84610100015184602001516040518363ffffffff1660e01b815260040180836001600160a01b03166001600160a01b0316815260200182815260200192505050602060405180830381600087803b1580156131d957600080fd5b505af11580156131ed573d6000803e3d6000fd5b505050506040513d602081101561320357600080fd5b505161324f576040805162461bcd60e51b8152602060048201526016602482015275746f6b656e207472616e73666572206661696c75726560501b604482015290519081900360640190fd5b8261010001516001600160a01b0316857ff16e49fef6041948b2d8cf7888aa7a9b8f6047827945e78c9fb39bdde03377228685602001518560405180848152602001838152602001828152602001935050505060405180910390a35050505050565b6132b961383c565b50600081815260cf6020908152604091829020825161024081018452815481526001820154928101929092526002810154928201929092526003820154606082015260048201546080820152600582015460a0820152600682015460c0820152600782015460e082015260088201546001600160a01b0390811661010083015260098301548116610120830152600a830154610140830152600b830154610160830152600c830154610180830152600d8301546101a0830152600e8301546101c0830152600f8301546101e0830152601090920154918216610200820152600160a01b90910460ff1615156102208201526133b26139ed565b60006133c3848461012001516107ca565b905060006133d6858561010001516107ca565b905060006133e382612a28565b6102008601516001600160a01b0316600090815260d1602052604090205490915061340e9082612b47565b6102008701516001600160a01b0316600090815260d1602052604090208190558582600381111561343b57fe5b600381111561344657fe5b905250600090508451600381111561345a57fe5b1461346157fe5b61346b8282612bc3565b602086018190528582600381111561347f57fe5b600381111561348a57fe5b905250600090508451600381111561349e57fe5b146134a557fe5b600086815260cf60205260408120818155600181018290556002810182905560038101829055600481018290556005810182905560068101829055600781018290556008810180546001600160a01b03199081169091556009820180549091169055600a8101829055600b8101829055600c8101829055600d8101829055600e8101829055600f81019190915560100180546001600160a81b0319169055610200850151821561363557806001600160a01b031663a9059cbb87610100015187602001516040518363ffffffff1660e01b815260040180836001600160a01b03166001600160a01b0316815260200182815260200192505050602060405180830381600087803b1580156135b857600080fd5b505af11580156135cc573d6000803e3d6000fd5b505050506040513d60208110156135e257600080fd5b5051613635576040805162461bcd60e51b815260206004820181905260248201527f726563697069656e7420746f6b656e207472616e73666572206661696c757265604482015290519081900360640190fd5b83156136d557806001600160a01b031663a9059cbb876101200151866040518363ffffffff1660e01b815260040180836001600160a01b03166001600160a01b0316815260200182815260200192505050602060405180830381600087803b1580156136a057600080fd5b505af11580156136b4573d6000803e3d6000fd5b505050506040513d60208110156136ca57600080fd5b50516136d557600080fd5b8561010001516001600160a01b03168661012001516001600160a01b0316887fca15d54c4ee44b8803c856eb73576fc9bbcd3ffe8ca614a1d80be340e0f5e5c6878787426040518085815260200184815260200183815260200182815260200194505050505060405180910390a450505050505050565b6001600160a01b03811661375f57600080fd5b6033546040516001600160a01b038084169216907f8be0079c531659141344cd1fd0a4f28419497f9722a3daafe3b4186f6b6457e090600090a3603380546001600160a01b0319166001600160a01b0392909216919091179055565b6137c58282612a9e565b15613817576040805162461bcd60e51b815260206004820152601f60248201527f526f6c65733a206163636f756e7420616c72656164792068617320726f6c6500604482015290519081900360640190fd5b6001600160a01b0316600090815260209190915260409020805460ff19166001179055565b604051806102400160405280600081526020016000815260200160008152602001600081526020016000815260200160008152602001600081526020016000815260200160006001600160a01b0316815260200160006001600160a01b0316815260200160008152602001600081526020016000815260200160008152602001600081526020016000815260200160006001600160a01b031681526020016000151581525090565b6040805160e0810190915280600081526020016000815260200160008152602001600081526020016000815260200160008152602001600081525090565b604080516101208101909152806000815260200160008152602001600081526020016000815260200160008152602001600081526020016000815260200160008152602001600081525090565b604080518082019091528060005b815260200161398a61398f565b905290565b6040518060200160405280600081525090565b6040805160a081019091528060008152602001600081526020016000815260200160008152602001600081525090565b6040805160608101909152806000815260200161397d61398f565b604080518082019091526000808252602082015290565b6040805160608101909152806000815260200160008152602001600081525090565b600054610100900460ff1680613a3f5750613a3f612d7d565b80613a4d575060005460ff16155b613a885760405162461bcd60e51b815260040180806020018281038252602e815260200180613c84602e913960400191505060405180910390fd5b600054610100900460ff16158015613ab3576000805460ff1961ff0019909116610100171660011790555b603380546001600160a01b0319166001600160a01b0384811691909117918290556040519116906000907f8be0079c531659141344cd1fd0a4f28419497f9722a3daafe3b4186f6b6457e0908290a38015612218576000805461ff0019169055505056fe506175736572526f6c653a2063616c6c657220646f6573206e6f742068617665207468652050617573657220726f6c656475726174696f6e203c206e756d6265724f66496e7374616c6c6d656e7453747265616d73747265616d20646f6573206e6f742065786973740000000000000000000000616d6f756e7420657863656564732074686520617661696c61626c652062616c616e636573746172742074696d65206265666f726520626c6f636b2e74696d657374616d70696e7374616c6c6d656e7453747265616d2069732066696e6973682c726174686572207468616e2053746f70496e7374616c6c6d656e7454696d656475726174696f6e2025206e756d6265724f66496e7374616c6c6d656e747320686176652072656d61696e6465726e756d6265724f66496e7374616c6c6d656e747320626967676572207468616e206465706f736974526f6c65733a206163636f756e7420697320746865207a65726f2061646472657373436f6e747261637420696e7374616e63652068617320616c7265616479206265656e20696e697469616c697a656463616c6c6572206973206e6f74207468652073656e646572206f722074686520726563697069656e74206f66207468652073747265616da265627a7a7231582055fb7fa850dd85f7ad9e7a94f14f0603a02d63cf2fd2c571a721a6f48a9f05d564736f6c63430005100032526f6c65733a206163636f756e7420697320746865207a65726f2061646472657373436f6e747261637420696e7374616e63652068617320616c7265616479206265656e20696e697469616c697a6564",
  "source": "pragma solidity ^0.5.16;\n\nimport \"../node_modules/@openzeppelin/contracts-ethereum-package/contracts/token/ERC20/IERC20.sol\";\nimport \"../node_modules/@openzeppelin/contracts-ethereum-package/contracts/utils/ReentrancyGuard.sol\";\nimport \"./tools-contracts/OwnableWithoutRenounce.sol\";\nimport \"./tools-contracts/Exponential.sol\";\nimport \"./tools-contracts/PausableWithoutRenounce.sol\";\nimport \"./interface/streamPayOfInstallmentWithDPInterface.sol\";\nimport './Types.sol';\n\n/**\n * @title /StreamPay's money streaming of installmentStreamWithDownPayment\n * @author StreamPay\n */\n\ncontract streamPayOfInstallmentWithDP is OwnableWithoutRenounce, PausableWithoutRenounce, Exponential, ReentrancyGuard, streamPayOfInstallmentWithDPInterface{\n    /*** Storage Properties ***/\n    \n    /**\n     * @notice Counter for new stream ids.\n     */\n    uint256 public nextStreamId;\n    \n    /**\n     * @notice symbol of difference content.\n     */\n    uint256 symbol;\n\n    /**\n     * @notice The stream objects identifiable by their unsigned integer ids.\n     */\n    mapping(uint256 =>Types.InstallmentWithDPStream) private installmentWithDPStreams;\n\n    /**\n     * @notice The percentage fee charged by the contract on the accrued interest, 1 is 1 / 1e18\n     */\n    Exp public expFeeOfProtocol;\n\n    /**\n     * @notice In Exp terms, 1e14 is 0.0001, or 0.01%\n     */\n    uint256 constant oneOfTenThousand = 1e14;\n\n    /**\n     * @notice In Exp terms, 1e16 is 0.01, or 1%\n     */\n    uint256 constant onePercent = 1e16;\n    \n    /**\n     * @notice The amount of interest has been accrued per token address.\n     */\n    mapping(address => uint256) private earnings;\n    \n    /*** Modifiers ***/\n    \n    /**\n     * Throws if the caller not sender or recipient of the stream.\n     */\n    modifier onlySenderOrRecipient(uint256 streamId) {\n        require(\n            msg.sender == installmentWithDPStreams[streamId].sender || msg.sender == installmentWithDPStreams[streamId].recipient,\n            \"caller is not the sender or the recipient of the stream\"\n        );\n        _;\n    }\n        \n    /**\n     * Throws if the streamId not exist.\n     */\n    modifier streamExists(uint256 streamId) {\n        require(installmentWithDPStreams[streamId].isEntity, \"stream does not exist\");\n        _;\n    }\n\n    /*** Contract Logic Starts Here */\n\n    constructor() public {\n        OwnableWithoutRenounce.initialize(msg.sender);\n        PausableWithoutRenounce.initialize(msg.sender);\n        nextStreamId = 1;\n        symbol = 4000000;\n    }\n    \n    /*** Owner Functions ***/\n\n    struct UpdateFeePerLocalVars {\n        MathError mathErr;\n        uint256 feePerMantissa;\n    }\n\n    /**\n     * @notice update feeOfProtocolPer.\n     * @dev Throws if the caller is not owner.\n     * @param feePer The new feeOfProtocolPer.\n     */\n    function updateFeesOfProtocolPer(uint256 feePer) external onlyOwner{\n        require(feePer <= 10000, \"feePer higher than 100%\");\n        UpdateFeePerLocalVars memory vars;\n\n        (vars.mathErr, vars.feePerMantissa) = mulUInt(feePer, oneOfTenThousand);\n        assert(vars.mathErr == MathError.NO_ERROR);\n\n        expFeeOfProtocol = Exp({ mantissa:vars.feePerMantissa });\n        emit UpdateFee(feePer);    \n    }\n    \n    /**\n     * @notice Returns the amount of interest that has been accrued for the given token address.\n     * @param tokenAddress The address of the token to get the earnings for.\n     * @return The amount of interest as uint256.\n     */\n    function getEarnings(address tokenAddress) external view returns (uint256) {\n        return earnings[tokenAddress];\n    }\n\n    struct TakeEarningsLocalVars {\n        MathError mathErr;\n    }\n    \n    /**\n     * @notice Withdraws the earnings for the given token address.\n     * @dev Throws if `amount` exceeds the available balance.\n     * @param tokenAddress The address of the token to withdraw earnings for.\n     * @param amount The amount of tokens to withdraw.\n     */\n    function takeEarnings(address tokenAddress, uint256 amount) external onlyOwner nonReentrant {\n        require(amount > 0, \"amount is zero\");\n        require(earnings[tokenAddress] >= amount, \"amount exceeds the available balance\");\n\n        InterestOfLocalVars memory interestVars;\n        \n        (interestVars.mathErr, earnings[tokenAddress]) = subUInt(earnings[tokenAddress], amount);\n        assert(interestVars.mathErr == MathError.NO_ERROR);\n\n        emit TakeEarnings(tokenAddress, amount);\n        require(IERC20(tokenAddress).transfer(msg.sender, amount), \"token transfer failure\");\n    }\n    \n    struct InterestOfLocalVars{\n        MathError mathErr;\n        Exp feesOfRecipient;\n        Exp feesOfProtocol;\n    }\n    \n    /**\n     * @notice calculation the fee charged of recipient,include the fee charged of feesOfProtocol.\n     * @dev Throw if the feesOfRecipient calculation has a math error.\n     * @param deposit The amount of installmentStreamWithDP.\n     * downPaymentAmount The downPayment of stream\n     * feesOfRecipientPer The percentage fee charged by the recipient on the accrued interest, 1 is 1 / 1e18\n     * duration The time interval of stopTime and starttime.\n     * numberOfInstallments The numbers of installments.\n     * @return The fee charged Of Recipient.\n     */\n    function calculationFees(uint256 deposit,uint256 downPaymentAmount,uint256 feesOfRecipientPer,uint256 duration,uint256 numberOfInstallments)\n        internal\n        pure\n        returns(uint256)\n    {\n        InterestOfLocalVars memory vars;\n        vars.feesOfRecipient = Exp({mantissa:feesOfRecipientPer});\n\n        uint256 installmentAmount;\n        (vars.mathErr,installmentAmount) = subUInt(deposit,downPaymentAmount);\n        assert(vars.mathErr == MathError.NO_ERROR);\n\n        (vars.mathErr,vars.feesOfRecipient) = mulScalar(vars.feesOfRecipient,installmentAmount);\n        assert(vars.mathErr == MathError.NO_ERROR);\n\n        (vars.mathErr,vars.feesOfRecipient) = mulScalar(vars.feesOfRecipient,duration);\n        assert(vars.mathErr == MathError.NO_ERROR);\n\n        (vars.mathErr,vars.feesOfRecipient) = mulScalar(vars.feesOfRecipient,numberOfInstallments);\n        assert(vars.mathErr == MathError.NO_ERROR);\n\n        uint256 fees = truncate(vars.feesOfRecipient);\n\n        uint256 installmentAmountWithFees;\n        (vars.mathErr,installmentAmountWithFees) = addUInt(fees,installmentAmount);\n        assert(vars.mathErr == MathError.NO_ERROR);\n        \n        return installmentAmountWithFees;\n    }\n    \n    /**\n     * @notice calculation the fee charged of protocol.\n     * @dev Throw if the feesOfProtocol calculation has a math error.\n     * @param amount The amount is the recipient withdraw or cancel stream's.\n     * duration The time interval of stopTime and startTime.\n     * numberOfInstallments The numbers of installments.\n     * @return The fee charged Of Protocol.\n     */\n    function calculationFeesOfProtocol(uint256 amount)\n        public\n        view\n        returns(uint256)\n    {\n        InterestOfLocalVars memory vars;\n\n        (vars.mathErr,vars.feesOfProtocol) = mulScalar(expFeeOfProtocol,amount);\n        assert(vars.mathErr == MathError.NO_ERROR);\n\n        return (truncate(vars.feesOfProtocol));\n    }\n\n    struct DownPaymentLocalVars{\n        MathError mathErr;\n        Exp downPaymentAmount;\n    }\n\n    /**\n     * @notice calculation the downPayment of stream.\n     * @dev Throw if the downPaymentRatio higher than 100.\n     * Throw if the downPaymentRatio calculation has a math error.\n     * Throw if the downPaymentAmount calculation has a math error.\n     * @param deposit The amount of installmentStreamWithDP.\n     * downPaymentRatio The down payment ratio of installmentStreamWithDP.\n     * @return The down payment amount.\n     */\n    function calculationDownPaymentAmount(uint256 deposit,uint256 downPaymentRatio)\n        public\n        pure\n        returns(uint256)\n    {\n        require(downPaymentRatio <= 100, \"fee percentage higher than 100%\");\n        DownPaymentLocalVars memory vars;\n\n        (vars.mathErr, downPaymentRatio) = mulUInt(downPaymentRatio, onePercent);\n        assert(vars.mathErr == MathError.NO_ERROR);\n\n        Exp memory downPaymentRatios = Exp({mantissa:downPaymentRatio});\n\n        (vars.mathErr,vars.downPaymentAmount) = mulScalar(downPaymentRatios,deposit);\n        assert(vars.mathErr == MathError.NO_ERROR);\n\n        return (truncate(vars.downPaymentAmount));\n    }\n    \n    /**\n     * @notice Returns the installmentStreamWithDP with all its properties.\n     * @dev Throws if the streamId does not exist.\n     * @param streamId The id of the stream to query.\n     * @return The installmentStreamWithDP object.\n     */\n    function getInstallmentWithDPStream(uint256 streamId) external view streamExists(streamId) returns(\n        address sender,\n        address recipient,\n        uint256 deposit,\n        uint256 downPaymentAmount,\n        address tokenAddress,\n        uint256 startTime,\n        uint256 stopTime,\n        uint256 numberOfInstallments,\n        uint256 feesOfRecipientPer,\n        uint256 haveBeenNumberOfInstallment,\n        uint256 haveBeenPaidAmount,\n        uint256 withdrawalAmount)\n    {\n        sender = installmentWithDPStreams[streamId].sender;\n        recipient = installmentWithDPStreams[streamId].recipient;\n        deposit = installmentWithDPStreams[streamId].deposit;\n        downPaymentAmount = installmentWithDPStreams[streamId].downPaymentAmount;\n        tokenAddress = installmentWithDPStreams[streamId].tokenAddress;\n        startTime = installmentWithDPStreams[streamId].startTime;\n        stopTime = installmentWithDPStreams[streamId].stopTime;\n        numberOfInstallments = installmentWithDPStreams[streamId].numberOfInstallments;\n        feesOfRecipientPer = installmentWithDPStreams[streamId].feesOfRecipientPer;  \n        haveBeenNumberOfInstallment = installmentWithDPStreams[streamId].haveBeenNumberOfInstallment;\n        haveBeenPaidAmount = installmentWithDPStreams[streamId].haveBeenPaidAmount;\n        withdrawalAmount = installmentWithDPStreams[streamId].withdrawalAmount;\n    }\n\n    function getInstallmentWithDPStreamCal(uint256 streamId) external view streamExists(streamId) returns(\n        uint256 installmentAmountWithFees,\n        uint256 oneOfInstallmentAmount,\n        uint256 oneOfInstallmentTime,\n        uint256 ratePerSecond)\n    {\n        installmentAmountWithFees = installmentWithDPStreams[streamId].installmentAmountWithFees;\n        oneOfInstallmentAmount = installmentWithDPStreams[streamId].oneOfInstallmentAmount;\n        oneOfInstallmentTime = installmentWithDPStreams[streamId].oneOfInstallmentTime;\n        ratePerSecond = installmentWithDPStreams[streamId].ratePerSecond;\n    }\n    \n    struct CreateInstallmentWithDPStreamLocalVars {\n        MathError mathErr;\n        uint256 duration;\n        uint256 downPaymentAmount;\n        uint256 oneOfInstallmentAmount;\n        uint256 oneOfInstallmentTime;\n        uint256 ratePerSecond;\n        uint256 firstPayAmount;\n        uint256 haveBeenNumberOfInstallment;\n        uint256 haveBeenPaidAmount;\n    }\n    \n    /**\n     * @notice Create a installmentStreamWithDP.\n     * @dev Throws if paused.\n     * Throw if the recipient is 0,the contract itself or the msg.sender.\n     * Throw if the deposit is 0.\n     * Throws if the start time is before `block.timestamp`.\n     * Throws if the stop time is before the start time.\n     * Throw if startTime is smaller than block.timestamp.\n     * Throw if maxAmount is smaller than ratePerSecond.\n     * Throw if deposit is smaller than numberOfInstallments.\n     * Throw if numberOfInstallments is less than 2.\n     * Throw if the streamId calculation has a math error.\n     * Throw if the duration calculation has a math error.\n     * Throw if the deposit is smaller than duration.\n     * Throws if the deposit is not a multiple of the duration.\n     * Throw if the oneOfInstallmentTime calculation has a math error.\n     * Throw if the oneOfInstallmentAmount calculation has a math error.\n     * Throw if the ratePerSecond calculation has a math error.\n     * Throw if the nextStreamId calculation has a math error.\n     * Throw if the haveBeenNumberOfInstallment calculation has a math error.\n     * @param recipient The address of receipt stream money.\n     * deposit The amount of installment stream.\n     * tokenAddress The ERC20 token.\n     * startTime The time of stream start.\n     * stopTime The time of stream stop.\n     * numberOfInstallments The number of installments.\n     * downPaymentRatio The down payment ratio of installmentStreamWithDP.\n     * feesOfRecipientPer The fee charged by the recipient on the accrued interest, 1 is 1 / 1e18.\n     * @return The id of the stream.\n     */\n\n    function createInstallmentWithDPStream(address recipient,uint256 deposit,address tokenAddress,uint256 startTime,\n    uint256 stopTime,uint256 numberOfInstallments,uint256 downPaymentRatio,uint256 feesOfRecipientPer)\n        public\n        whenNotPaused\n        returns(uint256)\n    {\n        require(recipient != address(0x00),\"stream to the zero address\");\n        require(recipient != address(this),\"stream to the contract\");\n        require(recipient != msg.sender,\"stream to the caller\");\n        require(deposit > 0, \"deposit is zero\");\n        require(startTime >= block.timestamp, \"start time before block.timestamp\");\n        require(stopTime > startTime, \"stop time before the start time\");\n        require(deposit > numberOfInstallments,\"numberOfInstallments bigger than deposit\");\n        require(numberOfInstallments >=2,\"numberOfInstallments is small 2\");\n        \n        CreateInstallmentWithDPStreamLocalVars memory vars;\n        \n        (vars.mathErr,vars.duration) = subUInt(stopTime,startTime);\n        assert(vars.mathErr == MathError.NO_ERROR);\n        require(deposit >= vars.duration,\"deposit smaller than time delta\");\n        require(vars.duration >= numberOfInstallments,\"duration < numberOfInstallmentStream\");\n        require(vars.duration % numberOfInstallments == 0,\"duration % numberOfInstallments have remainder\");\n        \n        vars.downPaymentAmount = calculationDownPaymentAmount(deposit,downPaymentRatio);\n        \n        uint256 installmentAmountWithFees = calculationFees(deposit,vars.downPaymentAmount,feesOfRecipientPer,vars.duration,numberOfInstallments);\n        \n        (vars.mathErr,vars.oneOfInstallmentAmount) = divUInt(installmentAmountWithFees,numberOfInstallments);\n        assert(vars.mathErr == MathError.NO_ERROR);\n        \n        (vars.mathErr,vars.oneOfInstallmentTime) = divUInt(vars.duration,numberOfInstallments);\n        assert(vars.mathErr == MathError.NO_ERROR);\n\n        (vars.mathErr,vars.ratePerSecond) = divUInt(vars.oneOfInstallmentAmount,vars.oneOfInstallmentTime);\n        assert(vars.mathErr == MathError.NO_ERROR);\n        \n        (vars.mathErr,vars.firstPayAmount) = addUInt(vars.oneOfInstallmentAmount,vars.downPaymentAmount);\n        assert(vars.mathErr == MathError.NO_ERROR);\n        \n        uint256 streamId;\n        (vars.mathErr,streamId) = addUInt(symbol,nextStreamId);\n        assert(vars.mathErr == MathError.NO_ERROR);\n\n        (vars.mathErr, vars.haveBeenNumberOfInstallment) = addUInt(vars.haveBeenNumberOfInstallment, uint256(1));\n        assert(vars.mathErr == MathError.NO_ERROR);\n\n        vars.haveBeenPaidAmount = vars.firstPayAmount;\n        \n        installmentWithDPStreams[streamId] = Types.InstallmentWithDPStream({\n            deposit:deposit,\n            downPaymentAmount:vars.downPaymentAmount,\n            installmentAmountWithFees:installmentAmountWithFees,\n            oneOfInstallmentAmount:vars.oneOfInstallmentAmount,\n            oneOfInstallmentTime:vars.oneOfInstallmentTime,\n            downPaymentRatio:downPaymentRatio,\n            startTime:startTime,\n            stopTime:stopTime,\n            recipient:recipient,\n            sender:msg.sender,\n            numberOfInstallments:numberOfInstallments,\n            ratePerSecond:vars.ratePerSecond,\n            feesOfRecipientPer:feesOfRecipientPer,\n            haveBeenNumberOfInstallment:vars.haveBeenNumberOfInstallment,\n            haveBeenPaidAmount:vars.firstPayAmount,\n            withdrawalAmount:0,\n            tokenAddress:tokenAddress,\n            isEntity:true\n        });\n        \n        (vars.mathErr, nextStreamId) = addUInt(nextStreamId, uint256(1));\n        assert(vars.mathErr == MathError.NO_ERROR);\n\n        require(IERC20(tokenAddress).transferFrom(msg.sender, address(this), vars.firstPayAmount), \"token transfer failure\");\n        emit CreateInstallmentWithDPStream(streamId,msg.sender,recipient,deposit,tokenAddress,startTime,stopTime,numberOfInstallments,\n        downPaymentRatio,feesOfRecipientPer,vars.haveBeenPaidAmount,installmentAmountWithFees);\n\n        return streamId;\n    } \n\n    /**\n     * @notice return the duration of the stream\n     * @dev Throws if the streamId does not exist.\n     * @param streamId The id of the stream to query.\n     * @return The duration of the stream's startTime to now.\n     */\n    function installmentDeltaOf(uint256 streamId) public view streamExists(streamId) returns(uint256){\n        Types.InstallmentWithDPStream memory installmentWithDPStream =  installmentWithDPStreams[streamId];\n        \n        if(block.timestamp <= installmentWithDPStream.startTime) return 0;\n        if(block.timestamp < installmentWithDPStream.stopTime) return block.timestamp - installmentWithDPStream.startTime;\n        return installmentWithDPStream.stopTime - installmentWithDPStream.startTime;\n    }\n    \n    struct InstallmentWithDPBalanceOfLocalVars {\n        MathError mathErr;\n        uint256 recipientBalance;\n        uint256 senderBalance;\n        uint256 handleBalance;\n        uint256 numberOfTime;\n        uint256 remainderOfInstallmentAmountWithFees;\n        uint256 remainderOfOneInstallment;\n    }\n\n    /**\n     * @notice return the accountBalance of sender or recipient.\n     * @dev Throws if the streamId does not exist.\n     * Throw if the handleBalance calculation has a math error.\n     * Throw if the recipientBalance calculation has a math error.\n     * Throw if the senderBalance calculation has a math error.\n     * @param streamId The id of the stream to query.\n     * who The account of the sender or recipient.\n     * @return The account balance of sender or recipient.\n     */\n    function installmentWithDPBalanceOf(uint256 streamId, address who)\n        public\n        view\n        streamExists(streamId)\n        returns (uint256 balance)\n    {\n        Types.InstallmentWithDPStream memory installmentWithDPStream =  installmentWithDPStreams[streamId];\n        InstallmentWithDPBalanceOfLocalVars memory vars;\n        \n        uint256 delta = installmentDeltaOf(streamId);\n        \n        (vars.mathErr, vars.handleBalance) = mulUInt(delta,installmentWithDPStream.ratePerSecond);\n        assert(vars.mathErr == MathError.NO_ERROR);\n        \n        if(block.timestamp >= installmentWithDPStream.startTime){\n            (vars.mathErr, vars.handleBalance) = addUInt(vars.handleBalance,installmentWithDPStream.downPaymentAmount);\n            assert(vars.mathErr == MathError.NO_ERROR);\n        }\n        \n        if (delta >= installmentWithDPStream.oneOfInstallmentTime){\n            (vars.mathErr, vars.numberOfTime) = divUInt(delta,installmentWithDPStream.oneOfInstallmentTime);\n            assert(vars.mathErr == MathError.NO_ERROR);\n\n            if(vars.numberOfTime > installmentWithDPStream.haveBeenNumberOfInstallment){\n                vars.numberOfTime = installmentWithDPStream.haveBeenNumberOfInstallment;\n            }\n\n            (vars.mathErr,vars.remainderOfOneInstallment) = modUInt(installmentWithDPStream.oneOfInstallmentAmount,installmentWithDPStream.oneOfInstallmentTime);\n            assert(vars.mathErr == MathError.NO_ERROR);\n\n            (vars.mathErr,vars.remainderOfOneInstallment) = mulUInt(vars.numberOfTime,vars.remainderOfOneInstallment);\n            assert(vars.mathErr == MathError.NO_ERROR);\n\n            (vars.mathErr,vars.handleBalance) = addUInt(vars.handleBalance,vars.remainderOfOneInstallment);\n            assert(vars.mathErr == MathError.NO_ERROR);\n        }\n        \n        if (block.timestamp >= installmentWithDPStream.stopTime){\n            (vars.mathErr,vars.remainderOfInstallmentAmountWithFees) = modUInt(installmentWithDPStream.installmentAmountWithFees,installmentWithDPStream.numberOfInstallments);\n            assert(vars.mathErr == MathError.NO_ERROR);\n            \n            (vars.mathErr,vars.handleBalance) = addUInt(vars.handleBalance,vars.remainderOfInstallmentAmountWithFees);\n            assert(vars.mathErr == MathError.NO_ERROR);\n        }\n        \n        if (vars.handleBalance >= installmentWithDPStream.haveBeenPaidAmount){\n            vars.handleBalance = installmentWithDPStream.haveBeenPaidAmount;\n        }\n        \n        (vars.mathErr,vars.recipientBalance) = subUInt(vars.handleBalance,installmentWithDPStream.withdrawalAmount);\n        assert(vars.mathErr == MathError.NO_ERROR);\n\n        if (who == installmentWithDPStream.recipient) return vars.recipientBalance;\n        if (who == installmentWithDPStream.sender){\n            (vars.mathErr,vars.senderBalance) = subUInt(installmentWithDPStream.haveBeenPaidAmount,vars.handleBalance);\n            assert(vars.mathErr == MathError.NO_ERROR);\n\n            return vars.senderBalance;\n        }\n        return 0;\n    \n    }\n    \n    struct TransferWithDPLocalVars {\n        MathError mathErr;\n        uint256 transferAmount;\n        uint256 remainderOfInstallmentAmountWithFees;\n        uint256 nextStopInstallmentTime;\n        uint256 startTimeOfInstallment;\n    }\n\n    /**\n     * @notice transfer installment amount for continue stream.\n     * @dev Throws if paused.\n     * Throws if the streamId does not exist.\n     * Throws if the block.timestamp rather than nextStopInstallmentTime.\n     * Throws if the block.timestamp not arrive startOfInstallmentTime.\n     * Throw if the remainderOfInstallmentAmountWithFees calculation has a math error.\n     * Throw if the transferAmount calculation has a math error.\n     * Throw if the haveBeenNumberOfInstallment calculation has a math error.\n     * Throw if the haveBeenPaidAmount calculation has a math error.\n     * @param streamId The id of the stream to query.\n     * @return The bool of transfer.\n     */\n    function transferWithDP(uint256 streamId)\n        public\n        whenNotPaused\n        streamExists(streamId)\n        returns(bool)\n    {\n        TransferWithDPLocalVars memory vars;\n        Types.InstallmentWithDPStream memory installmentWithDPStream =  installmentWithDPStreams[streamId];\n\n        require(installmentWithDPStream.haveBeenNumberOfInstallment < installmentWithDPStream.numberOfInstallments,\"installment is finish\");\n        \n        (vars.mathErr,vars.nextStopInstallmentTime) = mulThenAddUint(installmentWithDPStream.oneOfInstallmentTime,installmentWithDPStream.haveBeenNumberOfInstallment,installmentWithDPStream.startTime);\n        assert(vars.mathErr == MathError.NO_ERROR);        \n        \n        require(block.timestamp < vars.nextStopInstallmentTime,\"installmentStream is finish,rather than StopInstallmentTime\");\n\n        if (installmentWithDPStream.haveBeenNumberOfInstallment < installmentWithDPStream.numberOfInstallments - 1){\n            vars.transferAmount = installmentWithDPStream.oneOfInstallmentAmount;\n        }else if(installmentWithDPStream.haveBeenNumberOfInstallment == installmentWithDPStream.numberOfInstallments - 1){\n            (vars.mathErr,vars.remainderOfInstallmentAmountWithFees) = modUInt(installmentWithDPStream.installmentAmountWithFees,installmentWithDPStream.numberOfInstallments);\n            assert(vars.mathErr == MathError.NO_ERROR);\n            \n            (vars.mathErr,vars.transferAmount) = addUInt(installmentWithDPStream.oneOfInstallmentAmount,vars.remainderOfInstallmentAmountWithFees);\n            assert(vars.mathErr == MathError.NO_ERROR);\n        }\n        \n        (vars.mathErr, installmentWithDPStreams[streamId].haveBeenNumberOfInstallment) = addUInt(installmentWithDPStream.haveBeenNumberOfInstallment,uint256(1));\n        assert(vars.mathErr == MathError.NO_ERROR);\n        \n        (vars.mathErr, installmentWithDPStreams[streamId].haveBeenPaidAmount) = addUInt(installmentWithDPStream.haveBeenPaidAmount,vars.transferAmount);\n        assert(vars.mathErr == MathError.NO_ERROR);\n        \n        require(IERC20(installmentWithDPStream.tokenAddress).transferFrom(msg.sender, address(this), vars.transferAmount), \"token transfer failure\");\n        emit TransferWithDP(streamId,vars.transferAmount,installmentWithDPStreams[streamId].haveBeenPaidAmount,installmentWithDPStreams[streamId].haveBeenNumberOfInstallment);\n\n        return true;\n    }\n\n    /**\n     * @notice withdraw from stream.\n     * @dev Throws if paused.\n     * Throws if the streamId does not exist.\n     * Throw if caller is not recipient.\n     * Throw if the amount = 0.\n     * Throw if the amount is bigger than balance;\n     * @param streamId The id of the stream to query.\n     * amount The amount of withdraw from stream.\n     * @return The bool of transfer amount.\n     */\n    function withdrawInstallmentWithDPStream(uint256 streamId,uint256 amount)\n        external\n        whenNotPaused\n        nonReentrant\n        streamExists(streamId)\n        onlySenderOrRecipient(streamId)\n        returns(bool)\n    {\n        require(amount > 0,\"amount is zero\");\n        Types.InstallmentWithDPStream memory installmentWithDPStream =  installmentWithDPStreams[streamId];\n        \n        uint256 balance = installmentWithDPBalanceOf(streamId,installmentWithDPStream.recipient);\n        require(balance >= amount,\"amount exceeds the available balance\");\n        \n        withdrawInstallmentWithDPStreamInterval(streamId,amount);\n        return true;\n    }\n    \n    struct WithdrawLocalVars {\n        MathError mathErr;\n        uint256 actualAmount;\n        uint256 depositWithFees;\n    }\n\n    /**\n     * @notice transfer withdraw amount to recipient.\n     * @dev Throws if the streamId does not exist.\n     * Throw if the withdrawalAmount calculation has a math error.\n     * @param streamId The id of the stream to query.\n     * amount The amount of withdraw from stream.\n     */\n    function withdrawInstallmentWithDPStreamInterval(uint256 streamId,uint256 amount) internal{\n        Types.InstallmentWithDPStream memory installmentWithDPStream =  installmentWithDPStreams[streamId];\n        WithdrawLocalVars memory vars;\n\n        (vars.mathErr,installmentWithDPStreams[streamId].withdrawalAmount) = addUInt(installmentWithDPStream.withdrawalAmount,amount);\n        assert(vars.mathErr == MathError.NO_ERROR);\n        \n        uint256 feesOfProtocol = calculationFeesOfProtocol(amount);\n        \n        (vars.mathErr, earnings[installmentWithDPStream.tokenAddress]) = addUInt(earnings[installmentWithDPStream.tokenAddress], feesOfProtocol);\n        assert(vars.mathErr == MathError.NO_ERROR);\n        \n        (vars.mathErr, vars.actualAmount) = subUInt(amount, feesOfProtocol);\n        assert(vars.mathErr == MathError.NO_ERROR);\n\n        require(IERC20(installmentWithDPStream.tokenAddress).transfer(installmentWithDPStream.recipient, vars.actualAmount), \"token transfer failure\");\n        emit WithdrawFromInstallmentWithDPStream(streamId,installmentWithDPStream.recipient,amount,vars.actualAmount,feesOfProtocol);\n    }    \n\n    /**\n     * @notice Finish the stream.\n     * @dev Throws if the streamId does not exist.\n     * Throw if caller is not sender or recipient.\n     * @param streamId The id of the stream to query.\n     * @return The bool of transfer amount.\n     */\n    function cancelInstallmentWithDPStream(uint256 streamId)\n        external\n        nonReentrant\n        streamExists(streamId)\n        onlySenderOrRecipient(streamId)\n        returns(bool)\n    {\n        cancelInstallmentWithDPStreamInternal(streamId);\n        return true;\n    }\n    \n    struct CancelLocalVars {\n        MathError mathErr;\n        uint256 actualRecipientBalance;\n    }\n\n    /**\n     * @notice transfer amount to recipient and sender of finish stream account.\n     * @dev Throws if the streamId does not exist.\n     * @param streamId The id of the stream to query.\n     */\n    function cancelInstallmentWithDPStreamInternal(uint256 streamId) internal{\n        Types.InstallmentWithDPStream memory installmentWithDPStream =  installmentWithDPStreams[streamId];\n        CancelLocalVars memory vars;\n\n        uint256 senderBalance = installmentWithDPBalanceOf(streamId,installmentWithDPStream.sender);\n        uint256 recipientBalance = installmentWithDPBalanceOf(streamId,installmentWithDPStream.recipient);\n        uint256 feesOfProtocol = calculationFeesOfProtocol(recipientBalance);\n        \n        (vars.mathErr, earnings[installmentWithDPStream.tokenAddress]) = addUInt(earnings[installmentWithDPStream.tokenAddress], feesOfProtocol);\n        assert(vars.mathErr == MathError.NO_ERROR);\n\n        (vars.mathErr, vars.actualRecipientBalance) = subUInt(recipientBalance, feesOfProtocol);\n        assert(vars.mathErr == MathError.NO_ERROR);\n        \n        delete installmentWithDPStreams[streamId];\n        \n        IERC20 token = IERC20(installmentWithDPStream.tokenAddress);\n        if (recipientBalance > 0)\n            require(token.transfer(installmentWithDPStream.recipient, vars.actualRecipientBalance), \"recipient token transfer failure\");\n        if (senderBalance > 0) require(token.transfer(installmentWithDPStream.sender,senderBalance));\n        \n        emit CancelInstallmentWithDPStream(streamId,installmentWithDPStream.sender,installmentWithDPStream.recipient,senderBalance,recipientBalance,feesOfProtocol,block.timestamp);\n    }\n}",
  "sourcePath": "F:\\streampayv4\\contracts\\streamPayOfInstallmentWithDP.sol",
  "compiler": {
    "name": "solc",
    "version": "0.5.16+commit.9c3226ce.Emscripten.clang"
  },
  "schemaVersion": "3.0.23",
  "updatedAt": "2020-09-15T09:46:43.448Z",
  "devdoc": {
    "author": "StreamPay",
    "methods": {
      "calculationDownPaymentAmount(uint256,uint256)": {
        "details": "Throw if the downPaymentRatio higher than 100. Throw if the downPaymentRatio calculation has a math error. Throw if the downPaymentAmount calculation has a math error.",
        "params": {
          "deposit": "The amount of installmentStreamWithDP. downPaymentRatio The down payment ratio of installmentStreamWithDP."
        },
        "return": "The down payment amount."
      },
      "calculationFeesOfProtocol(uint256)": {
        "details": "Throw if the feesOfProtocol calculation has a math error.",
        "params": {
          "amount": "The amount is the recipient withdraw or cancel stream's. duration The time interval of stopTime and startTime. numberOfInstallments The numbers of installments."
        },
        "return": "The fee charged Of Protocol."
      },
      "cancelInstallmentWithDPStream(uint256)": {
        "details": "Throws if the streamId does not exist. Throw if caller is not sender or recipient.",
        "params": {
          "streamId": "The id of the stream to query."
        },
        "return": "The bool of transfer amount."
      },
      "createInstallmentWithDPStream(address,uint256,address,uint256,uint256,uint256,uint256,uint256)": {
        "details": "Throws if paused. Throw if the recipient is 0,the contract itself or the msg.sender. Throw if the deposit is 0. Throws if the start time is before `block.timestamp`. Throws if the stop time is before the start time. Throw if startTime is smaller than block.timestamp. Throw if maxAmount is smaller than ratePerSecond. Throw if deposit is smaller than numberOfInstallments. Throw if numberOfInstallments is less than 2. Throw if the streamId calculation has a math error. Throw if the duration calculation has a math error. Throw if the deposit is smaller than duration. Throws if the deposit is not a multiple of the duration. Throw if the oneOfInstallmentTime calculation has a math error. Throw if the oneOfInstallmentAmount calculation has a math error. Throw if the ratePerSecond calculation has a math error. Throw if the nextStreamId calculation has a math error. Throw if the haveBeenNumberOfInstallment calculation has a math error.",
        "params": {
          "recipient": "The address of receipt stream money. deposit The amount of installment stream. tokenAddress The ERC20 token. startTime The time of stream start. stopTime The time of stream stop. numberOfInstallments The number of installments. downPaymentRatio The down payment ratio of installmentStreamWithDP. feesOfRecipientPer The fee charged by the recipient on the accrued interest, 1 is 1 / 1e18."
        },
        "return": "The id of the stream."
      },
      "getEarnings(address)": {
        "params": {
          "tokenAddress": "The address of the token to get the earnings for."
        },
        "return": "The amount of interest as uint256."
      },
      "getInstallmentWithDPStream(uint256)": {
        "details": "Throws if the streamId does not exist.",
        "params": {
          "streamId": "The id of the stream to query."
        },
        "return": "The installmentStreamWithDP object."
      },
      "initialize(address)": {
        "details": "Initializes the contract in unpaused state. Assigns the Pauser role to the deployer."
      },
      "installmentDeltaOf(uint256)": {
        "details": "Throws if the streamId does not exist.",
        "params": {
          "streamId": "The id of the stream to query."
        },
        "return": "The duration of the stream's startTime to now."
      },
      "installmentWithDPBalanceOf(uint256,address)": {
        "details": "Throws if the streamId does not exist. Throw if the handleBalance calculation has a math error. Throw if the recipientBalance calculation has a math error. Throw if the senderBalance calculation has a math error.",
        "params": {
          "streamId": "The id of the stream to query. who The account of the sender or recipient."
        },
        "return": "The account balance of sender or recipient."
      },
      "isOwner()": {
        "return": "true if `msg.sender` is the owner of the contract."
      },
      "owner()": {
        "return": "the address of the owner."
      },
      "pause()": {
        "details": "Called by a pauser to pause, triggers stopped state."
      },
      "paused()": {
        "details": "Returns true if the contract is paused, and false otherwise."
      },
      "takeEarnings(address,uint256)": {
        "details": "Throws if `amount` exceeds the available balance.",
        "params": {
          "amount": "The amount of tokens to withdraw.",
          "tokenAddress": "The address of the token to withdraw earnings for."
        }
      },
      "transferOwnership(address)": {
        "details": "Allows the current owner to transfer control of the contract to a newOwner.",
        "params": {
          "newOwner": "The address to transfer ownership to."
        }
      },
      "transferWithDP(uint256)": {
        "details": "Throws if paused. Throws if the streamId does not exist. Throws if the block.timestamp rather than nextStopInstallmentTime. Throws if the block.timestamp not arrive startOfInstallmentTime. Throw if the remainderOfInstallmentAmountWithFees calculation has a math error. Throw if the transferAmount calculation has a math error. Throw if the haveBeenNumberOfInstallment calculation has a math error. Throw if the haveBeenPaidAmount calculation has a math error.",
        "params": {
          "streamId": "The id of the stream to query."
        },
        "return": "The bool of transfer."
      },
      "unpause()": {
        "details": "Called by a pauser to unpause, returns to normal state."
      },
      "updateFeesOfProtocolPer(uint256)": {
        "details": "Throws if the caller is not owner.",
        "params": {
          "feePer": "The new feeOfProtocolPer."
        }
      },
      "withdrawInstallmentWithDPStream(uint256,uint256)": {
        "details": "Throws if paused. Throws if the streamId does not exist. Throw if caller is not recipient. Throw if the amount = 0. Throw if the amount is bigger than balance;",
        "params": {
          "streamId": "The id of the stream to query. amount The amount of withdraw from stream."
        },
        "return": "The bool of transfer amount."
      }
    },
    "title": "/StreamPay's money streaming of installmentStreamWithDownPayment"
  },
  "userdoc": {
    "methods": {
      "calculationDownPaymentAmount(uint256,uint256)": {
        "notice": "calculation the downPayment of stream."
      },
      "calculationFeesOfProtocol(uint256)": {
        "notice": "calculation the fee charged of protocol."
      },
      "cancelInstallmentWithDPStream(uint256)": {
        "notice": "Finish the stream."
      },
      "constructor": "* Contract Logic Starts Here ",
      "createInstallmentWithDPStream(address,uint256,address,uint256,uint256,uint256,uint256,uint256)": {
        "notice": "Create a installmentStreamWithDP."
      },
      "getEarnings(address)": {
        "notice": "Returns the amount of interest that has been accrued for the given token address."
      },
      "getInstallmentWithDPStream(uint256)": {
        "notice": "Returns the installmentStreamWithDP with all its properties."
      },
      "installmentDeltaOf(uint256)": {
        "notice": "return the duration of the stream"
      },
      "installmentWithDPBalanceOf(uint256,address)": {
        "notice": "return the accountBalance of sender or recipient."
      },
      "takeEarnings(address,uint256)": {
        "notice": "Withdraws the earnings for the given token address."
      },
      "transferWithDP(uint256)": {
        "notice": "transfer installment amount for continue stream."
      },
      "updateFeesOfProtocolPer(uint256)": {
        "notice": "update feeOfProtocolPer."
      },
      "withdrawInstallmentWithDPStream(uint256,uint256)": {
        "notice": "withdraw from stream."
      }
    }
  }
}